{
  "contractName": "InterfaceStudent",
  "abi": [
    {
      "constant": false,
      "inputs": [
        {
          "internalType": "address",
          "name": "_address",
          "type": "address"
        },
        {
          "internalType": "bytes32",
          "name": "_hashedCert",
          "type": "bytes32"
        }
      ],
      "name": "addCertificates",
      "outputs": [],
      "payable": false,
      "stateMutability": "nonpayable",
      "type": "function"
    }
  ],
  "bytecode": "0x608060405234801561001057600080fd5b5060b18061001f6000396000f3fe6080604052348015600f57600080fd5b506004361060285760003560e01c8063f98077dc14602d575b600080fd5b607660048036036040811015604157600080fd5b81019080803573ffffffffffffffffffffffffffffffffffffffff169060200190929190803590602001909291905050506078565b005b505056fea265627a7a723158209d013dede213a5900574ac2dd2c73f883610d7596318c7349fc8d1683063764e64736f6c63430005100032",
  "source": "pragma solidity >=0.4.22 <0.9.0;\r\n\r\nimport \"./Ownable.sol\";\r\n\r\ncontract InterfaceStudent {\r\n    function addCertificates(address _address, bytes32 _hashedCert) external{}\r\n}\r\ncontract Student is Ownable{\r\n  struct Certificate {\r\n    uint8 state;\r\n    address issuerAddress;\r\n    bytes32 certHash;\r\n  }\r\n  bytes32[] public certificateList; // mang hashed_cert\r\n  mapping (bytes32 => Certificate) mapCertificates; // hashed_cert => Certificate\r\n \r\n  event addCert(address _address, bytes32 _hashedCert);\r\n\r\n  constructor() public {\r\n    transferOwnership(msg.sender);\r\n  }\r\n\r\n  function transfer(address newOwner) public {\r\n    transferOwnership(newOwner);\r\n  }\r\n\r\n  function addCertificates(address _address, bytes32 _hashedCert) external{\r\n    certificateList.push(_hashedCert);\r\n    mapCertificates[_hashedCert] = Certificate(uint8(0), _address, _hashedCert);\r\n    emit addCert(_address, _hashedCert);\r\n  }\r\n  \r\n  function _deactivateCertificate(bytes32 _certHash) external{\r\n    mapCertificates[_certHash].state = 0;\r\n  }\r\n\r\n  function _deleteCertificate(bytes32 _certHash) external{\r\n    mapCertificates[_certHash].state = 2;\r\n  }\r\n\r\n  function viewCertificate(bytes32 _certHash) public view returns (uint8, address, bytes32){\r\n    Certificate storage cert = mapCertificates[_certHash];\r\n    return (cert.state, cert.issuerAddress, cert.certHash);\r\n  }\r\n}\r\n",
  "sourcePath": "D:\\labs\\project_QLVBCC\\src\\contracts\\Student.sol",
  "compiler": {
    "name": "solc",
    "version": "0.5.16+commit.9c3226ce.Emscripten.clang"
  },
  "schemaVersion": "3.4.3",
  "updatedAt": "2021-10-24T20:24:05.271Z",
  "devdoc": {
    "methods": {}
  },
  "userdoc": {
    "methods": {}
  }
}