{
  "contractName": "School",
  "abi": [
    {
      "inputs": [
        {
          "internalType": "string",
          "name": "_name",
          "type": "string"
        },
        {
          "internalType": "string",
          "name": "_addressPlace",
          "type": "string"
        },
        {
          "internalType": "string",
          "name": "_phoneNumber",
          "type": "string"
        },
        {
          "internalType": "string",
          "name": "_email",
          "type": "string"
        },
        {
          "internalType": "string",
          "name": "_fax",
          "type": "string"
        },
        {
          "internalType": "string",
          "name": "_website",
          "type": "string"
        },
        {
          "internalType": "address",
          "name": "schAddr",
          "type": "address"
        }
      ],
      "payable": false,
      "stateMutability": "nonpayable",
      "type": "constructor"
    },
    {
      "anonymous": false,
      "inputs": [
        {
          "indexed": true,
          "internalType": "address",
          "name": "previousOwner",
          "type": "address"
        },
        {
          "indexed": true,
          "internalType": "address",
          "name": "newOwner",
          "type": "address"
        }
      ],
      "name": "OwnershipTransferred",
      "type": "event"
    },
    {
      "constant": true,
      "inputs": [],
      "name": "addressPlace",
      "outputs": [
        {
          "internalType": "string",
          "name": "",
          "type": "string"
        }
      ],
      "payable": false,
      "stateMutability": "view",
      "type": "function"
    },
    {
      "constant": true,
      "inputs": [],
      "name": "email",
      "outputs": [
        {
          "internalType": "string",
          "name": "",
          "type": "string"
        }
      ],
      "payable": false,
      "stateMutability": "view",
      "type": "function"
    },
    {
      "constant": true,
      "inputs": [],
      "name": "fax",
      "outputs": [
        {
          "internalType": "string",
          "name": "",
          "type": "string"
        }
      ],
      "payable": false,
      "stateMutability": "view",
      "type": "function"
    },
    {
      "constant": true,
      "inputs": [],
      "name": "isOwner",
      "outputs": [
        {
          "internalType": "bool",
          "name": "",
          "type": "bool"
        }
      ],
      "payable": false,
      "stateMutability": "view",
      "type": "function"
    },
    {
      "constant": true,
      "inputs": [],
      "name": "name",
      "outputs": [
        {
          "internalType": "string",
          "name": "",
          "type": "string"
        }
      ],
      "payable": false,
      "stateMutability": "view",
      "type": "function"
    },
    {
      "constant": true,
      "inputs": [],
      "name": "owner",
      "outputs": [
        {
          "internalType": "address",
          "name": "",
          "type": "address"
        }
      ],
      "payable": false,
      "stateMutability": "view",
      "type": "function"
    },
    {
      "constant": true,
      "inputs": [],
      "name": "phoneNumber",
      "outputs": [
        {
          "internalType": "string",
          "name": "",
          "type": "string"
        }
      ],
      "payable": false,
      "stateMutability": "view",
      "type": "function"
    },
    {
      "constant": false,
      "inputs": [],
      "name": "renounceOwnership",
      "outputs": [],
      "payable": false,
      "stateMutability": "nonpayable",
      "type": "function"
    },
    {
      "constant": true,
      "inputs": [],
      "name": "system",
      "outputs": [
        {
          "internalType": "contract System",
          "name": "",
          "type": "address"
        }
      ],
      "payable": false,
      "stateMutability": "view",
      "type": "function"
    },
    {
      "constant": false,
      "inputs": [
        {
          "internalType": "address",
          "name": "newOwner",
          "type": "address"
        }
      ],
      "name": "transferOwnership",
      "outputs": [],
      "payable": false,
      "stateMutability": "nonpayable",
      "type": "function"
    },
    {
      "constant": true,
      "inputs": [],
      "name": "website",
      "outputs": [
        {
          "internalType": "string",
          "name": "",
          "type": "string"
        }
      ],
      "payable": false,
      "stateMutability": "view",
      "type": "function"
    },
    {
      "constant": true,
      "inputs": [],
      "name": "getSchool",
      "outputs": [],
      "payable": false,
      "stateMutability": "view",
      "type": "function"
    },
    {
      "constant": false,
      "inputs": [
        {
          "internalType": "address",
          "name": "sysAddr",
          "type": "address"
        }
      ],
      "name": "setSystem",
      "outputs": [],
      "payable": false,
      "stateMutability": "nonpayable",
      "type": "function"
    },
    {
      "constant": false,
      "inputs": [
        {
          "internalType": "address",
          "name": "stuAddr",
          "type": "address"
        },
        {
          "internalType": "bytes32",
          "name": "ipfs",
          "type": "bytes32"
        },
        {
          "internalType": "bytes32",
          "name": "certHash",
          "type": "bytes32"
        }
      ],
      "name": "addCertificate",
      "outputs": [],
      "payable": false,
      "stateMutability": "nonpayable",
      "type": "function"
    },
    {
      "constant": false,
      "inputs": [
        {
          "internalType": "address",
          "name": "stuAddr",
          "type": "address"
        },
        {
          "internalType": "bytes32",
          "name": "certHash",
          "type": "bytes32"
        }
      ],
      "name": "deactivateCertificate",
      "outputs": [],
      "payable": false,
      "stateMutability": "nonpayable",
      "type": "function"
    },
    {
      "constant": false,
      "inputs": [
        {
          "internalType": "address",
          "name": "stuAddr",
          "type": "address"
        },
        {
          "internalType": "bytes32",
          "name": "certHash",
          "type": "bytes32"
        }
      ],
      "name": "deleteCertificate",
      "outputs": [],
      "payable": false,
      "stateMutability": "nonpayable",
      "type": "function"
    }
  ],
  "bytecode": "0x60806040523480156200001157600080fd5b5060405162001a9238038062001a92833981810160405260e08110156200003757600080fd5b81019080805160405193929190846401000000008211156200005857600080fd5b838201915060208201858111156200006f57600080fd5b82518660018202830111640100000000821117156200008d57600080fd5b8083526020830192505050908051906020019080838360005b83811015620000c3578082015181840152602081019050620000a6565b50505050905090810190601f168015620000f15780820380516001836020036101000a031916815260200191505b50604052602001805160405193929190846401000000008211156200011557600080fd5b838201915060208201858111156200012c57600080fd5b82518660018202830111640100000000821117156200014a57600080fd5b8083526020830192505050908051906020019080838360005b838110156200018057808201518184015260208101905062000163565b50505050905090810190601f168015620001ae5780820380516001836020036101000a031916815260200191505b5060405260200180516040519392919084640100000000821115620001d257600080fd5b83820191506020820185811115620001e957600080fd5b82518660018202830111640100000000821117156200020757600080fd5b8083526020830192505050908051906020019080838360005b838110156200023d57808201518184015260208101905062000220565b50505050905090810190601f1680156200026b5780820380516001836020036101000a031916815260200191505b50604052602001805160405193929190846401000000008211156200028f57600080fd5b83820191506020820185811115620002a657600080fd5b8251866001820283011164010000000082111715620002c457600080fd5b8083526020830192505050908051906020019080838360005b83811015620002fa578082015181840152602081019050620002dd565b50505050905090810190601f168015620003285780820380516001836020036101000a031916815260200191505b50604052602001805160405193929190846401000000008211156200034c57600080fd5b838201915060208201858111156200036357600080fd5b82518660018202830111640100000000821117156200038157600080fd5b8083526020830192505050908051906020019080838360005b83811015620003b75780820151818401526020810190506200039a565b50505050905090810190601f168015620003e55780820380516001836020036101000a031916815260200191505b50604052602001805160405193929190846401000000008211156200040957600080fd5b838201915060208201858111156200042057600080fd5b82518660018202830111640100000000821117156200043e57600080fd5b8083526020830192505050908051906020019080838360005b838110156200047457808201518184015260208101905062000457565b50505050905090810190601f168015620004a25780820380516001836020036101000a031916815260200191505b5060405260200180519060200190929190505050336000806101000a81548173ffffffffffffffffffffffffffffffffffffffff021916908373ffffffffffffffffffffffffffffffffffffffff1602179055506000809054906101000a900473ffffffffffffffffffffffffffffffffffffffff1673ffffffffffffffffffffffffffffffffffffffff16600073ffffffffffffffffffffffffffffffffffffffff167f8be0079c531659141344cd1fd0a4f28419497f9722a3daafe3b4186f6b6457e060405160405180910390a333600760006101000a81548173ffffffffffffffffffffffffffffffffffffffff021916908373ffffffffffffffffffffffffffffffffffffffff1602179055508660019080519060200190620005cb929190620007e5565b508560029080519060200190620005e4929190620007e5565b508460039080519060200190620005fd929190620007e5565b50836004908051906020019062000616929190620007e5565b5082600590805190602001906200062f929190620007e5565b50816006908051906020019062000648929190620007e5565b506200065a816200066760201b60201c565b5050505050505062000894565b620006776200069560201b60201c565b6200068157600080fd5b6200069281620006ec60201b60201c565b50565b60008060009054906101000a900473ffffffffffffffffffffffffffffffffffffffff1673ffffffffffffffffffffffffffffffffffffffff163373ffffffffffffffffffffffffffffffffffffffff1614905090565b600073ffffffffffffffffffffffffffffffffffffffff168173ffffffffffffffffffffffffffffffffffffffff1614156200072757600080fd5b8073ffffffffffffffffffffffffffffffffffffffff166000809054906101000a900473ffffffffffffffffffffffffffffffffffffffff1673ffffffffffffffffffffffffffffffffffffffff167f8be0079c531659141344cd1fd0a4f28419497f9722a3daafe3b4186f6b6457e060405160405180910390a3806000806101000a81548173ffffffffffffffffffffffffffffffffffffffff021916908373ffffffffffffffffffffffffffffffffffffffff16021790555050565b828054600181600116156101000203166002900490600052602060002090601f016020900481019282601f106200082857805160ff191683800117855562000859565b8280016001018555821562000859579182015b82811115620008585782518255916020019190600101906200083b565b5b5090506200086891906200086c565b5090565b6200089191905b808211156200088d57600081600090555060010162000873565b5090565b90565b6111ee80620008a46000396000f3fe608060405234801561001057600080fd5b50600436106101005760003560e01c806396b275fc11610097578063d9cd665e11610066578063d9cd665e146104fa578063e5f72fe314610548578063ef690ad414610596578063f2fde38b1461061957610100565b806396b275fc14610392578063a9e3e7c114610415578063beb0a4161461041f578063c320ab6a146104a257610100565b8063820e93f5116100d3578063820e93f5146102595780638da5cb5b146102dc5780638f32d59b1461032657806395bf75fd1461034857610100565b806306fdde03146101055780635583775714610188578063715018a6146101cc578063747f3380146101d6575b600080fd5b61010d61065d565b6040518080602001828103825283818151815260200191508051906020019080838360005b8381101561014d578082015181840152602081019050610132565b50505050905090810190601f16801561017a5780820380516001836020036101000a031916815260200191505b509250505060405180910390f35b6101ca6004803603602081101561019e57600080fd5b81019080803573ffffffffffffffffffffffffffffffffffffffff1690602001909291905050506106fb565b005b6101d461073f565b005b6101de61080f565b6040518080602001828103825283818151815260200191508051906020019080838360005b8381101561021e578082015181840152602081019050610203565b50505050905090810190601f16801561024b5780820380516001836020036101000a031916815260200191505b509250505060405180910390f35b6102616108ad565b6040518080602001828103825283818151815260200191508051906020019080838360005b838110156102a1578082015181840152602081019050610286565b50505050905090810190601f1680156102ce5780820380516001836020036101000a031916815260200191505b509250505060405180910390f35b6102e461094b565b604051808273ffffffffffffffffffffffffffffffffffffffff1673ffffffffffffffffffffffffffffffffffffffff16815260200191505060405180910390f35b61032e610974565b604051808215151515815260200191505060405180910390f35b6103506109cb565b604051808273ffffffffffffffffffffffffffffffffffffffff1673ffffffffffffffffffffffffffffffffffffffff16815260200191505060405180910390f35b61039a6109f1565b6040518080602001828103825283818151815260200191508051906020019080838360005b838110156103da5780820151818401526020810190506103bf565b50505050905090810190601f1680156104075780820380516001836020036101000a031916815260200191505b509250505060405180910390f35b61041d610a8f565b005b610427610a91565b6040518080602001828103825283818151815260200191508051906020019080838360005b8381101561046757808201518184015260208101905061044c565b50505050905090810190601f1680156104945780820380516001836020036101000a031916815260200191505b509250505060405180910390f35b6104f8600480360360608110156104b857600080fd5b81019080803573ffffffffffffffffffffffffffffffffffffffff1690602001909291908035906020019092919080359060200190929190505050610b2f565b005b6105466004803603604081101561051057600080fd5b81019080803573ffffffffffffffffffffffffffffffffffffffff16906020019092919080359060200190929190505050610cd2565b005b6105946004803603604081101561055e57600080fd5b81019080803573ffffffffffffffffffffffffffffffffffffffff16906020019092919080359060200190929190505050610e6c565b005b61059e611006565b6040518080602001828103825283818151815260200191508051906020019080838360005b838110156105de5780820151818401526020810190506105c3565b50505050905090810190601f16801561060b5780820380516001836020036101000a031916815260200191505b509250505060405180910390f35b61065b6004803603602081101561062f57600080fd5b81019080803573ffffffffffffffffffffffffffffffffffffffff1690602001909291905050506110a4565b005b60018054600181600116156101000203166002900480601f0160208091040260200160405190810160405280929190818152602001828054600181600116156101000203166002900480156106f35780601f106106c8576101008083540402835291602001916106f3565b820191906000526020600020905b8154815290600101906020018083116106d657829003601f168201915b505050505081565b80600760006101000a81548173ffffffffffffffffffffffffffffffffffffffff021916908373ffffffffffffffffffffffffffffffffffffffff16021790555050565b610747610974565b61075057600080fd5b600073ffffffffffffffffffffffffffffffffffffffff166000809054906101000a900473ffffffffffffffffffffffffffffffffffffffff1673ffffffffffffffffffffffffffffffffffffffff167f8be0079c531659141344cd1fd0a4f28419497f9722a3daafe3b4186f6b6457e060405160405180910390a360008060006101000a81548173ffffffffffffffffffffffffffffffffffffffff021916908373ffffffffffffffffffffffffffffffffffffffff160217905550565b60038054600181600116156101000203166002900480601f0160208091040260200160405190810160405280929190818152602001828054600181600116156101000203166002900480156108a55780601f1061087a576101008083540402835291602001916108a5565b820191906000526020600020905b81548152906001019060200180831161088857829003601f168201915b505050505081565b60048054600181600116156101000203166002900480601f0160208091040260200160405190810160405280929190818152602001828054600181600116156101000203166002900480156109435780601f1061091857610100808354040283529160200191610943565b820191906000526020600020905b81548152906001019060200180831161092657829003601f168201915b505050505081565b60008060009054906101000a900473ffffffffffffffffffffffffffffffffffffffff16905090565b60008060009054906101000a900473ffffffffffffffffffffffffffffffffffffffff1673ffffffffffffffffffffffffffffffffffffffff163373ffffffffffffffffffffffffffffffffffffffff1614905090565b600760009054906101000a900473ffffffffffffffffffffffffffffffffffffffff1681565b60028054600181600116156101000203166002900480601f016020809104026020016040519081016040528092919081815260200182805460018160011615610100020316600290048015610a875780601f10610a5c57610100808354040283529160200191610a87565b820191906000526020600020905b815481529060010190602001808311610a6a57829003601f168201915b505050505081565b565b60068054600181600116156101000203166002900480601f016020809104026020016040519081016040528092919081815260200182805460018160011615610100020316600290048015610b275780601f10610afc57610100808354040283529160200191610b27565b820191906000526020600020905b815481529060010190602001808311610b0a57829003601f168201915b505050505081565b610b37610974565b610b4057600080fd5b6000600760009054906101000a900473ffffffffffffffffffffffffffffffffffffffff1673ffffffffffffffffffffffffffffffffffffffff1663f449a2e2856040518263ffffffff1660e01b8152600401808273ffffffffffffffffffffffffffffffffffffffff1673ffffffffffffffffffffffffffffffffffffffff16815260200191505060206040518083038186803b158015610be157600080fd5b505afa158015610bf5573d6000803e3d6000fd5b505050506040513d6020811015610c0b57600080fd5b81019080805190602001909291905050509050600073ffffffffffffffffffffffffffffffffffffffff168173ffffffffffffffffffffffffffffffffffffffff1614610ccc5760008190508073ffffffffffffffffffffffffffffffffffffffff16635819af9d85856040518363ffffffff1660e01b81526004018083815260200182815260200192505050600060405180830381600087803b158015610cb257600080fd5b505af1158015610cc6573d6000803e3d6000fd5b50505050505b50505050565b610cda610974565b610ce357600080fd5b6000600760009054906101000a900473ffffffffffffffffffffffffffffffffffffffff1673ffffffffffffffffffffffffffffffffffffffff1663f449a2e2846040518263ffffffff1660e01b8152600401808273ffffffffffffffffffffffffffffffffffffffff1673ffffffffffffffffffffffffffffffffffffffff16815260200191505060206040518083038186803b158015610d8457600080fd5b505afa158015610d98573d6000803e3d6000fd5b505050506040513d6020811015610dae57600080fd5b81019080805190602001909291905050509050600073ffffffffffffffffffffffffffffffffffffffff168173ffffffffffffffffffffffffffffffffffffffff1614610e675760008190508073ffffffffffffffffffffffffffffffffffffffff1663f26b67d8846040518263ffffffff1660e01b815260040180828152602001915050600060405180830381600087803b158015610e4d57600080fd5b505af1158015610e61573d6000803e3d6000fd5b50505050505b505050565b610e74610974565b610e7d57600080fd5b6000600760009054906101000a900473ffffffffffffffffffffffffffffffffffffffff1673ffffffffffffffffffffffffffffffffffffffff1663f449a2e2846040518263ffffffff1660e01b8152600401808273ffffffffffffffffffffffffffffffffffffffff1673ffffffffffffffffffffffffffffffffffffffff16815260200191505060206040518083038186803b158015610f1e57600080fd5b505afa158015610f32573d6000803e3d6000fd5b505050506040513d6020811015610f4857600080fd5b81019080805190602001909291905050509050600073ffffffffffffffffffffffffffffffffffffffff168173ffffffffffffffffffffffffffffffffffffffff16146110015760008190508073ffffffffffffffffffffffffffffffffffffffff16638d44283e846040518263ffffffff1660e01b815260040180828152602001915050600060405180830381600087803b158015610fe757600080fd5b505af1158015610ffb573d6000803e3d6000fd5b50505050505b505050565b60058054600181600116156101000203166002900480601f01602080910402602001604051908101604052809291908181526020018280546001816001161561010002031660029004801561109c5780601f106110715761010080835404028352916020019161109c565b820191906000526020600020905b81548152906001019060200180831161107f57829003601f168201915b505050505081565b6110ac610974565b6110b557600080fd5b6110be816110c1565b50565b600073ffffffffffffffffffffffffffffffffffffffff168173ffffffffffffffffffffffffffffffffffffffff1614156110fb57600080fd5b8073ffffffffffffffffffffffffffffffffffffffff166000809054906101000a900473ffffffffffffffffffffffffffffffffffffffff1673ffffffffffffffffffffffffffffffffffffffff167f8be0079c531659141344cd1fd0a4f28419497f9722a3daafe3b4186f6b6457e060405160405180910390a3806000806101000a81548173ffffffffffffffffffffffffffffffffffffffff021916908373ffffffffffffffffffffffffffffffffffffffff1602179055505056fea265627a7a72315820298d21719bfaca38400e2fb6620a6dc64ce48eea01c129884ba95d6aebb517a564736f6c63430005100032",
  "source": "pragma solidity >=0.4.22 <0.9.0;  \r\n\r\ncontract Ownable {\r\n  address private _owner;\r\n\r\n  event OwnershipTransferred(\r\n    address indexed previousOwner,\r\n    address indexed newOwner\r\n  );\r\n\r\n  /**\r\n  * @dev The Ownable constructor sets the original `owner` of the contract to the sender\r\n  * account.\r\n  */\r\n  constructor() public {\r\n    _owner = msg.sender;\r\n    emit OwnershipTransferred(address(0), _owner);\r\n  }\r\n\r\n  /**\r\n  * @return the address of the owner.\r\n  */\r\n  function owner() public view returns(address) {\r\n    return _owner;\r\n  }\r\n\r\n  /**\r\n  * @dev Throws if called by any account other than the owner.\r\n  */\r\n  modifier onlyOwner() {\r\n    require(isOwner());\r\n    _;\r\n  }\r\n\r\n  /**\r\n  * @return true if `msg.sender` is the owner of the contract.\r\n  */\r\n  function isOwner() public view returns(bool) {\r\n    return msg.sender == _owner;\r\n  }\r\n\r\n  /**\r\n  * @dev Allows the current owner to relinquish control of the contract.\r\n  * @notice Renouncing to ownership will leave the contract without an owner.\r\n  * It will not be possible to call the functions with the `onlyOwner`\r\n  * modifier anymore.\r\n  */\r\n  function renounceOwnership() public onlyOwner {\r\n    emit OwnershipTransferred(_owner, address(0));\r\n    _owner = address(0);\r\n  }\r\n\r\n  /**\r\n  * @dev Allows the current owner to transfer control of the contract to a newOwner.\r\n  * @param newOwner The address to transfer ownership to.\r\n  */\r\n  function transferOwnership(address newOwner) public onlyOwner {\r\n    _transferOwnership(newOwner);\r\n  }\r\n\r\n  /**\r\n  * @dev Transfers control of the contract to a newOwner.\r\n  * @param newOwner The address to transfer ownership to.\r\n  */\r\n  function _transferOwnership(address newOwner) internal {\r\n    require(newOwner != address(0));\r\n    emit OwnershipTransferred(_owner, newOwner);\r\n    _owner = newOwner;\r\n  }\r\n}\r\n\r\ncontract System is Ownable{\r\n  address[] public schoolAddresses;\r\n  address[] public studentAddresses;\r\n  mapping (address => address) public mapSchool;\r\n  mapping (address => address) public mapStudent;\r\n  \r\n  event addedSchool(address newSchool, address newContract);\r\n  event addedStudent(address newStudent, address newContract);\r\n  event changedSchoolContract(address _schoolAddr,address _contractAddr);\r\n  event changedStudentContract(address _studentAddr,address _contractAddr);\r\n  \r\n  constructor() public{\r\n    transferOwnership(address(0x3E5C773519D38EB7996A5cADFDb8C8256889cB79));\r\n  } \r\n  modifier onlySchool() {\r\n    require(isSchool());\r\n    _;\r\n  }\r\n  function isSchool() public view returns(bool) {\r\n    for (uint i=0; i<= schoolAddresses.length; i++){\r\n      if (msg.sender == schoolAddresses[i]) return true;\r\n    }\r\n    return false;\r\n  }\r\n  function _isSchool(address schoolAddr) internal view returns(bool) {\r\n    for (uint i=0; i<= schoolAddresses.length; i++){\r\n      if (schoolAddr == schoolAddresses[i]) return true;\r\n    }\r\n    return false;\r\n  }\r\n  function _isStudent(address studentAddr) internal view returns(bool) {\r\n    for (uint i=0; i<= studentAddresses.length; i++){\r\n      if (studentAddr == studentAddresses[i]) return true;\r\n    }\r\n    return false;\r\n  }\r\n\r\n  function addSchool ( string memory name, string memory addressPlace, string memory phoneNumber, string memory email, string memory fax, string memory website, address schoolAddr)public onlyOwner(){\r\n    if (!_isSchool(schoolAddr)){\r\n      schoolAddresses.push(schoolAddr);\r\n      School schoolContract = new School(name, addressPlace, phoneNumber, email, fax, website, schoolAddr);\r\n      mapSchool[schoolAddr] = address(schoolContract);\r\n      emit addedSchool(schoolAddr, address(schoolContract));\r\n    }\r\n  }\r\n  function changeSchoolContract(address _schoolAddr, address _contractAddr) public onlyOwner(){\r\n    for(uint i = 0 ; i< schoolAddresses.length; i++){\r\n      if (schoolAddresses[i] == _schoolAddr){\r\n        mapSchool[_schoolAddr] = _contractAddr;\r\n        emit changedSchoolContract(_schoolAddr, _contractAddr);\r\n        return;\r\n      }\r\n    }\r\n  }\r\n  function getSchoolContractAddr(address _schoolAddr) public view returns(address){\r\n    if(mapSchool[_schoolAddr] == address(0)){\r\n      return address(0);\r\n    }\r\n    return mapSchool[_schoolAddr];\r\n  }\r\n  // STUDENT CONTRACT -----------------------------------\r\n  function addStudent(address _studentAddr) public onlyOwner(){\r\n    for(uint i = 0 ; i< studentAddresses.length; i++){\r\n      if (studentAddresses[i] == _studentAddr){\r\n        return;\r\n      }\r\n    }\r\n    studentAddresses.push(_studentAddr);\r\n    Student stuContract = new Student(_studentAddr);\r\n    mapStudent[_studentAddr] = address(stuContract);\r\n    emit addedStudent(_studentAddr, address(stuContract));\r\n  }\r\n  function changeStudentContract(address _studentAddr, address _contractAddr) public onlyOwner(){\r\n    for (uint i = 0 ; i< studentAddresses.length; i++){\r\n      if (studentAddresses[i] == _studentAddr) {\r\n        mapStudent[_studentAddr] = _contractAddr;\r\n        emit changedStudentContract(_studentAddr, _contractAddr);\r\n        break;\r\n      }\r\n    }\r\n  }\r\n  function getStudentContractAddr(address stuAddr) public view returns(address) {\r\n    return (mapStudent[stuAddr] != address(0))? mapStudent[stuAddr] : address(0);\r\n  }\r\n} \r\n\r\ncontract School is Ownable{\r\n  string public name;\r\n  string public addressPlace;\r\n  string public phoneNumber;\r\n  string public email;\r\n  string public fax; \r\n  string public website;\r\n  \r\n  System public system;\r\n\r\n  constructor(\r\n    string memory _name,\r\n    string memory _addressPlace,\r\n    string memory _phoneNumber,\r\n    string memory _email,\r\n    string memory _fax,\r\n    string memory _website,\r\n    address schAddr\r\n  ) public {\r\n    system = System(msg.sender);\r\n    name = _name;\r\n    addressPlace = _addressPlace;\r\n    phoneNumber = _phoneNumber;\r\n    email = _email;\r\n    fax = _fax;\r\n    website = _website;\r\n    transferOwnership(schAddr);\r\n  }\r\n  function getSchool() public view{\r\n    name;\r\n    addressPlace;\r\n    phoneNumber;\r\n    email;\r\n    fax; \r\n    website;\r\n  }\r\n  function setSystem(address sysAddr) public {\r\n      system = System(sysAddr);\r\n  }\r\n  function addCertificate (address stuAddr, bytes32 ipfs, bytes32 certHash ) public onlyOwner(){\r\n    address stuContractAddress = system.getStudentContractAddr(stuAddr);\r\n    if(stuContractAddress != address(0)) {\r\n      Student stuContract = Student(stuContractAddress);\r\n      stuContract._addCertificate(ipfs, certHash);\r\n    }\r\n  }\r\n  function deactivateCertificate(address stuAddr, bytes32 certHash) public onlyOwner(){\r\n    address stuContractAddress = system.getStudentContractAddr(stuAddr);\r\n    if(stuContractAddress != address(0)) {\r\n      Student stuContract = Student(stuContractAddress);\r\n      stuContract._deactivateCertificate(certHash);\r\n    }\r\n  }\r\n  function deleteCertificate(address stuAddr, bytes32 certHash) public onlyOwner(){\r\n    address stuContractAddress = system.getStudentContractAddr(stuAddr);\r\n    if(stuContractAddress != address(0)) {\r\n      Student stuContract = Student(stuContractAddress);\r\n      stuContract._deleteCertificate(certHash);\r\n    }\r\n  }\r\n}\r\n\r\ncontract Student is Ownable{\r\n  struct Certificate {\r\n    uint8 state;\r\n    address schoolAddress;\r\n    bytes32 ipfs;\r\n    bytes32 certHash;\r\n  }\r\n  struct Degree {\r\n    uint8 state;\r\n    address schoolAddress;\r\n    bytes32 ipfs;\r\n    bytes32 degreeHash;\r\n  }\r\n  \r\n  bytes32[] public certificateList; // mang hashed_cert\r\n  mapping (bytes32 => Certificate) mapCertificates; // hashed_cert => Certificate\r\n  bytes32[] public degreeList; // mang hashed_cert\r\n  mapping (bytes32 => Degree) mapDegrees; // hashed_cert => Certificate\r\n  System public system;\r\n\r\n  event addCertificate(address _address, bytes32 _certHash);\r\n  event deactivateCertificate(address _address, bytes32 _certHash);\r\n  event deleteCertificate(address _address, bytes32 _certHash);\r\n\r\n  event addDegree(address _address, bytes32 _certHash);\r\n  event deactivateDegree(address _address, bytes32 _certHash);\r\n  event deleteDegree(address _address, bytes32 _certHash);\r\n\r\n  constructor(address stuAddr) public {\r\n    system = System(msg.sender);\r\n    transferOwnership(stuAddr);\r\n  }\r\n  \r\n  modifier onlySchool() {\r\n    require(system.isSchool());\r\n    _;\r\n  }\r\n\r\n  function _addCertificate(bytes32 _ipfs,bytes32 _hashedCert) external onlySchool(){\r\n    certificateList.push(_hashedCert);\r\n    mapCertificates[_hashedCert] = Certificate(uint8(1), msg.sender, _ipfs, _hashedCert);\r\n    emit addCertificate(msg.sender, _hashedCert);\r\n  }\r\n  function _deactivateCertificate(bytes32 _certHash) external onlySchool(){\r\n    mapCertificates[_certHash].state = uint8(0);\r\n    emit deactivateCertificate(msg.sender, _certHash);\r\n  }\r\n  function _deleteCertificate(bytes32 _certHash) external onlySchool(){\r\n    mapCertificates[_certHash].state = uint8(2);\r\n    emit deleteCertificate(msg.sender, _certHash);\r\n  }\r\n  function viewCertificate(bytes32 _certHash) public view returns(uint8, address, bytes32, bytes32){\r\n    Certificate storage cert = mapCertificates[_certHash];\r\n    return (cert.state, cert.schoolAddress, cert.certHash, cert.ipfs);\r\n  }\r\n\r\n  function _addDegree(bytes32 _ipfs,bytes32 _degreeHash) external onlySchool(){\r\n    degreeList.push(_degreeHash);\r\n    mapDegrees[_degreeHash] = Degree(uint8(1), msg.sender, _ipfs, _degreeHash);\r\n    emit addDegree(msg.sender, _degreeHash);\r\n  }\r\n  function _deactivateDegree(bytes32 _degreeHash) external onlySchool(){\r\n    mapDegrees[_degreeHash].state = uint8(0);\r\n    emit deactivateDegree(msg.sender, _degreeHash);\r\n  }\r\n  function _deleteDegree(bytes32 _degreeHash) external onlySchool(){\r\n    mapDegrees[_degreeHash].state = uint8(2);\r\n    emit deleteDegree(msg.sender, _degreeHash);\r\n  }\r\n  function viewDegree(bytes32 _degreeHash) public view returns(uint8, address, bytes32, bytes32){\r\n    Degree storage degree = mapDegrees[_degreeHash];\r\n    return (degree.state, degree.schoolAddress, degree.degreeHash, degree.ipfs);\r\n  }\r\n  \r\n}\r\n",
  "sourcePath": "D:\\labs\\project_QLVBCC\\src\\contracts\\myContract.sol",
  "compiler": {
    "name": "solc",
    "version": "0.5.16+commit.9c3226ce.Emscripten.clang"
  },
  "schemaVersion": "3.4.3",
  "updatedAt": "2021-11-03T09:02:13.673Z",
  "devdoc": {
    "methods": {
      "isOwner()": {
        "return": "true if `msg.sender` is the owner of the contract."
      },
      "owner()": {
        "return": "the address of the owner."
      },
      "renounceOwnership()": {
        "details": "Allows the current owner to relinquish control of the contract."
      },
      "transferOwnership(address)": {
        "details": "Allows the current owner to transfer control of the contract to a newOwner.",
        "params": {
          "newOwner": "The address to transfer ownership to."
        }
      }
    }
  },
  "userdoc": {
    "methods": {
      "renounceOwnership()": {
        "notice": "Renouncing to ownership will leave the contract without an owner. It will not be possible to call the functions with the `onlyOwner` modifier anymore."
      }
    }
  }
}