{
  "contractName": "School",
  "abi": [
    {
      "inputs": [
        {
          "internalType": "string",
          "name": "_name",
          "type": "string"
        },
        {
          "internalType": "string",
          "name": "_addressPlace",
          "type": "string"
        },
        {
          "internalType": "string",
          "name": "_phoneNumber",
          "type": "string"
        },
        {
          "internalType": "string",
          "name": "_idnumber",
          "type": "string"
        },
        {
          "internalType": "string",
          "name": "_fax",
          "type": "string"
        },
        {
          "internalType": "string",
          "name": "_website",
          "type": "string"
        },
        {
          "internalType": "address",
          "name": "schAddr",
          "type": "address"
        }
      ],
      "payable": false,
      "stateMutability": "nonpayable",
      "type": "constructor"
    },
    {
      "anonymous": false,
      "inputs": [
        {
          "indexed": true,
          "internalType": "address",
          "name": "previousOwner",
          "type": "address"
        },
        {
          "indexed": true,
          "internalType": "address",
          "name": "newOwner",
          "type": "address"
        }
      ],
      "name": "OwnershipTransferred",
      "type": "event"
    },
    {
      "anonymous": false,
      "inputs": [
        {
          "indexed": false,
          "internalType": "address",
          "name": "_address",
          "type": "address"
        },
        {
          "indexed": false,
          "internalType": "bytes32",
          "name": "_certHash",
          "type": "bytes32"
        }
      ],
      "name": "addedCertificate",
      "type": "event"
    },
    {
      "anonymous": false,
      "inputs": [
        {
          "indexed": false,
          "internalType": "address",
          "name": "_address",
          "type": "address"
        },
        {
          "indexed": false,
          "internalType": "bytes32",
          "name": "_certHash",
          "type": "bytes32"
        }
      ],
      "name": "deactivatedCertificate",
      "type": "event"
    },
    {
      "anonymous": false,
      "inputs": [
        {
          "indexed": false,
          "internalType": "address",
          "name": "_address",
          "type": "address"
        },
        {
          "indexed": false,
          "internalType": "bytes32",
          "name": "_certHash",
          "type": "bytes32"
        }
      ],
      "name": "deletedCertificate",
      "type": "event"
    },
    {
      "constant": true,
      "inputs": [],
      "name": "addressPlace",
      "outputs": [
        {
          "internalType": "string",
          "name": "",
          "type": "string"
        }
      ],
      "payable": false,
      "stateMutability": "view",
      "type": "function"
    },
    {
      "constant": true,
      "inputs": [],
      "name": "fax",
      "outputs": [
        {
          "internalType": "string",
          "name": "",
          "type": "string"
        }
      ],
      "payable": false,
      "stateMutability": "view",
      "type": "function"
    },
    {
      "constant": true,
      "inputs": [],
      "name": "idnumber",
      "outputs": [
        {
          "internalType": "string",
          "name": "",
          "type": "string"
        }
      ],
      "payable": false,
      "stateMutability": "view",
      "type": "function"
    },
    {
      "constant": true,
      "inputs": [],
      "name": "isOwner",
      "outputs": [
        {
          "internalType": "bool",
          "name": "",
          "type": "bool"
        }
      ],
      "payable": false,
      "stateMutability": "view",
      "type": "function"
    },
    {
      "constant": true,
      "inputs": [],
      "name": "name",
      "outputs": [
        {
          "internalType": "string",
          "name": "",
          "type": "string"
        }
      ],
      "payable": false,
      "stateMutability": "view",
      "type": "function"
    },
    {
      "constant": true,
      "inputs": [],
      "name": "owner",
      "outputs": [
        {
          "internalType": "address",
          "name": "",
          "type": "address"
        }
      ],
      "payable": false,
      "stateMutability": "view",
      "type": "function"
    },
    {
      "constant": true,
      "inputs": [],
      "name": "phoneNumber",
      "outputs": [
        {
          "internalType": "string",
          "name": "",
          "type": "string"
        }
      ],
      "payable": false,
      "stateMutability": "view",
      "type": "function"
    },
    {
      "constant": false,
      "inputs": [],
      "name": "renounceOwnership",
      "outputs": [],
      "payable": false,
      "stateMutability": "nonpayable",
      "type": "function"
    },
    {
      "constant": false,
      "inputs": [
        {
          "internalType": "address",
          "name": "newOwner",
          "type": "address"
        }
      ],
      "name": "transferOwnership",
      "outputs": [],
      "payable": false,
      "stateMutability": "nonpayable",
      "type": "function"
    },
    {
      "constant": true,
      "inputs": [],
      "name": "website",
      "outputs": [
        {
          "internalType": "string",
          "name": "",
          "type": "string"
        }
      ],
      "payable": false,
      "stateMutability": "view",
      "type": "function"
    },
    {
      "constant": true,
      "inputs": [],
      "name": "getSchool",
      "outputs": [],
      "payable": false,
      "stateMutability": "view",
      "type": "function"
    },
    {
      "constant": false,
      "inputs": [
        {
          "internalType": "bytes32",
          "name": "_hashedCert",
          "type": "bytes32"
        },
        {
          "internalType": "address",
          "name": "userCAddr",
          "type": "address"
        }
      ],
      "name": "addCertificate",
      "outputs": [],
      "payable": false,
      "stateMutability": "nonpayable",
      "type": "function"
    },
    {
      "constant": false,
      "inputs": [
        {
          "internalType": "bytes32",
          "name": "_certHash",
          "type": "bytes32"
        },
        {
          "internalType": "address",
          "name": "userCAddr",
          "type": "address"
        }
      ],
      "name": "deactivateCertificate",
      "outputs": [],
      "payable": false,
      "stateMutability": "nonpayable",
      "type": "function"
    },
    {
      "constant": false,
      "inputs": [
        {
          "internalType": "bytes32",
          "name": "_certHash",
          "type": "bytes32"
        },
        {
          "internalType": "address",
          "name": "userCAddr",
          "type": "address"
        }
      ],
      "name": "deleteCertificate",
      "outputs": [],
      "payable": false,
      "stateMutability": "nonpayable",
      "type": "function"
    }
  ],
  "bytecode": "0x60806040523480156200001157600080fd5b50604051620017d4380380620017d4833981810160405260e08110156200003757600080fd5b81019080805160405193929190846401000000008211156200005857600080fd5b838201915060208201858111156200006f57600080fd5b82518660018202830111640100000000821117156200008d57600080fd5b8083526020830192505050908051906020019080838360005b83811015620000c3578082015181840152602081019050620000a6565b50505050905090810190601f168015620000f15780820380516001836020036101000a031916815260200191505b50604052602001805160405193929190846401000000008211156200011557600080fd5b838201915060208201858111156200012c57600080fd5b82518660018202830111640100000000821117156200014a57600080fd5b8083526020830192505050908051906020019080838360005b838110156200018057808201518184015260208101905062000163565b50505050905090810190601f168015620001ae5780820380516001836020036101000a031916815260200191505b5060405260200180516040519392919084640100000000821115620001d257600080fd5b83820191506020820185811115620001e957600080fd5b82518660018202830111640100000000821117156200020757600080fd5b8083526020830192505050908051906020019080838360005b838110156200023d57808201518184015260208101905062000220565b50505050905090810190601f1680156200026b5780820380516001836020036101000a031916815260200191505b50604052602001805160405193929190846401000000008211156200028f57600080fd5b83820191506020820185811115620002a657600080fd5b8251866001820283011164010000000082111715620002c457600080fd5b8083526020830192505050908051906020019080838360005b83811015620002fa578082015181840152602081019050620002dd565b50505050905090810190601f168015620003285780820380516001836020036101000a031916815260200191505b50604052602001805160405193929190846401000000008211156200034c57600080fd5b838201915060208201858111156200036357600080fd5b82518660018202830111640100000000821117156200038157600080fd5b8083526020830192505050908051906020019080838360005b83811015620003b75780820151818401526020810190506200039a565b50505050905090810190601f168015620003e55780820380516001836020036101000a031916815260200191505b50604052602001805160405193929190846401000000008211156200040957600080fd5b838201915060208201858111156200042057600080fd5b82518660018202830111640100000000821117156200043e57600080fd5b8083526020830192505050908051906020019080838360005b838110156200047457808201518184015260208101905062000457565b50505050905090810190601f168015620004a25780820380516001836020036101000a031916815260200191505b5060405260200180519060200190929190505050336000806101000a81548173ffffffffffffffffffffffffffffffffffffffff021916908373ffffffffffffffffffffffffffffffffffffffff1602179055506000809054906101000a900473ffffffffffffffffffffffffffffffffffffffff1673ffffffffffffffffffffffffffffffffffffffff16600073ffffffffffffffffffffffffffffffffffffffff167f8be0079c531659141344cd1fd0a4f28419497f9722a3daafe3b4186f6b6457e060405160405180910390a386600190805190602001906200058a929190620007a4565b508560029080519060200190620005a3929190620007a4565b508460039080519060200190620005bc929190620007a4565b508360049080519060200190620005d5929190620007a4565b508260059080519060200190620005ee929190620007a4565b50816006908051906020019062000607929190620007a4565b5062000619816200062660201b60201c565b5050505050505062000853565b620006366200065460201b60201c565b6200064057600080fd5b6200065181620006ab60201b60201c565b50565b60008060009054906101000a900473ffffffffffffffffffffffffffffffffffffffff1673ffffffffffffffffffffffffffffffffffffffff163373ffffffffffffffffffffffffffffffffffffffff1614905090565b600073ffffffffffffffffffffffffffffffffffffffff168173ffffffffffffffffffffffffffffffffffffffff161415620006e657600080fd5b8073ffffffffffffffffffffffffffffffffffffffff166000809054906101000a900473ffffffffffffffffffffffffffffffffffffffff1673ffffffffffffffffffffffffffffffffffffffff167f8be0079c531659141344cd1fd0a4f28419497f9722a3daafe3b4186f6b6457e060405160405180910390a3806000806101000a81548173ffffffffffffffffffffffffffffffffffffffff021916908373ffffffffffffffffffffffffffffffffffffffff16021790555050565b828054600181600116156101000203166002900490600052602060002090601f016020900481019282601f10620007e757805160ff191683800117855562000818565b8280016001018555821562000818579182015b8281111562000817578251825591602001919060010190620007fa565b5b5090506200082791906200082b565b5090565b6200085091905b808211156200084c57600081600090555060010162000832565b5090565b90565b610f7180620008636000396000f3fe608060405234801561001057600080fd5b50600436106100ea5760003560e01c806396b275fc1161008c578063beb0a41611610066578063beb0a41614610417578063ecf85bb91461049a578063ef690ad4146104e8578063f2fde38b1461056b576100ea565b806396b275fc14610307578063a9e3e7c11461038a578063be7ebe5f14610394576100ea565b8063715018a6116100c8578063715018a61461020e578063747f3380146102185780638da5cb5b1461029b5780638f32d59b146102e5576100ea565b806306fdde03146100ef5780631ab807f81461017257806357f8005d146101c0575b600080fd5b6100f76105af565b6040518080602001828103825283818151815260200191508051906020019080838360005b8381101561013757808201518184015260208101905061011c565b50505050905090810190601f1680156101645780820380516001836020036101000a031916815260200191505b509250505060405180910390f35b6101be6004803603604081101561018857600080fd5b8101908080359060200190929190803573ffffffffffffffffffffffffffffffffffffffff16906020019092919050505061064d565b005b61020c600480360360408110156101d657600080fd5b8101908080359060200190929190803573ffffffffffffffffffffffffffffffffffffffff169060200190929190505050610773565b005b610216610899565b005b610220610969565b6040518080602001828103825283818151815260200191508051906020019080838360005b83811015610260578082015181840152602081019050610245565b50505050905090810190601f16801561028d5780820380516001836020036101000a031916815260200191505b509250505060405180910390f35b6102a3610a07565b604051808273ffffffffffffffffffffffffffffffffffffffff1673ffffffffffffffffffffffffffffffffffffffff16815260200191505060405180910390f35b6102ed610a30565b604051808215151515815260200191505060405180910390f35b61030f610a87565b6040518080602001828103825283818151815260200191508051906020019080838360005b8381101561034f578082015181840152602081019050610334565b50505050905090810190601f16801561037c5780820380516001836020036101000a031916815260200191505b509250505060405180910390f35b610392610b25565b005b61039c610b27565b6040518080602001828103825283818151815260200191508051906020019080838360005b838110156103dc5780820151818401526020810190506103c1565b50505050905090810190601f1680156104095780820380516001836020036101000a031916815260200191505b509250505060405180910390f35b61041f610bc5565b6040518080602001828103825283818151815260200191508051906020019080838360005b8381101561045f578082015181840152602081019050610444565b50505050905090810190601f16801561048c5780820380516001836020036101000a031916815260200191505b509250505060405180910390f35b6104e6600480360360408110156104b057600080fd5b8101908080359060200190929190803573ffffffffffffffffffffffffffffffffffffffff169060200190929190505050610c63565b005b6104f0610d89565b6040518080602001828103825283818151815260200191508051906020019080838360005b83811015610530578082015181840152602081019050610515565b50505050905090810190601f16801561055d5780820380516001836020036101000a031916815260200191505b509250505060405180910390f35b6105ad6004803603602081101561058157600080fd5b81019080803573ffffffffffffffffffffffffffffffffffffffff169060200190929190505050610e27565b005b60018054600181600116156101000203166002900480601f0160208091040260200160405190810160405280929190818152602001828054600181600116156101000203166002900480156106455780601f1061061a57610100808354040283529160200191610645565b820191906000526020600020905b81548152906001019060200180831161062857829003601f168201915b505050505081565b610655610a30565b61065e57600080fd5b6000819050600073ffffffffffffffffffffffffffffffffffffffff168173ffffffffffffffffffffffffffffffffffffffff161461076e578073ffffffffffffffffffffffffffffffffffffffff1663750f9f87846040518263ffffffff1660e01b815260040180828152602001915050600060405180830381600087803b1580156106ea57600080fd5b505af11580156106fe573d6000803e3d6000fd5b505050507fba2f7e26c1b0832695054c392bd0d58fa7f4c0b4e69feaa733c9a28dffe5e9963384604051808373ffffffffffffffffffffffffffffffffffffffff1673ffffffffffffffffffffffffffffffffffffffff1681526020018281526020019250505060405180910390a15b505050565b61077b610a30565b61078457600080fd5b6000819050600073ffffffffffffffffffffffffffffffffffffffff168173ffffffffffffffffffffffffffffffffffffffff1614610894578073ffffffffffffffffffffffffffffffffffffffff166378097d18846040518263ffffffff1660e01b815260040180828152602001915050600060405180830381600087803b15801561081057600080fd5b505af1158015610824573d6000803e3d6000fd5b505050507fbdb2a1b69e969bce1bb3c51f0ebd56f5bde7ffe485392885385726ea27d178783384604051808373ffffffffffffffffffffffffffffffffffffffff1673ffffffffffffffffffffffffffffffffffffffff1681526020018281526020019250505060405180910390a15b505050565b6108a1610a30565b6108aa57600080fd5b600073ffffffffffffffffffffffffffffffffffffffff166000809054906101000a900473ffffffffffffffffffffffffffffffffffffffff1673ffffffffffffffffffffffffffffffffffffffff167f8be0079c531659141344cd1fd0a4f28419497f9722a3daafe3b4186f6b6457e060405160405180910390a360008060006101000a81548173ffffffffffffffffffffffffffffffffffffffff021916908373ffffffffffffffffffffffffffffffffffffffff160217905550565b60038054600181600116156101000203166002900480601f0160208091040260200160405190810160405280929190818152602001828054600181600116156101000203166002900480156109ff5780601f106109d4576101008083540402835291602001916109ff565b820191906000526020600020905b8154815290600101906020018083116109e257829003601f168201915b505050505081565b60008060009054906101000a900473ffffffffffffffffffffffffffffffffffffffff16905090565b60008060009054906101000a900473ffffffffffffffffffffffffffffffffffffffff1673ffffffffffffffffffffffffffffffffffffffff163373ffffffffffffffffffffffffffffffffffffffff1614905090565b60028054600181600116156101000203166002900480601f016020809104026020016040519081016040528092919081815260200182805460018160011615610100020316600290048015610b1d5780601f10610af257610100808354040283529160200191610b1d565b820191906000526020600020905b815481529060010190602001808311610b0057829003601f168201915b505050505081565b565b60048054600181600116156101000203166002900480601f016020809104026020016040519081016040528092919081815260200182805460018160011615610100020316600290048015610bbd5780601f10610b9257610100808354040283529160200191610bbd565b820191906000526020600020905b815481529060010190602001808311610ba057829003601f168201915b505050505081565b60068054600181600116156101000203166002900480601f016020809104026020016040519081016040528092919081815260200182805460018160011615610100020316600290048015610c5b5780601f10610c3057610100808354040283529160200191610c5b565b820191906000526020600020905b815481529060010190602001808311610c3e57829003601f168201915b505050505081565b610c6b610a30565b610c7457600080fd5b6000819050600073ffffffffffffffffffffffffffffffffffffffff168173ffffffffffffffffffffffffffffffffffffffff1614610d84578073ffffffffffffffffffffffffffffffffffffffff16634b5a7c23846040518263ffffffff1660e01b815260040180828152602001915050600060405180830381600087803b158015610d0057600080fd5b505af1158015610d14573d6000803e3d6000fd5b505050507f388963cd45808b7a13172f13239164b621cb586f2505cab4e4ad8e2b4d6512643384604051808373ffffffffffffffffffffffffffffffffffffffff1673ffffffffffffffffffffffffffffffffffffffff1681526020018281526020019250505060405180910390a15b505050565b60058054600181600116156101000203166002900480601f016020809104026020016040519081016040528092919081815260200182805460018160011615610100020316600290048015610e1f5780601f10610df457610100808354040283529160200191610e1f565b820191906000526020600020905b815481529060010190602001808311610e0257829003601f168201915b505050505081565b610e2f610a30565b610e3857600080fd5b610e4181610e44565b50565b600073ffffffffffffffffffffffffffffffffffffffff168173ffffffffffffffffffffffffffffffffffffffff161415610e7e57600080fd5b8073ffffffffffffffffffffffffffffffffffffffff166000809054906101000a900473ffffffffffffffffffffffffffffffffffffffff1673ffffffffffffffffffffffffffffffffffffffff167f8be0079c531659141344cd1fd0a4f28419497f9722a3daafe3b4186f6b6457e060405160405180910390a3806000806101000a81548173ffffffffffffffffffffffffffffffffffffffff021916908373ffffffffffffffffffffffffffffffffffffffff1602179055505056fea265627a7a72315820f2d8bbb527a694a3c7331296d0672fb9ce5d9584d79ba76f52a898f222035c1764736f6c63430005100032",
  "source": "pragma solidity >=0.4.22 <0.9.0;  \r\n\r\ncontract Ownable {\r\n  address private _owner;\r\n\r\n  event OwnershipTransferred(\r\n    address indexed previousOwner,\r\n    address indexed newOwner\r\n  );\r\n\r\n  /**\r\n  * @dev The Ownable constructor sets the original `owner` of the contract to the sender\r\n  * account.\r\n  */\r\n  constructor() public {\r\n    _owner = msg.sender;\r\n    emit OwnershipTransferred(address(0), _owner);\r\n  }\r\n\r\n  /**\r\n  * @return the address of the owner.\r\n  */\r\n  function owner() public view returns(address) {\r\n    return _owner;\r\n  }\r\n\r\n  /**\r\n  * @dev Throws if called by any account other than the owner.\r\n  */\r\n  modifier onlyOwner() {\r\n    require(isOwner());\r\n    _;\r\n  }\r\n\r\n  /**\r\n  * @return true if `msg.sender` is the owner of the contract.\r\n  */\r\n  function isOwner() public view returns(bool) {\r\n    return msg.sender == _owner;\r\n  }\r\n\r\n  /**\r\n  * @dev Allows the current owner to relinquish control of the contract.\r\n  * @notice Renouncing to ownership will leave the contract without an owner.\r\n  * It will not be possible to call the functions with the `onlyOwner`\r\n  * modifier anymore.\r\n  */\r\n  function renounceOwnership() public onlyOwner {\r\n    emit OwnershipTransferred(_owner, address(0));\r\n    _owner = address(0);\r\n  }\r\n\r\n  /**\r\n  * @dev Allows the current owner to transfer control of the contract to a newOwner.\r\n  * @param newOwner The address to transfer ownership to.\r\n  */\r\n  function transferOwnership(address newOwner) public onlyOwner {\r\n    _transferOwnership(newOwner);\r\n  }\r\n\r\n  /**\r\n  * @dev Transfers control of the contract to a newOwner.\r\n  * @param newOwner The address to transfer ownership to.\r\n  */\r\n  function _transferOwnership(address newOwner) internal {\r\n    require(newOwner != address(0));\r\n    emit OwnershipTransferred(_owner, newOwner);\r\n    _owner = newOwner;\r\n  }\r\n}\r\n\r\ncontract System is Ownable{ \r\n  address[] public schoolAddresses;\r\n  address[] public userAddresses;\r\n  mapping (address => address) public mapSchool; // school address => contract\r\n  mapping (address => address) public mapUser; // user address => contract\r\n\r\n  mapping (string => address) public idnumberToContract;\r\n\r\n  event addedSchool(address newSchool, address newContract);\r\n  event changedSchoolContract(address _schoolAddr, address _contractAddr);\r\n  \r\n  event addedUser(address newUser, address newContract);\r\n  event changedUserContract(address _userAddr,address _contractAddr);\r\n\r\n  event createdTempContractbyIDNumber(string _idnumber);\r\n  \r\n  constructor() public{\r\n    transferOwnership(address(0x3E5C773519D38EB7996A5cADFDb8C8256889cB79));\r\n  } \r\n  modifier onlySchool() {\r\n    require(isSchool());\r\n    _;\r\n  }\r\n  function isSchool() public view returns(bool) {\r\n    if (mapSchool[msg.sender] != address(0)) return true;\r\n    return false;\r\n  }\r\n  function _isSchool(address schoolAddr) public view returns(bool) {\r\n    for (uint i=0; i< schoolAddresses.length; i++){\r\n      if (schoolAddr == schoolAddresses[i]) return true;\r\n    }\r\n    return false;\r\n  }\r\n  function _isSchoolContract(address schoolCA ) public view returns(bool) {\r\n    for (uint i=0; i< schoolAddresses.length; i++){\r\n      if (mapSchool[schoolAddresses[i]] == schoolCA) return true;\r\n    }\r\n    return false;\r\n  }\r\n  function _isUser(address userAddr) internal view returns(bool) {\r\n    for (uint i=0; i< userAddresses.length; i++){\r\n      if (userAddr == userAddresses[i]) return true;\r\n    }\r\n    return false;\r\n  }\r\n  function addSchool( string memory name, string memory addressPlace, string memory phoneNumber, string memory idnumber, string memory fax, string memory website, address schoolAddr)public onlyOwner(){\r\n    require(!(_isSchool(schoolAddr)));\r\n    schoolAddresses.push(schoolAddr);\r\n    School schoolContract = new School(name, addressPlace, phoneNumber, idnumber, fax, website, schoolAddr);\r\n    mapSchool[schoolAddr] = address(schoolContract);\r\n    emit addedSchool(schoolAddr, address(schoolContract));\r\n  }\r\n  function changeSchoolContract(address _schoolAddr, address _contractAddr) public onlyOwner(){\r\n    for(uint i = 0 ; i< schoolAddresses.length; i++){\r\n      if (schoolAddresses[i] == _schoolAddr){\r\n        mapSchool[_schoolAddr] = _contractAddr;\r\n        emit changedSchoolContract(_schoolAddr, _contractAddr);\r\n        return;\r\n      }\r\n    }\r\n  }\r\n  function getSchoolContractAddr(address _schoolAddr) public view returns(address){\r\n    if(mapSchool[_schoolAddr] == address(0)){\r\n      return address(0);\r\n    }\r\n    return mapSchool[_schoolAddr];\r\n  }\r\n  // STUDENT CONTRACT -----------------------------------\r\n  function addUser(address _userAddr, string memory _idnumber, address _userCA) public onlyOwner(){\r\n    // check if userAddress is exist\r\n    require (idnumberToContract[_idnumber] == address(0));\r\n    userAddresses.push(_userAddr);\r\n    // push user address to array\r\n    idnumberToContract[_idnumber] = _userCA;\r\n    mapUser[_userAddr] = _userCA;\r\n    emit addedUser(_userAddr, _userCA);\r\n  }\r\n  function changeUserContract(address _userAddr, address _contractAddr) public onlyOwner(){\r\n    for (uint i = 0 ; i< userAddresses.length; i++){\r\n      if (userAddresses[i] == _userAddr) {\r\n        mapUser[_userAddr] = _contractAddr;\r\n        emit changedUserContract(_userAddr, _contractAddr);\r\n        break;\r\n      }\r\n    }\r\n  }\r\n  function getUserContractAddr(address userAddr) public view returns(address) {\r\n    return (mapUser[userAddr] != address(0))? mapUser[userAddr] : address(0);\r\n  }\r\n  function createTempContractbyIDNumber (string memory _idnumber, address _sysCA) public onlyOwner(){\r\n    require(idnumberToContract[_idnumber] == address(0));\r\n    User userC = new User(msg.sender,_sysCA);\r\n    idnumberToContract[_idnumber] = address(userC);\r\n    emit createdTempContractbyIDNumber(_idnumber);\r\n  }\r\n  function getContractbyIDNumber (string memory _idnumber) public view returns(address){\r\n    return idnumberToContract[_idnumber];\r\n  }\r\n} \r\n\r\ncontract School is Ownable{\r\n  string public name;\r\n  string public addressPlace;\r\n  string public phoneNumber;\r\n  string public idnumber;\r\n  string public fax; \r\n  string public website;\r\n  \r\n  event addedCertificate(address _address, bytes32 _certHash);\r\n  event deactivatedCertificate(address _address, bytes32 _certHash);\r\n  event deletedCertificate(address _address, bytes32 _certHash);\r\n\r\n  constructor(\r\n    string memory _name,\r\n    string memory _addressPlace,\r\n    string memory _phoneNumber,\r\n    string memory _idnumber,\r\n    string memory _fax,\r\n    string memory _website,\r\n    address schAddr\r\n  ) public {\r\n    name = _name;\r\n    addressPlace = _addressPlace;\r\n    phoneNumber = _phoneNumber;\r\n    idnumber = _idnumber;\r\n    fax = _fax;\r\n    website = _website;\r\n    transferOwnership(schAddr);\r\n  }\r\n  function getSchool() public view{\r\n    name;\r\n    addressPlace;\r\n    phoneNumber;\r\n    idnumber;\r\n    fax; \r\n    website;\r\n  }\r\n  function addCertificate(bytes32 _hashedCert, address userCAddr ) public onlyOwner(){\r\n    User userI = User(userCAddr);\r\n    if (address(userI) != address(0)) {\r\n      userI.addCertificate(_hashedCert);\r\n      emit addedCertificate(msg.sender, _hashedCert);\r\n    }\r\n  }\r\n  function deactivateCertificate(bytes32 _certHash, address userCAddr) public onlyOwner(){\r\n    User userI = User(userCAddr);\r\n    if (address(userI) != address(0)) {\r\n      userI.deactivateCertificate(_certHash);\r\n      emit deactivatedCertificate(msg.sender, _certHash);\r\n    }\r\n  }\r\n  function deleteCertificate(bytes32 _certHash, address userCAddr) public onlyOwner(){\r\n    User userI = User(userCAddr);\r\n    if (address(userI) != address(0)) {\r\n      userI.deleteCertificate(_certHash);\r\n      emit deletedCertificate(msg.sender, _certHash);\r\n    }\r\n  }\r\n}\r\n\r\ncontract User is Ownable{\r\n  struct Certificate {\r\n    uint8 state;\r\n    address schoolAddress;\r\n    bytes32 certHash;\r\n  }\r\n\r\n  bytes32[] public certificateList; // mang hashed_cert\r\n  mapping (bytes32 => Certificate) mapCertificates; // hashed_cert => Certificate\r\n  System public system;\r\n\r\n  event addedCertificate(address _address, bytes32 _certHash);\r\n  event deactivatedCertificate(address _address, bytes32 _certHash);\r\n  event deletedCertificate(address _address, bytes32 _certHash);\r\n\r\n  constructor(address userAddr, address _sysCA) public {\r\n    system = System(_sysCA);\r\n    transferOwnership(userAddr);\r\n  }\r\n  \r\n  modifier onlySchool() {\r\n    require(system._isSchoolContract(msg.sender));\r\n    _;\r\n  }\r\n  function addCertificate(bytes32 _hashedCert) public onlySchool(){\r\n    mapCertificates[_hashedCert] = Certificate(uint8(1), msg.sender, _hashedCert );\r\n    certificateList.push(_hashedCert);\r\n    emit addedCertificate(msg.sender, _hashedCert);\r\n  }\r\n  function deactivateCertificate(bytes32 _certHash) public onlySchool(){\r\n    mapCertificates[_certHash].state = uint8(0);\r\n    emit deactivatedCertificate(msg.sender, _certHash);\r\n  }\r\n  function deleteCertificate(bytes32 _certHash) public onlySchool(){\r\n    mapCertificates[_certHash].state = uint8(2);\r\n    emit deletedCertificate(msg.sender, _certHash);\r\n  }\r\n  function viewCertificate(bytes32 _certHash) public view returns(uint8, address, bytes32){\r\n    Certificate storage cert = mapCertificates[_certHash];\r\n    return (cert.state, cert.schoolAddress, cert.certHash);\r\n  }\r\n}",
  "sourcePath": "D:\\labs\\project_QLVBCC\\src\\contracts\\myContract.sol",
  "compiler": {
    "name": "solc",
    "version": "0.5.16+commit.9c3226ce.Emscripten.clang"
  },
  "schemaVersion": "3.4.3",
  "updatedAt": "2021-11-30T06:54:31.878Z",
  "networkType": "ethereum",
  "devdoc": {
    "methods": {
      "isOwner()": {
        "return": "true if `msg.sender` is the owner of the contract."
      },
      "owner()": {
        "return": "the address of the owner."
      },
      "renounceOwnership()": {
        "details": "Allows the current owner to relinquish control of the contract."
      },
      "transferOwnership(address)": {
        "details": "Allows the current owner to transfer control of the contract to a newOwner.",
        "params": {
          "newOwner": "The address to transfer ownership to."
        }
      }
    }
  },
  "userdoc": {
    "methods": {
      "renounceOwnership()": {
        "notice": "Renouncing to ownership will leave the contract without an owner. It will not be possible to call the functions with the `onlyOwner` modifier anymore."
      }
    }
  }
}