{
  "contractName": "School",
  "abi": [
    {
      "inputs": [
        {
          "internalType": "string",
          "name": "_name",
          "type": "string"
        },
        {
          "internalType": "string",
          "name": "_code",
          "type": "string"
        },
        {
          "internalType": "string",
          "name": "_addressPlace",
          "type": "string"
        },
        {
          "internalType": "string",
          "name": "_phoneNumber",
          "type": "string"
        },
        {
          "internalType": "string",
          "name": "_email",
          "type": "string"
        },
        {
          "internalType": "string",
          "name": "_fax",
          "type": "string"
        },
        {
          "internalType": "string",
          "name": "_website",
          "type": "string"
        },
        {
          "internalType": "address",
          "name": "schAddr",
          "type": "address"
        }
      ],
      "payable": false,
      "stateMutability": "nonpayable",
      "type": "constructor"
    },
    {
      "anonymous": false,
      "inputs": [
        {
          "indexed": true,
          "internalType": "address",
          "name": "previousOwner",
          "type": "address"
        },
        {
          "indexed": true,
          "internalType": "address",
          "name": "newOwner",
          "type": "address"
        }
      ],
      "name": "OwnershipTransferred",
      "type": "event"
    },
    {
      "anonymous": false,
      "inputs": [
        {
          "indexed": false,
          "internalType": "address",
          "name": "_userCAddr",
          "type": "address"
        },
        {
          "indexed": false,
          "internalType": "string",
          "name": "_certNumber",
          "type": "string"
        },
        {
          "indexed": false,
          "internalType": "bytes32",
          "name": "_certHash",
          "type": "bytes32"
        }
      ],
      "name": "addedCertificate",
      "type": "event"
    },
    {
      "anonymous": false,
      "inputs": [
        {
          "indexed": false,
          "internalType": "address",
          "name": "_userCAddr",
          "type": "address"
        },
        {
          "indexed": false,
          "internalType": "string",
          "name": "_certNumber",
          "type": "string"
        },
        {
          "indexed": false,
          "internalType": "bytes32",
          "name": "_certHash",
          "type": "bytes32"
        }
      ],
      "name": "deactivatedCertificate",
      "type": "event"
    },
    {
      "constant": true,
      "inputs": [],
      "name": "addressPlace",
      "outputs": [
        {
          "internalType": "string",
          "name": "",
          "type": "string"
        }
      ],
      "payable": false,
      "stateMutability": "view",
      "type": "function"
    },
    {
      "constant": true,
      "inputs": [],
      "name": "code",
      "outputs": [
        {
          "internalType": "string",
          "name": "",
          "type": "string"
        }
      ],
      "payable": false,
      "stateMutability": "view",
      "type": "function"
    },
    {
      "constant": true,
      "inputs": [],
      "name": "email",
      "outputs": [
        {
          "internalType": "string",
          "name": "",
          "type": "string"
        }
      ],
      "payable": false,
      "stateMutability": "view",
      "type": "function"
    },
    {
      "constant": true,
      "inputs": [],
      "name": "fax",
      "outputs": [
        {
          "internalType": "string",
          "name": "",
          "type": "string"
        }
      ],
      "payable": false,
      "stateMutability": "view",
      "type": "function"
    },
    {
      "constant": true,
      "inputs": [],
      "name": "isOwner",
      "outputs": [
        {
          "internalType": "bool",
          "name": "",
          "type": "bool"
        }
      ],
      "payable": false,
      "stateMutability": "view",
      "type": "function"
    },
    {
      "constant": true,
      "inputs": [],
      "name": "name",
      "outputs": [
        {
          "internalType": "string",
          "name": "",
          "type": "string"
        }
      ],
      "payable": false,
      "stateMutability": "view",
      "type": "function"
    },
    {
      "constant": true,
      "inputs": [],
      "name": "owner",
      "outputs": [
        {
          "internalType": "address",
          "name": "",
          "type": "address"
        }
      ],
      "payable": false,
      "stateMutability": "view",
      "type": "function"
    },
    {
      "constant": true,
      "inputs": [],
      "name": "phoneNumber",
      "outputs": [
        {
          "internalType": "string",
          "name": "",
          "type": "string"
        }
      ],
      "payable": false,
      "stateMutability": "view",
      "type": "function"
    },
    {
      "constant": false,
      "inputs": [],
      "name": "renounceOwnership",
      "outputs": [],
      "payable": false,
      "stateMutability": "nonpayable",
      "type": "function"
    },
    {
      "constant": false,
      "inputs": [
        {
          "internalType": "address",
          "name": "newOwner",
          "type": "address"
        }
      ],
      "name": "transferOwnership",
      "outputs": [],
      "payable": false,
      "stateMutability": "nonpayable",
      "type": "function"
    },
    {
      "constant": true,
      "inputs": [],
      "name": "website",
      "outputs": [
        {
          "internalType": "string",
          "name": "",
          "type": "string"
        }
      ],
      "payable": false,
      "stateMutability": "view",
      "type": "function"
    },
    {
      "constant": true,
      "inputs": [],
      "name": "getSchool",
      "outputs": [
        {
          "internalType": "string",
          "name": "",
          "type": "string"
        },
        {
          "internalType": "string",
          "name": "",
          "type": "string"
        },
        {
          "internalType": "string",
          "name": "",
          "type": "string"
        },
        {
          "internalType": "string",
          "name": "",
          "type": "string"
        },
        {
          "internalType": "string",
          "name": "",
          "type": "string"
        },
        {
          "internalType": "string",
          "name": "",
          "type": "string"
        },
        {
          "internalType": "string",
          "name": "",
          "type": "string"
        }
      ],
      "payable": false,
      "stateMutability": "view",
      "type": "function"
    },
    {
      "constant": false,
      "inputs": [
        {
          "internalType": "bytes32",
          "name": "_hashedCert",
          "type": "bytes32"
        },
        {
          "internalType": "string",
          "name": "_certNumber",
          "type": "string"
        },
        {
          "internalType": "string",
          "name": "_ipfs",
          "type": "string"
        },
        {
          "internalType": "address",
          "name": "userCAddr",
          "type": "address"
        }
      ],
      "name": "addCertificate",
      "outputs": [],
      "payable": false,
      "stateMutability": "nonpayable",
      "type": "function"
    },
    {
      "constant": false,
      "inputs": [
        {
          "internalType": "bytes32",
          "name": "_certHash",
          "type": "bytes32"
        },
        {
          "internalType": "string",
          "name": "_certNumber",
          "type": "string"
        },
        {
          "internalType": "address",
          "name": "userCAddr",
          "type": "address"
        }
      ],
      "name": "deactivateCertificate",
      "outputs": [],
      "payable": false,
      "stateMutability": "nonpayable",
      "type": "function"
    }
  ],
  "bytecode": "0x60806040523480156200001157600080fd5b5060405162001be238038062001be2833981810160405262000037919081019062000461565b336000806101000a81548173ffffffffffffffffffffffffffffffffffffffff021916908373ffffffffffffffffffffffffffffffffffffffff1602179055506000809054906101000a900473ffffffffffffffffffffffffffffffffffffffff1673ffffffffffffffffffffffffffffffffffffffff16600073ffffffffffffffffffffffffffffffffffffffff167f8be0079c531659141344cd1fd0a4f28419497f9722a3daafe3b4186f6b6457e060405160405180910390a387600190805190602001906200010b9291906200033f565b508660029080519060200190620001249291906200033f565b5085600390805190602001906200013d9291906200033f565b508460049080519060200190620001569291906200033f565b5083600590805190602001906200016f9291906200033f565b508260069080519060200190620001889291906200033f565b508160079080519060200190620001a19291906200033f565b50620001b381620001c160201b60201c565b5050505050505050620006b2565b620001d1620001ef60201b60201c565b620001db57600080fd5b620001ec816200024660201b60201c565b50565b60008060009054906101000a900473ffffffffffffffffffffffffffffffffffffffff1673ffffffffffffffffffffffffffffffffffffffff163373ffffffffffffffffffffffffffffffffffffffff1614905090565b600073ffffffffffffffffffffffffffffffffffffffff168173ffffffffffffffffffffffffffffffffffffffff1614156200028157600080fd5b8073ffffffffffffffffffffffffffffffffffffffff166000809054906101000a900473ffffffffffffffffffffffffffffffffffffffff1673ffffffffffffffffffffffffffffffffffffffff167f8be0079c531659141344cd1fd0a4f28419497f9722a3daafe3b4186f6b6457e060405160405180910390a3806000806101000a81548173ffffffffffffffffffffffffffffffffffffffff021916908373ffffffffffffffffffffffffffffffffffffffff16021790555050565b828054600181600116156101000203166002900490600052602060002090601f016020900481019282601f106200038257805160ff1916838001178555620003b3565b82800160010185558215620003b3579182015b82811115620003b257825182559160200191906001019062000395565b5b509050620003c29190620003c6565b5090565b620003eb91905b80821115620003e7576000816000905550600101620003cd565b5090565b90565b600081519050620003ff8162000698565b92915050565b600082601f8301126200041757600080fd5b81516200042e620004288262000601565b620005d3565b915080825260208301602083018583830111156200044b57600080fd5b6200045883828462000662565b50505092915050565b600080600080600080600080610100898b0312156200047f57600080fd5b600089015167ffffffffffffffff8111156200049a57600080fd5b620004a88b828c0162000405565b985050602089015167ffffffffffffffff811115620004c657600080fd5b620004d48b828c0162000405565b975050604089015167ffffffffffffffff811115620004f257600080fd5b620005008b828c0162000405565b965050606089015167ffffffffffffffff8111156200051e57600080fd5b6200052c8b828c0162000405565b955050608089015167ffffffffffffffff8111156200054a57600080fd5b620005588b828c0162000405565b94505060a089015167ffffffffffffffff8111156200057657600080fd5b620005848b828c0162000405565b93505060c089015167ffffffffffffffff811115620005a257600080fd5b620005b08b828c0162000405565b92505060e0620005c38b828c01620003ee565b9150509295985092959890939650565b6000604051905081810181811067ffffffffffffffff82111715620005f757600080fd5b8060405250919050565b600067ffffffffffffffff8211156200061957600080fd5b601f19601f8301169050602081019050919050565b60006200063b8262000642565b9050919050565b600073ffffffffffffffffffffffffffffffffffffffff82169050919050565b60005b838110156200068257808201518184015260208101905062000665565b8381111562000692576000848401525b50505050565b620006a3816200062e565b8114620006af57600080fd5b50565b61152080620006c26000396000f3fe608060405234801561001057600080fd5b50600436106100ea5760003560e01c80638f32d59b1161008c578063a9e3e7c111610066578063a9e3e7c114610203578063beb0a41614610227578063ef690ad414610245578063f2fde38b14610263576100ea565b80638f32d59b146101ab57806390ef5873146101c957806396b275fc146101e5576100ea565b8063715018a6116100c8578063715018a614610147578063747f338014610151578063820e93f51461016f5780638da5cb5b1461018d576100ea565b806306fdde03146100ef57806324c12bf61461010d57806327879ab71461012b575b600080fd5b6100f761027f565b60405161010491906112d2565b60405180910390f35b61011561031d565b60405161012291906112d2565b60405180910390f35b610145600480360361014091908101906110b7565b6103bb565b005b61014f6104bc565b005b61015961058c565b60405161016691906112d2565b60405180910390f35b61017761062a565b60405161018491906112d2565b60405180910390f35b6101956106c8565b6040516101a291906111e9565b60405180910390f35b6101b36106f1565b6040516101c09190611242565b60405180910390f35b6101e360048036036101de9190810190611050565b610748565b005b6101ed610846565b6040516101fa91906112d2565b60405180910390f35b61020b6108e4565b60405161021e97969594939291906112f4565b60405180910390f35b61022f610d58565b60405161023c91906112d2565b60405180910390f35b61024d610df6565b60405161025a91906112d2565b60405180910390f35b61027d60048036036102789190810190611027565b610e94565b005b60018054600181600116156101000203166002900480601f0160208091040260200160405190810160405280929190818152602001828054600181600116156101000203166002900480156103155780601f106102ea57610100808354040283529160200191610315565b820191906000526020600020905b8154815290600101906020018083116102f857829003601f168201915b505050505081565b60028054600181600116156101000203166002900480601f0160208091040260200160405190810160405280929190818152602001828054600181600116156101000203166002900480156103b35780601f10610388576101008083540402835291602001916103b3565b820191906000526020600020905b81548152906001019060200180831161039657829003601f168201915b505050505081565b6103c36106f1565b6103cc57600080fd5b6000819050600073ffffffffffffffffffffffffffffffffffffffff168173ffffffffffffffffffffffffffffffffffffffff16141561040b57600080fd5b8073ffffffffffffffffffffffffffffffffffffffff1663d7787eeb8686866040518463ffffffff1660e01b81526004016104489392919061128d565b600060405180830381600087803b15801561046257600080fd5b505af1158015610476573d6000803e3d6000fd5b505050507f29ce43725d4bb7eab2eba2456a54567781f53da28f5a5e6ad76948ca3dad62d78285876040516104ad93929190611204565b60405180910390a15050505050565b6104c46106f1565b6104cd57600080fd5b600073ffffffffffffffffffffffffffffffffffffffff166000809054906101000a900473ffffffffffffffffffffffffffffffffffffffff1673ffffffffffffffffffffffffffffffffffffffff167f8be0079c531659141344cd1fd0a4f28419497f9722a3daafe3b4186f6b6457e060405160405180910390a360008060006101000a81548173ffffffffffffffffffffffffffffffffffffffff021916908373ffffffffffffffffffffffffffffffffffffffff160217905550565b60048054600181600116156101000203166002900480601f0160208091040260200160405190810160405280929190818152602001828054600181600116156101000203166002900480156106225780601f106105f757610100808354040283529160200191610622565b820191906000526020600020905b81548152906001019060200180831161060557829003601f168201915b505050505081565b60058054600181600116156101000203166002900480601f0160208091040260200160405190810160405280929190818152602001828054600181600116156101000203166002900480156106c05780601f10610695576101008083540402835291602001916106c0565b820191906000526020600020905b8154815290600101906020018083116106a357829003601f168201915b505050505081565b60008060009054906101000a900473ffffffffffffffffffffffffffffffffffffffff16905090565b60008060009054906101000a900473ffffffffffffffffffffffffffffffffffffffff1673ffffffffffffffffffffffffffffffffffffffff163373ffffffffffffffffffffffffffffffffffffffff1614905090565b6107506106f1565b61075957600080fd5b6000819050600073ffffffffffffffffffffffffffffffffffffffff168173ffffffffffffffffffffffffffffffffffffffff16141561079857600080fd5b8073ffffffffffffffffffffffffffffffffffffffff166320cc134285856040518363ffffffff1660e01b81526004016107d392919061125d565b600060405180830381600087803b1580156107ed57600080fd5b505af1158015610801573d6000803e3d6000fd5b505050507f4b767ae7cceb4be6f856fff380d53455e3f6a1f96e7e19dde9a75ad1bd32a26782848660405161083893929190611204565b60405180910390a150505050565b60038054600181600116156101000203166002900480601f0160208091040260200160405190810160405280929190818152602001828054600181600116156101000203166002900480156108dc5780601f106108b1576101008083540402835291602001916108dc565b820191906000526020600020905b8154815290600101906020018083116108bf57829003601f168201915b505050505081565b60608060608060608060606001600260036004600560066007868054600181600116156101000203166002900480601f0160208091040260200160405190810160405280929190818152602001828054600181600116156101000203166002900480156109925780601f1061096757610100808354040283529160200191610992565b820191906000526020600020905b81548152906001019060200180831161097557829003601f168201915b50505050509650858054600181600116156101000203166002900480601f016020809104026020016040519081016040528092919081815260200182805460018160011615610100020316600290048015610a2e5780601f10610a0357610100808354040283529160200191610a2e565b820191906000526020600020905b815481529060010190602001808311610a1157829003601f168201915b50505050509550848054600181600116156101000203166002900480601f016020809104026020016040519081016040528092919081815260200182805460018160011615610100020316600290048015610aca5780601f10610a9f57610100808354040283529160200191610aca565b820191906000526020600020905b815481529060010190602001808311610aad57829003601f168201915b50505050509450838054600181600116156101000203166002900480601f016020809104026020016040519081016040528092919081815260200182805460018160011615610100020316600290048015610b665780601f10610b3b57610100808354040283529160200191610b66565b820191906000526020600020905b815481529060010190602001808311610b4957829003601f168201915b50505050509350828054600181600116156101000203166002900480601f016020809104026020016040519081016040528092919081815260200182805460018160011615610100020316600290048015610c025780601f10610bd757610100808354040283529160200191610c02565b820191906000526020600020905b815481529060010190602001808311610be557829003601f168201915b50505050509250818054600181600116156101000203166002900480601f016020809104026020016040519081016040528092919081815260200182805460018160011615610100020316600290048015610c9e5780601f10610c7357610100808354040283529160200191610c9e565b820191906000526020600020905b815481529060010190602001808311610c8157829003601f168201915b50505050509150808054600181600116156101000203166002900480601f016020809104026020016040519081016040528092919081815260200182805460018160011615610100020316600290048015610d3a5780601f10610d0f57610100808354040283529160200191610d3a565b820191906000526020600020905b815481529060010190602001808311610d1d57829003601f168201915b50505050509050965096509650965096509650965090919293949596565b60078054600181600116156101000203166002900480601f016020809104026020016040519081016040528092919081815260200182805460018160011615610100020316600290048015610dee5780601f10610dc357610100808354040283529160200191610dee565b820191906000526020600020905b815481529060010190602001808311610dd157829003601f168201915b505050505081565b60068054600181600116156101000203166002900480601f016020809104026020016040519081016040528092919081815260200182805460018160011615610100020316600290048015610e8c5780601f10610e6157610100808354040283529160200191610e8c565b820191906000526020600020905b815481529060010190602001808311610e6f57829003601f168201915b505050505081565b610e9c6106f1565b610ea557600080fd5b610eae81610eb1565b50565b600073ffffffffffffffffffffffffffffffffffffffff168173ffffffffffffffffffffffffffffffffffffffff161415610eeb57600080fd5b8073ffffffffffffffffffffffffffffffffffffffff166000809054906101000a900473ffffffffffffffffffffffffffffffffffffffff1673ffffffffffffffffffffffffffffffffffffffff167f8be0079c531659141344cd1fd0a4f28419497f9722a3daafe3b4186f6b6457e060405160405180910390a3806000806101000a81548173ffffffffffffffffffffffffffffffffffffffff021916908373ffffffffffffffffffffffffffffffffffffffff16021790555050565b600081359050610fb8816114af565b92915050565b600081359050610fcd816114c6565b92915050565b600082601f830112610fe457600080fd5b8135610ff7610ff2826113c1565b611394565b9150808252602083016020830185838301111561101357600080fd5b61101e83828461145c565b50505092915050565b60006020828403121561103957600080fd5b600061104784828501610fa9565b91505092915050565b60008060006060848603121561106557600080fd5b600061107386828701610fbe565b935050602084013567ffffffffffffffff81111561109057600080fd5b61109c86828701610fd3565b92505060406110ad86828701610fa9565b9150509250925092565b600080600080608085870312156110cd57600080fd5b60006110db87828801610fbe565b945050602085013567ffffffffffffffff8111156110f857600080fd5b61110487828801610fd3565b935050604085013567ffffffffffffffff81111561112157600080fd5b61112d87828801610fd3565b925050606061113e87828801610fa9565b91505092959194509250565b61115381611414565b82525050565b61116281611426565b82525050565b61117181611432565b82525050565b6000611182826113f8565b61118c8185611403565b935061119c81856020860161146b565b6111a58161149e565b840191505092915050565b60006111bb826113ed565b6111c58185611403565b93506111d581856020860161146b565b6111de8161149e565b840191505092915050565b60006020820190506111fe600083018461114a565b92915050565b6000606082019050611219600083018661114a565b818103602083015261122b8185611177565b905061123a6040830184611168565b949350505050565b60006020820190506112576000830184611159565b92915050565b60006040820190506112726000830185611168565b81810360208301526112848184611177565b90509392505050565b60006060820190506112a26000830186611168565b81810360208301526112b48185611177565b905081810360408301526112c88184611177565b9050949350505050565b600060208201905081810360008301526112ec81846111b0565b905092915050565b600060e082019050818103600083015261130e818a611177565b905081810360208301526113228189611177565b905081810360408301526113368188611177565b9050818103606083015261134a8187611177565b9050818103608083015261135e8186611177565b905081810360a08301526113728185611177565b905081810360c08301526113868184611177565b905098975050505050505050565b6000604051905081810181811067ffffffffffffffff821117156113b757600080fd5b8060405250919050565b600067ffffffffffffffff8211156113d857600080fd5b601f19601f8301169050602081019050919050565b600081519050919050565b600081519050919050565b600082825260208201905092915050565b600061141f8261143c565b9050919050565b60008115159050919050565b6000819050919050565b600073ffffffffffffffffffffffffffffffffffffffff82169050919050565b82818337600083830152505050565b60005b8381101561148957808201518184015260208101905061146e565b83811115611498576000848401525b50505050565b6000601f19601f8301169050919050565b6114b881611414565b81146114c357600080fd5b50565b6114cf81611432565b81146114da57600080fd5b5056fea365627a7a72315820a838f47c7768e9d3e6d3bb2c4e597f342458f063d155160c6bae60b1fe87ed1e6c6578706572696d656e74616cf564736f6c63430005100040",
  "source": "pragma solidity >=0.4.22 <0.9.0;  \r\npragma experimental ABIEncoderV2;\r\n\r\ncontract Ownable {\r\n  address private _owner;\r\n\r\n  event OwnershipTransferred(\r\n    address indexed previousOwner,\r\n    address indexed newOwner\r\n  );\r\n\r\n  constructor() public {\r\n    _owner = msg.sender;\r\n    emit OwnershipTransferred(address(0), _owner);\r\n  }\r\n  function owner() public view returns(address) {\r\n    return _owner;\r\n  }\r\n  modifier onlyOwner() {\r\n    require(isOwner());\r\n    _;\r\n  }\r\n  function isOwner() public view returns(bool) {\r\n    return msg.sender == _owner;\r\n  }\r\n  function renounceOwnership() public onlyOwner {\r\n    emit OwnershipTransferred(_owner, address(0));\r\n    _owner = address(0);\r\n  }\r\n  function transferOwnership(address newOwner) public onlyOwner {\r\n    _transferOwnership(newOwner);\r\n  }\r\n  function _transferOwnership(address newOwner) internal {\r\n    require(newOwner != address(0));\r\n    emit OwnershipTransferred(_owner, newOwner);\r\n    _owner = newOwner;\r\n  }\r\n}\r\n\r\ncontract System is Ownable{ \r\n  address[] public schoolAddresses;\r\n  address[] public userAddresses;\r\n  mapping (address => address) public mapSchool; // school address => contract\r\n  mapping (address => address) public mapUser; // user address => contract\r\n\r\n  mapping (string => address) public idnumberToContract;\r\n\r\n  event addedSchool(string schoolCode, address newSchool, address newContract);\r\n  event changedSchoolContract(address _schoolAddr, address _contractAddr);\r\n  \r\n  event addedUser(string idnumber, address newUser, address newContract);\r\n  event changedUserContract(address _userAddr,address _contractAddr);\r\n\r\n  event createdUserContractWithIDNumber(string _idnumber);\r\n  \r\n  constructor() public{\r\n    transferOwnership(address(msg.sender));\r\n  } \r\n  modifier onlySchool() {\r\n    require(isSchool());\r\n    _;\r\n  }\r\n  function isSchool() public view returns(bool) {\r\n    if (mapSchool[msg.sender] != address(0)) return true;\r\n    return false;\r\n  }\r\n  function _isSchool(address schoolAddr) public view returns(bool) {\r\n    for (uint i=0; i< schoolAddresses.length; i++){\r\n      if (schoolAddr == schoolAddresses[i]) return true;\r\n    }\r\n    return false;\r\n  }\r\n  function _isSchoolContract(address schoolCA ) public view returns(bool) {\r\n    for (uint i=0; i< schoolAddresses.length; i++){\r\n      if (mapSchool[schoolAddresses[i]] == schoolCA) return true;\r\n    }\r\n    return false;\r\n  }\r\n  function _isUser(address userAddr) internal view returns(bool) {\r\n    for (uint i=0; i< userAddresses.length; i++){\r\n      if (userAddr == userAddresses[i]) return true;\r\n    }\r\n    return false;\r\n  }\r\n  function addSchool( string memory name,string memory code, string memory addressPlace, string memory phoneNumber, string memory email, string memory fax, string memory website, address schoolAddr)public onlyOwner(){\r\n    require(!(_isSchool(schoolAddr)));\r\n    schoolAddresses.push(schoolAddr);\r\n    School schoolContract = new School(name, code, addressPlace, phoneNumber, email, fax, website, schoolAddr);\r\n    mapSchool[schoolAddr] = address(schoolContract);\r\n    emit addedSchool(code, schoolAddr, address(schoolContract));\r\n  }\r\n  \r\n  function changeSchoolContract(address _schoolAddr, address _contractAddr) public onlyOwner(){\r\n    for(uint i = 0 ; i< schoolAddresses.length; i++){\r\n      if (schoolAddresses[i] == _schoolAddr){\r\n        mapSchool[_schoolAddr] = _contractAddr;\r\n        emit changedSchoolContract(_schoolAddr, _contractAddr);\r\n        return;\r\n      }\r\n    }\r\n  }\r\n  function getSchoolContractAddr(address _schoolAddr) public view returns(address){\r\n    if(mapSchool[_schoolAddr] == address(0)){\r\n      return address(0);\r\n    }\r\n    return mapSchool[_schoolAddr];\r\n  }\r\n  function addUser(address _userAddr, string memory _idnumber, address _userCA) public onlyOwner(){\r\n    userAddresses.push(_userAddr);\r\n    idnumberToContract[_idnumber] = _userCA;\r\n    mapUser[_userAddr] = _userCA;\r\n    emit addedUser(_idnumber, _userAddr, _userCA);\r\n  }\r\n  function changeUserContract(address _userAddr, address _contractAddr) public onlyOwner(){\r\n    for (uint i = 0 ; i< userAddresses.length; i++){\r\n      if (userAddresses[i] == _userAddr) {\r\n        mapUser[_userAddr] = _contractAddr;\r\n        emit changedUserContract(_userAddr, _contractAddr);\r\n        break;\r\n      }\r\n    }\r\n  }\r\n  function getUserContractAddr(address userAddr) public view returns(address) {\r\n    return (mapUser[userAddr] != address(0))? mapUser[userAddr] : address(0);\r\n  }\r\n  function createUserContractWithIDNumber (string memory _idnumber, address _sysCA) public onlyOwner(){\r\n    require(idnumberToContract[_idnumber] == address(0));\r\n    User userC = new User(msg.sender,_sysCA);\r\n    idnumberToContract[_idnumber] = address(userC);\r\n    emit createdUserContractWithIDNumber(_idnumber);\r\n  }\r\n  function getContractbyIDNumber (string memory _idnumber) public view returns(address){\r\n    return idnumberToContract[_idnumber];\r\n  }\r\n} \r\n\r\ncontract School is Ownable{\r\n  string public name;\r\n  string public code;\r\n  string public addressPlace;\r\n  string public phoneNumber;\r\n  string public email;\r\n  string public fax; \r\n  string public website;\r\n  \r\n  event addedCertificate(address _userCAddr,string _certNumber, bytes32 _certHash);\r\n  event deactivatedCertificate(address _userCAddr,string _certNumber, bytes32 _certHash);\r\n\r\n  constructor(\r\n    string memory _name,\r\n    string memory _code,\r\n    string memory _addressPlace,\r\n    string memory _phoneNumber,\r\n    string memory _email,\r\n    string memory _fax,\r\n    string memory _website,\r\n    address schAddr\r\n    ) public {\r\n      name = _name;\r\n      code = _code;\r\n      addressPlace = _addressPlace;\r\n      phoneNumber = _phoneNumber;\r\n      email = _email;\r\n      fax = _fax;\r\n      website = _website;\r\n      transferOwnership(schAddr);\r\n    }\r\n  function getSchool() public view returns (string memory, string memory, string memory, string memory, string memory, string memory, string memory){\r\n    return (name, code, addressPlace ,phoneNumber , email, fax, website);\r\n  }\r\n  function addCertificate(bytes32 _hashedCert,string memory _certNumber,string memory _ipfs, address userCAddr) public onlyOwner(){\r\n    User userI = User(userCAddr);\r\n    require (address(userI) != address(0));\r\n    userI.addCertificate(_hashedCert, _certNumber, _ipfs);\r\n    emit addedCertificate(userCAddr, _certNumber,  _hashedCert);\r\n  }\r\n  function deactivateCertificate(bytes32 _certHash, string memory _certNumber, address userCAddr) public onlyOwner(){\r\n    User userI = User(userCAddr);\r\n    require (address(userI) != address(0));\r\n    userI.deactivateCertificate(_certHash, _certNumber);\r\n    emit deactivatedCertificate(userCAddr, _certNumber, _certHash);\r\n  }\r\n}\r\n\r\ncontract User is Ownable{\r\n  struct Certificate {\r\n    uint8 state;\r\n    address schoolAddress;\r\n    bytes32 certHash;\r\n    string ipfs;\r\n  }\r\n\r\n  bytes32[] public certificateList;\r\n  mapping (bytes32 => Certificate) mapCertificates;\r\n  System public system;\r\n\r\n  event addedCertificate(string _certNumber, bytes32 _certHash, string _ipfs);\r\n  event deactivatedCertificate(string _certNumber);\r\n\r\n  constructor(address userAddr, address _sysCA) public {\r\n    system = System(_sysCA);\r\n    transferOwnership(userAddr);\r\n  }\r\n  \r\n  modifier onlySchool() {\r\n    require(system._isSchoolContract(msg.sender));\r\n    _;\r\n  }\r\n  function addCertificate(bytes32 _hashedCert, string memory _certNumber, string memory _ipfs) public onlySchool(){\r\n    mapCertificates[_hashedCert] = Certificate(uint8(1), msg.sender, _hashedCert, _ipfs);\r\n    certificateList.push(_hashedCert);\r\n    emit addedCertificate(_certNumber, _hashedCert, _ipfs);\r\n  }\r\n  function deactivateCertificate(bytes32 _certHash, string memory _certNumber) public onlySchool(){\r\n    require( mapCertificates[_certHash].schoolAddress == msg.sender);\r\n    mapCertificates[_certHash].state = uint8(0);\r\n    emit deactivatedCertificate(_certNumber);\r\n  }\r\n  function viewCertificate(bytes32 _certHash) public view returns(uint8, address, bytes32, string memory){\r\n    Certificate storage cert = mapCertificates[_certHash];\r\n    return (cert.state, cert.schoolAddress, cert.certHash, cert.ipfs);\r\n  }\r\n  function getAllCertificate() public view returns(Certificate[] memory) {\r\n    Certificate[] memory returnData = new Certificate[](certificateList.length);\r\n    uint i=0;\r\n    for (i; i<= certificateList.length-1; i++){\r\n      returnData[i] = (mapCertificates[certificateList[i]]);\r\n    }\r\n    return returnData;\r\n  }\r\n}\r\n",
  "sourcePath": "D:\\project_QLVBCC\\src\\contracts\\myContract.sol",
  "compiler": {
    "name": "solc",
    "version": "0.5.16+commit.9c3226ce.Emscripten.clang"
  },
  "schemaVersion": "3.4.3",
  "updatedAt": "2021-12-29T00:45:51.735Z",
  "networkType": "ethereum",
  "devdoc": {
    "methods": {}
  },
  "userdoc": {
    "methods": {}
  }
}