{
  "contractName": "Student",
  "abi": [
    {
      "inputs": [
        {
          "internalType": "address",
          "name": "stuAddr",
          "type": "address"
        }
      ],
      "payable": false,
      "stateMutability": "nonpayable",
      "type": "constructor"
    },
    {
      "anonymous": false,
      "inputs": [
        {
          "indexed": true,
          "internalType": "address",
          "name": "previousOwner",
          "type": "address"
        },
        {
          "indexed": true,
          "internalType": "address",
          "name": "newOwner",
          "type": "address"
        }
      ],
      "name": "OwnershipTransferred",
      "type": "event"
    },
    {
      "anonymous": false,
      "inputs": [
        {
          "indexed": false,
          "internalType": "address",
          "name": "_address",
          "type": "address"
        },
        {
          "indexed": false,
          "internalType": "bytes32",
          "name": "_certHash",
          "type": "bytes32"
        }
      ],
      "name": "addCertificate",
      "type": "event"
    },
    {
      "anonymous": false,
      "inputs": [
        {
          "indexed": false,
          "internalType": "address",
          "name": "_address",
          "type": "address"
        },
        {
          "indexed": false,
          "internalType": "bytes32",
          "name": "_certHash",
          "type": "bytes32"
        }
      ],
      "name": "addDegree",
      "type": "event"
    },
    {
      "anonymous": false,
      "inputs": [
        {
          "indexed": false,
          "internalType": "address",
          "name": "_address",
          "type": "address"
        },
        {
          "indexed": false,
          "internalType": "bytes32",
          "name": "_certHash",
          "type": "bytes32"
        }
      ],
      "name": "deactivateCertificate",
      "type": "event"
    },
    {
      "anonymous": false,
      "inputs": [
        {
          "indexed": false,
          "internalType": "address",
          "name": "_address",
          "type": "address"
        },
        {
          "indexed": false,
          "internalType": "bytes32",
          "name": "_certHash",
          "type": "bytes32"
        }
      ],
      "name": "deactivateDegree",
      "type": "event"
    },
    {
      "anonymous": false,
      "inputs": [
        {
          "indexed": false,
          "internalType": "address",
          "name": "_address",
          "type": "address"
        },
        {
          "indexed": false,
          "internalType": "bytes32",
          "name": "_certHash",
          "type": "bytes32"
        }
      ],
      "name": "deleteCertificate",
      "type": "event"
    },
    {
      "anonymous": false,
      "inputs": [
        {
          "indexed": false,
          "internalType": "address",
          "name": "_address",
          "type": "address"
        },
        {
          "indexed": false,
          "internalType": "bytes32",
          "name": "_certHash",
          "type": "bytes32"
        }
      ],
      "name": "deleteDegree",
      "type": "event"
    },
    {
      "constant": true,
      "inputs": [
        {
          "internalType": "uint256",
          "name": "",
          "type": "uint256"
        }
      ],
      "name": "certificateList",
      "outputs": [
        {
          "internalType": "bytes32",
          "name": "",
          "type": "bytes32"
        }
      ],
      "payable": false,
      "stateMutability": "view",
      "type": "function"
    },
    {
      "constant": true,
      "inputs": [
        {
          "internalType": "uint256",
          "name": "",
          "type": "uint256"
        }
      ],
      "name": "degreeList",
      "outputs": [
        {
          "internalType": "bytes32",
          "name": "",
          "type": "bytes32"
        }
      ],
      "payable": false,
      "stateMutability": "view",
      "type": "function"
    },
    {
      "constant": true,
      "inputs": [],
      "name": "isOwner",
      "outputs": [
        {
          "internalType": "bool",
          "name": "",
          "type": "bool"
        }
      ],
      "payable": false,
      "stateMutability": "view",
      "type": "function"
    },
    {
      "constant": true,
      "inputs": [],
      "name": "owner",
      "outputs": [
        {
          "internalType": "address",
          "name": "",
          "type": "address"
        }
      ],
      "payable": false,
      "stateMutability": "view",
      "type": "function"
    },
    {
      "constant": false,
      "inputs": [],
      "name": "renounceOwnership",
      "outputs": [],
      "payable": false,
      "stateMutability": "nonpayable",
      "type": "function"
    },
    {
      "constant": true,
      "inputs": [],
      "name": "system",
      "outputs": [
        {
          "internalType": "contract System",
          "name": "",
          "type": "address"
        }
      ],
      "payable": false,
      "stateMutability": "view",
      "type": "function"
    },
    {
      "constant": false,
      "inputs": [
        {
          "internalType": "address",
          "name": "newOwner",
          "type": "address"
        }
      ],
      "name": "transferOwnership",
      "outputs": [],
      "payable": false,
      "stateMutability": "nonpayable",
      "type": "function"
    },
    {
      "constant": false,
      "inputs": [
        {
          "internalType": "bytes32",
          "name": "_ipfs",
          "type": "bytes32"
        },
        {
          "internalType": "bytes32",
          "name": "_hashedCert",
          "type": "bytes32"
        }
      ],
      "name": "_addCertificate",
      "outputs": [],
      "payable": false,
      "stateMutability": "nonpayable",
      "type": "function"
    },
    {
      "constant": false,
      "inputs": [
        {
          "internalType": "bytes32",
          "name": "_certHash",
          "type": "bytes32"
        }
      ],
      "name": "_deactivateCertificate",
      "outputs": [],
      "payable": false,
      "stateMutability": "nonpayable",
      "type": "function"
    },
    {
      "constant": false,
      "inputs": [
        {
          "internalType": "bytes32",
          "name": "_certHash",
          "type": "bytes32"
        }
      ],
      "name": "_deleteCertificate",
      "outputs": [],
      "payable": false,
      "stateMutability": "nonpayable",
      "type": "function"
    },
    {
      "constant": true,
      "inputs": [
        {
          "internalType": "bytes32",
          "name": "_certHash",
          "type": "bytes32"
        }
      ],
      "name": "viewCertificate",
      "outputs": [
        {
          "internalType": "uint8",
          "name": "",
          "type": "uint8"
        },
        {
          "internalType": "address",
          "name": "",
          "type": "address"
        },
        {
          "internalType": "bytes32",
          "name": "",
          "type": "bytes32"
        },
        {
          "internalType": "bytes32",
          "name": "",
          "type": "bytes32"
        }
      ],
      "payable": false,
      "stateMutability": "view",
      "type": "function"
    },
    {
      "constant": false,
      "inputs": [
        {
          "internalType": "bytes32",
          "name": "_ipfs",
          "type": "bytes32"
        },
        {
          "internalType": "bytes32",
          "name": "_degreeHash",
          "type": "bytes32"
        }
      ],
      "name": "_addDegree",
      "outputs": [],
      "payable": false,
      "stateMutability": "nonpayable",
      "type": "function"
    },
    {
      "constant": false,
      "inputs": [
        {
          "internalType": "bytes32",
          "name": "_degreeHash",
          "type": "bytes32"
        }
      ],
      "name": "_deactivateDegree",
      "outputs": [],
      "payable": false,
      "stateMutability": "nonpayable",
      "type": "function"
    },
    {
      "constant": false,
      "inputs": [
        {
          "internalType": "bytes32",
          "name": "_degreeHash",
          "type": "bytes32"
        }
      ],
      "name": "_deleteDegree",
      "outputs": [],
      "payable": false,
      "stateMutability": "nonpayable",
      "type": "function"
    },
    {
      "constant": true,
      "inputs": [
        {
          "internalType": "bytes32",
          "name": "_degreeHash",
          "type": "bytes32"
        }
      ],
      "name": "viewDegree",
      "outputs": [
        {
          "internalType": "uint8",
          "name": "",
          "type": "uint8"
        },
        {
          "internalType": "address",
          "name": "",
          "type": "address"
        },
        {
          "internalType": "bytes32",
          "name": "",
          "type": "bytes32"
        },
        {
          "internalType": "bytes32",
          "name": "",
          "type": "bytes32"
        }
      ],
      "payable": false,
      "stateMutability": "view",
      "type": "function"
    }
  ],
  "bytecode": "0x608060405234801561001057600080fd5b506040516114c63803806114c68339818101604052602081101561003357600080fd5b8101908080519060200190929190505050336000806101000a81548173ffffffffffffffffffffffffffffffffffffffff021916908373ffffffffffffffffffffffffffffffffffffffff1602179055506000809054906101000a900473ffffffffffffffffffffffffffffffffffffffff1673ffffffffffffffffffffffffffffffffffffffff16600073ffffffffffffffffffffffffffffffffffffffff167f8be0079c531659141344cd1fd0a4f28419497f9722a3daafe3b4186f6b6457e060405160405180910390a333600560006101000a81548173ffffffffffffffffffffffffffffffffffffffff021916908373ffffffffffffffffffffffffffffffffffffffff1602179055506101508161015660201b60201c565b506102ce565b61016461017f60201b60201c565b61016d57600080fd5b61017c816101d660201b60201c565b50565b60008060009054906101000a900473ffffffffffffffffffffffffffffffffffffffff1673ffffffffffffffffffffffffffffffffffffffff163373ffffffffffffffffffffffffffffffffffffffff1614905090565b600073ffffffffffffffffffffffffffffffffffffffff168173ffffffffffffffffffffffffffffffffffffffff16141561021057600080fd5b8073ffffffffffffffffffffffffffffffffffffffff166000809054906101000a900473ffffffffffffffffffffffffffffffffffffffff1673ffffffffffffffffffffffffffffffffffffffff167f8be0079c531659141344cd1fd0a4f28419497f9722a3daafe3b4186f6b6457e060405160405180910390a3806000806101000a81548173ffffffffffffffffffffffffffffffffffffffff021916908373ffffffffffffffffffffffffffffffffffffffff16021790555050565b6111e9806102dd6000396000f3fe608060405234801561001057600080fd5b50600436106100f55760003560e01c80638d44283e11610097578063cb658ea511610066578063cb658ea5146103e4578063d0799dbb1461041c578063f26b67d81461044a578063f2fde38b14610478576100f5565b80638d44283e146103005780638da5cb5b1461032e5780638f32d59b1461037857806395bf75fd1461039a576100f5565b80634b3df3f9116100d35780634b3df3f9146101f35780635819af9d14610235578063715018a61461026d57806380dacb7f14610277576100f5565b806332d23144146100fa5780633ca03fcc1461012857806340f126ba1461016a575b600080fd5b6101266004803603602081101561011057600080fd5b81019080803590602001909291905050506104bc565b005b6101546004803603602081101561013e57600080fd5b8101908080359060200190929190505050610606565b6040518082815260200191505060405180910390f35b6101966004803603602081101561018057600080fd5b8101908080359060200190929190505050610627565b604051808560ff1660ff1681526020018473ffffffffffffffffffffffffffffffffffffffff1673ffffffffffffffffffffffffffffffffffffffff16815260200183815260200182815260200194505050505060405180910390f35b61021f6004803603602081101561020957600080fd5b8101908080359060200190929190505050610695565b6040518082815260200191505060405180910390f35b61026b6004803603604081101561024b57600080fd5b8101908080359060200190929190803590602001909291905050506106b6565b005b6102756108ca565b005b6102a36004803603602081101561028d57600080fd5b810190808035906020019092919050505061099a565b604051808560ff1660ff1681526020018473ffffffffffffffffffffffffffffffffffffffff1673ffffffffffffffffffffffffffffffffffffffff16815260200183815260200182815260200194505050505060405180910390f35b61032c6004803603602081101561031657600080fd5b8101908080359060200190929190505050610a08565b005b610336610b52565b604051808273ffffffffffffffffffffffffffffffffffffffff1673ffffffffffffffffffffffffffffffffffffffff16815260200191505060405180910390f35b610380610b7b565b604051808215151515815260200191505060405180910390f35b6103a2610bd2565b604051808273ffffffffffffffffffffffffffffffffffffffff1673ffffffffffffffffffffffffffffffffffffffff16815260200191505060405180910390f35b61041a600480360360408110156103fa57600080fd5b810190808035906020019092919080359060200190929190505050610bf8565b005b6104486004803603602081101561043257600080fd5b8101908080359060200190929190505050610e0c565b005b6104766004803603602081101561046057600080fd5b8101908080359060200190929190505050610f56565b005b6104ba6004803603602081101561048e57600080fd5b81019080803573ffffffffffffffffffffffffffffffffffffffff16906020019092919050505061109f565b005b600560009054906101000a900473ffffffffffffffffffffffffffffffffffffffff1673ffffffffffffffffffffffffffffffffffffffff1663464ededc6040518163ffffffff1660e01b815260040160206040518083038186803b15801561052457600080fd5b505afa158015610538573d6000803e3d6000fd5b505050506040513d602081101561054e57600080fd5b810190808051906020019092919050505061056857600080fd5b60006004600083815260200190815260200160002060000160006101000a81548160ff021916908360ff1602179055507f654bb471858e300aaa9d6d7d2fe70fab262c0b97a145a5463b6990f3c672f9573382604051808373ffffffffffffffffffffffffffffffffffffffff1673ffffffffffffffffffffffffffffffffffffffff1681526020018281526020019250505060405180910390a150565b6001818154811061061357fe5b906000526020600020016000915090505481565b60008060008060006002600087815260200190815260200160002090508060000160009054906101000a900460ff168160000160019054906101000a900473ffffffffffffffffffffffffffffffffffffffff16826002015483600101549450945094509450509193509193565b600381815481106106a257fe5b906000526020600020016000915090505481565b600560009054906101000a900473ffffffffffffffffffffffffffffffffffffffff1673ffffffffffffffffffffffffffffffffffffffff1663464ededc6040518163ffffffff1660e01b815260040160206040518083038186803b15801561071e57600080fd5b505afa158015610732573d6000803e3d6000fd5b505050506040513d602081101561074857600080fd5b810190808051906020019092919050505061076257600080fd5b60018190806001815401808255809150509060018203906000526020600020016000909192909190915055506040518060800160405280600160ff1681526020013373ffffffffffffffffffffffffffffffffffffffff168152602001838152602001828152506002600083815260200190815260200160002060008201518160000160006101000a81548160ff021916908360ff16021790555060208201518160000160016101000a81548173ffffffffffffffffffffffffffffffffffffffff021916908373ffffffffffffffffffffffffffffffffffffffff16021790555060408201518160010155606082015181600201559050507f127746b97940bd4edb00ab7c322b11ffef3523f557147ec992aa627492e54a573382604051808373ffffffffffffffffffffffffffffffffffffffff1673ffffffffffffffffffffffffffffffffffffffff1681526020018281526020019250505060405180910390a15050565b6108d2610b7b565b6108db57600080fd5b600073ffffffffffffffffffffffffffffffffffffffff166000809054906101000a900473ffffffffffffffffffffffffffffffffffffffff1673ffffffffffffffffffffffffffffffffffffffff167f8be0079c531659141344cd1fd0a4f28419497f9722a3daafe3b4186f6b6457e060405160405180910390a360008060006101000a81548173ffffffffffffffffffffffffffffffffffffffff021916908373ffffffffffffffffffffffffffffffffffffffff160217905550565b60008060008060006004600087815260200190815260200160002090508060000160009054906101000a900460ff168160000160019054906101000a900473ffffffffffffffffffffffffffffffffffffffff16826002015483600101549450945094509450509193509193565b600560009054906101000a900473ffffffffffffffffffffffffffffffffffffffff1673ffffffffffffffffffffffffffffffffffffffff1663464ededc6040518163ffffffff1660e01b815260040160206040518083038186803b158015610a7057600080fd5b505afa158015610a84573d6000803e3d6000fd5b505050506040513d6020811015610a9a57600080fd5b8101908080519060200190929190505050610ab457600080fd5b60006002600083815260200190815260200160002060000160006101000a81548160ff021916908360ff1602179055507fe5f72fe3839dbf6d745b51a8fd03ca64a6f934167e87e9d1e6b08585d252b2623382604051808373ffffffffffffffffffffffffffffffffffffffff1673ffffffffffffffffffffffffffffffffffffffff1681526020018281526020019250505060405180910390a150565b60008060009054906101000a900473ffffffffffffffffffffffffffffffffffffffff16905090565b60008060009054906101000a900473ffffffffffffffffffffffffffffffffffffffff1673ffffffffffffffffffffffffffffffffffffffff163373ffffffffffffffffffffffffffffffffffffffff1614905090565b600560009054906101000a900473ffffffffffffffffffffffffffffffffffffffff1681565b600560009054906101000a900473ffffffffffffffffffffffffffffffffffffffff1673ffffffffffffffffffffffffffffffffffffffff1663464ededc6040518163ffffffff1660e01b815260040160206040518083038186803b158015610c6057600080fd5b505afa158015610c74573d6000803e3d6000fd5b505050506040513d6020811015610c8a57600080fd5b8101908080519060200190929190505050610ca457600080fd5b60038190806001815401808255809150509060018203906000526020600020016000909192909190915055506040518060800160405280600160ff1681526020013373ffffffffffffffffffffffffffffffffffffffff168152602001838152602001828152506004600083815260200190815260200160002060008201518160000160006101000a81548160ff021916908360ff16021790555060208201518160000160016101000a81548173ffffffffffffffffffffffffffffffffffffffff021916908373ffffffffffffffffffffffffffffffffffffffff16021790555060408201518160010155606082015181600201559050507f27eaa8fc7084e9cdc5cd652fbbca0bdb48613dba709d9dee5e54bf78c7872bb73382604051808373ffffffffffffffffffffffffffffffffffffffff1673ffffffffffffffffffffffffffffffffffffffff1681526020018281526020019250505060405180910390a15050565b600560009054906101000a900473ffffffffffffffffffffffffffffffffffffffff1673ffffffffffffffffffffffffffffffffffffffff1663464ededc6040518163ffffffff1660e01b815260040160206040518083038186803b158015610e7457600080fd5b505afa158015610e88573d6000803e3d6000fd5b505050506040513d6020811015610e9e57600080fd5b8101908080519060200190929190505050610eb857600080fd5b60026004600083815260200190815260200160002060000160006101000a81548160ff021916908360ff1602179055507f4ea55b0a3a20bbcba958f9538b47115ecb6f3f652ab13bb6cb754b5db2a646093382604051808373ffffffffffffffffffffffffffffffffffffffff1673ffffffffffffffffffffffffffffffffffffffff1681526020018281526020019250505060405180910390a150565b600560009054906101000a900473ffffffffffffffffffffffffffffffffffffffff1673ffffffffffffffffffffffffffffffffffffffff1663464ededc6040518163ffffffff1660e01b815260040160206040518083038186803b158015610fbe57600080fd5b505afa158015610fd2573d6000803e3d6000fd5b505050506040513d6020811015610fe857600080fd5b810190808051906020019092919050505061100257600080fd5b600280600083815260200190815260200160002060000160006101000a81548160ff021916908360ff1602179055507fd9cd665e521a2e5e6b987699fdb81a46424c8bc8ec288a0687a7b76e3b4b7e503382604051808373ffffffffffffffffffffffffffffffffffffffff1673ffffffffffffffffffffffffffffffffffffffff1681526020018281526020019250505060405180910390a150565b6110a7610b7b565b6110b057600080fd5b6110b9816110bc565b50565b600073ffffffffffffffffffffffffffffffffffffffff168173ffffffffffffffffffffffffffffffffffffffff1614156110f657600080fd5b8073ffffffffffffffffffffffffffffffffffffffff166000809054906101000a900473ffffffffffffffffffffffffffffffffffffffff1673ffffffffffffffffffffffffffffffffffffffff167f8be0079c531659141344cd1fd0a4f28419497f9722a3daafe3b4186f6b6457e060405160405180910390a3806000806101000a81548173ffffffffffffffffffffffffffffffffffffffff021916908373ffffffffffffffffffffffffffffffffffffffff1602179055505056fea265627a7a72315820ddbd1a2e4c7d883dbb895a6c1a2741059d44f70a486ff100c1ed6e683bafa53a64736f6c63430005100032",
  "source": "pragma solidity >=0.4.22 <0.9.0;  \r\n\r\ncontract Ownable {\r\n  address private _owner;\r\n\r\n  event OwnershipTransferred(\r\n    address indexed previousOwner,\r\n    address indexed newOwner\r\n  );\r\n\r\n  /**\r\n  * @dev The Ownable constructor sets the original `owner` of the contract to the sender\r\n  * account.\r\n  */\r\n  constructor() public {\r\n    _owner = msg.sender;\r\n    emit OwnershipTransferred(address(0), _owner);\r\n  }\r\n\r\n  /**\r\n  * @return the address of the owner.\r\n  */\r\n  function owner() public view returns(address) {\r\n    return _owner;\r\n  }\r\n\r\n  /**\r\n  * @dev Throws if called by any account other than the owner.\r\n  */\r\n  modifier onlyOwner() {\r\n    require(isOwner());\r\n    _;\r\n  }\r\n\r\n  /**\r\n  * @return true if `msg.sender` is the owner of the contract.\r\n  */\r\n  function isOwner() public view returns(bool) {\r\n    return msg.sender == _owner;\r\n  }\r\n\r\n  /**\r\n  * @dev Allows the current owner to relinquish control of the contract.\r\n  * @notice Renouncing to ownership will leave the contract without an owner.\r\n  * It will not be possible to call the functions with the `onlyOwner`\r\n  * modifier anymore.\r\n  */\r\n  function renounceOwnership() public onlyOwner {\r\n    emit OwnershipTransferred(_owner, address(0));\r\n    _owner = address(0);\r\n  }\r\n\r\n  /**\r\n  * @dev Allows the current owner to transfer control of the contract to a newOwner.\r\n  * @param newOwner The address to transfer ownership to.\r\n  */\r\n  function transferOwnership(address newOwner) public onlyOwner {\r\n    _transferOwnership(newOwner);\r\n  }\r\n\r\n  /**\r\n  * @dev Transfers control of the contract to a newOwner.\r\n  * @param newOwner The address to transfer ownership to.\r\n  */\r\n  function _transferOwnership(address newOwner) internal {\r\n    require(newOwner != address(0));\r\n    emit OwnershipTransferred(_owner, newOwner);\r\n    _owner = newOwner;\r\n  }\r\n}\r\n\r\ncontract System is Ownable{ \r\n  address[] public schoolAddresses;\r\n  address[] public studentAddresses;\r\n  mapping (address => address) public mapSchool; // school address => contract\r\n  mapping (address => address) public mapStudent; // student address => contract\r\n\r\n  mapping (string => address) public emailToAddress; // student email to get student contract address\r\n  \r\n  event addedSchool(address newSchool, address newContract);\r\n  event addedStudent(address newStudent, address newContract);\r\n  event changedSchoolContract(address _schoolAddr,address _contractAddr);\r\n  event changedStudentContract(address _studentAddr,address _contractAddr);\r\n  \r\n  constructor() public{\r\n    transferOwnership(address(0x3E5C773519D38EB7996A5cADFDb8C8256889cB79));\r\n  } \r\n  modifier onlySchool() {\r\n    require(isSchool());\r\n    _;\r\n  }\r\n  function isSchool() public view returns(bool) {\r\n    for (uint i=0; i<= schoolAddresses.length; i++){\r\n      if (msg.sender == schoolAddresses[i]) return true;\r\n    }\r\n    return false;\r\n  }\r\n  function _isSchool(address schoolAddr) internal view returns(bool) {\r\n    for (uint i=0; i<= schoolAddresses.length; i++){\r\n      if (schoolAddr == schoolAddresses[i]) return true;\r\n    }\r\n    return false;\r\n  }\r\n  function _isStudent(address studentAddr) internal view returns(bool) {\r\n    for (uint i=0; i<= studentAddresses.length; i++){\r\n      if (studentAddr == studentAddresses[i]) return true;\r\n    }\r\n    return false;\r\n  }\r\n\r\n  function addSchool( string memory name, string memory addressPlace, string memory phoneNumber, string memory email, string memory fax, string memory website, address schoolAddr)public onlyOwner(){\r\n    schoolAddresses.push(schoolAddr);\r\n    School schoolContract = new School(name, addressPlace, phoneNumber, email, fax, website, schoolAddr);\r\n    mapSchool[schoolAddr] = address(schoolContract);\r\n    emit addedSchool(schoolAddr, address(schoolContract));\r\n  }\r\n  function changeSchoolContract(address _schoolAddr, address _contractAddr) public onlyOwner(){\r\n    for(uint i = 0 ; i< schoolAddresses.length; i++){\r\n      if (schoolAddresses[i] == _schoolAddr){\r\n        mapSchool[_schoolAddr] = _contractAddr;\r\n        emit changedSchoolContract(_schoolAddr, _contractAddr);\r\n        return;\r\n      }\r\n    }\r\n  }\r\n  function getSchoolContractAddr(address _schoolAddr) public view returns(address){\r\n    if(mapSchool[_schoolAddr] == address(0)){\r\n      return address(0);\r\n    }\r\n    return mapSchool[_schoolAddr];\r\n  }\r\n  // STUDENT CONTRACT -----------------------------------\r\n  function addStudent(address _studentAddr, string memory email) public onlyOwner(){\r\n    // check if studentAddress is exist\r\n    for(uint i = 0 ; i< studentAddresses.length; i++){\r\n      if (studentAddresses[i] == _studentAddr){\r\n        return;\r\n      }\r\n    }\r\n    // push student address to array\r\n    studentAddresses.push(_studentAddr);\r\n    Student stuContract;\r\n    if (emailToAddress[email] != address(0)) { // if Email not in map\r\n      stuContract = Student(emailToAddress[email]);\r\n      // trasfer contract to student\r\n      stuContract.transferOwnership(_studentAddr);\r\n    }else{\r\n      // push email to map\r\n      emailToAddress[email] = _studentAddr;\r\n      // deployed new contract for student\r\n      stuContract = new Student(_studentAddr);\r\n      mapStudent[_studentAddr] = address(stuContract);\r\n    } \r\n    emit addedStudent(_studentAddr, address(stuContract));\r\n  }\r\n  function changeStudentContract(address _studentAddr, address _contractAddr) public onlyOwner(){\r\n    for (uint i = 0 ; i< studentAddresses.length; i++){\r\n      if (studentAddresses[i] == _studentAddr) {\r\n        mapStudent[_studentAddr] = _contractAddr;\r\n        emit changedStudentContract(_studentAddr, _contractAddr);\r\n        break;\r\n      }\r\n    }\r\n  }\r\n  function getStudentContractAddr(address stuAddr) public view returns(address) {\r\n    return (mapStudent[stuAddr] != address(0))? mapStudent[stuAddr] : address(0);\r\n  }\r\n} \r\n\r\ncontract School is Ownable{\r\n  string public name;\r\n  string public addressPlace;\r\n  string public phoneNumber;\r\n  string public email;\r\n  string public fax; \r\n  string public website;\r\n  \r\n  System public system;\r\n\r\n  constructor(\r\n    string memory _name,\r\n    string memory _addressPlace,\r\n    string memory _phoneNumber,\r\n    string memory _email,\r\n    string memory _fax,\r\n    string memory _website,\r\n    address schAddr\r\n  ) public {\r\n    system = System(msg.sender);\r\n    name = _name;\r\n    addressPlace = _addressPlace;\r\n    phoneNumber = _phoneNumber;\r\n    email = _email;\r\n    fax = _fax;\r\n    website = _website;\r\n    transferOwnership(schAddr);\r\n  }\r\n  function getSchool() public view{\r\n    name;\r\n    addressPlace;\r\n    phoneNumber;\r\n    email;\r\n    fax; \r\n    website;\r\n  }\r\n  function setSystem(address sysAddr) public {\r\n      system = System(sysAddr);\r\n  }\r\n  function addCertificate (address stuAddr, bytes32 ipfs, bytes32 certHash ) public onlyOwner(){\r\n    address stuContractAddress = system.getStudentContractAddr(stuAddr);\r\n    if(stuContractAddress != address(0)) {\r\n      Student stuContract = Student(stuContractAddress);\r\n      stuContract._addCertificate(ipfs, certHash);\r\n    }\r\n  }\r\n  function deactivateCertificate(address stuAddr, bytes32 certHash) public onlyOwner(){\r\n    address stuContractAddress = system.getStudentContractAddr(stuAddr);\r\n    if(stuContractAddress != address(0)) {\r\n      Student stuContract = Student(stuContractAddress);\r\n      stuContract._deactivateCertificate(certHash);\r\n    }\r\n  }\r\n  function deleteCertificate(address stuAddr, bytes32 certHash) public onlyOwner(){\r\n    address stuContractAddress = system.getStudentContractAddr(stuAddr);\r\n    if(stuContractAddress != address(0)) {\r\n      Student stuContract = Student(stuContractAddress);\r\n      stuContract._deleteCertificate(certHash);\r\n    }\r\n  }\r\n}\r\n\r\ncontract Student is Ownable{\r\n  struct Certificate {\r\n    uint8 state;\r\n    address schoolAddress;\r\n    bytes32 ipfs;\r\n    bytes32 certHash;\r\n  }\r\n  struct Degree {\r\n    uint8 state;\r\n    address schoolAddress;\r\n    bytes32 ipfs;\r\n    bytes32 degreeHash;\r\n  }\r\n  \r\n  bytes32[] public certificateList; // mang hashed_cert\r\n  mapping (bytes32 => Certificate) mapCertificates; // hashed_cert => Certificate\r\n  bytes32[] public degreeList; // mang hashed_cert\r\n  mapping (bytes32 => Degree) mapDegrees; // hashed_cert => Certificate\r\n  System public system;\r\n\r\n  event addCertificate(address _address, bytes32 _certHash);\r\n  event deactivateCertificate(address _address, bytes32 _certHash);\r\n  event deleteCertificate(address _address, bytes32 _certHash);\r\n\r\n  event addDegree(address _address, bytes32 _certHash);\r\n  event deactivateDegree(address _address, bytes32 _certHash);\r\n  event deleteDegree(address _address, bytes32 _certHash);\r\n\r\n  constructor(address stuAddr) public {\r\n    system = System(msg.sender);\r\n    transferOwnership(stuAddr);\r\n  }\r\n  \r\n  modifier onlySchool() {\r\n    require(system.isSchool());\r\n    _;\r\n  }\r\n\r\n  function _addCertificate(bytes32 _ipfs,bytes32 _hashedCert) external onlySchool(){\r\n    certificateList.push(_hashedCert);\r\n    mapCertificates[_hashedCert] = Certificate(uint8(1), msg.sender, _ipfs, _hashedCert);\r\n    emit addCertificate(msg.sender, _hashedCert);\r\n  }\r\n  function _deactivateCertificate(bytes32 _certHash) external onlySchool(){\r\n    mapCertificates[_certHash].state = uint8(0);\r\n    emit deactivateCertificate(msg.sender, _certHash);\r\n  }\r\n  function _deleteCertificate(bytes32 _certHash) external onlySchool(){\r\n    mapCertificates[_certHash].state = uint8(2);\r\n    emit deleteCertificate(msg.sender, _certHash);\r\n  }\r\n  function viewCertificate(bytes32 _certHash) public view returns(uint8, address, bytes32, bytes32){\r\n    Certificate storage cert = mapCertificates[_certHash];\r\n    return (cert.state, cert.schoolAddress, cert.certHash, cert.ipfs);\r\n  }\r\n\r\n  function _addDegree(bytes32 _ipfs,bytes32 _degreeHash) external onlySchool(){\r\n    degreeList.push(_degreeHash);\r\n    mapDegrees[_degreeHash] = Degree(uint8(1), msg.sender, _ipfs, _degreeHash);\r\n    emit addDegree(msg.sender, _degreeHash);\r\n  }\r\n  function _deactivateDegree(bytes32 _degreeHash) external onlySchool(){\r\n    mapDegrees[_degreeHash].state = uint8(0);\r\n    emit deactivateDegree(msg.sender, _degreeHash);\r\n  }\r\n  function _deleteDegree(bytes32 _degreeHash) external onlySchool(){\r\n    mapDegrees[_degreeHash].state = uint8(2);\r\n    emit deleteDegree(msg.sender, _degreeHash);\r\n  }\r\n  function viewDegree(bytes32 _degreeHash) public view returns(uint8, address, bytes32, bytes32){\r\n    Degree storage degree = mapDegrees[_degreeHash];\r\n    return (degree.state, degree.schoolAddress, degree.degreeHash, degree.ipfs);\r\n  }\r\n  \r\n}",
  "sourcePath": "D:\\labs\\project_QLVBCC\\src\\contracts\\myContract.sol",
  "compiler": {
    "name": "solc",
    "version": "0.5.16+commit.9c3226ce.Emscripten.clang"
  },
  "schemaVersion": "3.4.3",
  "updatedAt": "2021-11-06T11:02:17.751Z",
  "networkType": "ethereum",
  "devdoc": {
    "methods": {
      "isOwner()": {
        "return": "true if `msg.sender` is the owner of the contract."
      },
      "owner()": {
        "return": "the address of the owner."
      },
      "renounceOwnership()": {
        "details": "Allows the current owner to relinquish control of the contract."
      },
      "transferOwnership(address)": {
        "details": "Allows the current owner to transfer control of the contract to a newOwner.",
        "params": {
          "newOwner": "The address to transfer ownership to."
        }
      }
    }
  },
  "userdoc": {
    "methods": {
      "renounceOwnership()": {
        "notice": "Renouncing to ownership will leave the contract without an owner. It will not be possible to call the functions with the `onlyOwner` modifier anymore."
      }
    }
  }
}