{
  "contractName": "Student",
  "abi": [
    {
      "inputs": [
        {
          "internalType": "address",
          "name": "stuAddr",
          "type": "address"
        },
        {
          "internalType": "address",
          "name": "_sysCA",
          "type": "address"
        }
      ],
      "payable": false,
      "stateMutability": "nonpayable",
      "type": "constructor"
    },
    {
      "anonymous": false,
      "inputs": [
        {
          "indexed": true,
          "internalType": "address",
          "name": "previousOwner",
          "type": "address"
        },
        {
          "indexed": true,
          "internalType": "address",
          "name": "newOwner",
          "type": "address"
        }
      ],
      "name": "OwnershipTransferred",
      "type": "event"
    },
    {
      "anonymous": false,
      "inputs": [
        {
          "indexed": false,
          "internalType": "address",
          "name": "_address",
          "type": "address"
        },
        {
          "indexed": false,
          "internalType": "bytes32",
          "name": "_certHash",
          "type": "bytes32"
        }
      ],
      "name": "addedCertificate",
      "type": "event"
    },
    {
      "anonymous": false,
      "inputs": [
        {
          "indexed": false,
          "internalType": "address",
          "name": "_address",
          "type": "address"
        },
        {
          "indexed": false,
          "internalType": "bytes32",
          "name": "_certHash",
          "type": "bytes32"
        }
      ],
      "name": "deactivatedCertificate",
      "type": "event"
    },
    {
      "anonymous": false,
      "inputs": [
        {
          "indexed": false,
          "internalType": "address",
          "name": "_address",
          "type": "address"
        },
        {
          "indexed": false,
          "internalType": "bytes32",
          "name": "_certHash",
          "type": "bytes32"
        }
      ],
      "name": "deletedCertificate",
      "type": "event"
    },
    {
      "constant": true,
      "inputs": [
        {
          "internalType": "uint256",
          "name": "",
          "type": "uint256"
        }
      ],
      "name": "certificateList",
      "outputs": [
        {
          "internalType": "bytes32",
          "name": "",
          "type": "bytes32"
        }
      ],
      "payable": false,
      "stateMutability": "view",
      "type": "function"
    },
    {
      "constant": true,
      "inputs": [],
      "name": "isOwner",
      "outputs": [
        {
          "internalType": "bool",
          "name": "",
          "type": "bool"
        }
      ],
      "payable": false,
      "stateMutability": "view",
      "type": "function"
    },
    {
      "constant": true,
      "inputs": [],
      "name": "owner",
      "outputs": [
        {
          "internalType": "address",
          "name": "",
          "type": "address"
        }
      ],
      "payable": false,
      "stateMutability": "view",
      "type": "function"
    },
    {
      "constant": false,
      "inputs": [],
      "name": "renounceOwnership",
      "outputs": [],
      "payable": false,
      "stateMutability": "nonpayable",
      "type": "function"
    },
    {
      "constant": true,
      "inputs": [],
      "name": "system",
      "outputs": [
        {
          "internalType": "contract System",
          "name": "",
          "type": "address"
        }
      ],
      "payable": false,
      "stateMutability": "view",
      "type": "function"
    },
    {
      "constant": false,
      "inputs": [
        {
          "internalType": "address",
          "name": "newOwner",
          "type": "address"
        }
      ],
      "name": "transferOwnership",
      "outputs": [],
      "payable": false,
      "stateMutability": "nonpayable",
      "type": "function"
    },
    {
      "constant": true,
      "inputs": [],
      "name": "isSchool",
      "outputs": [
        {
          "internalType": "bool",
          "name": "",
          "type": "bool"
        }
      ],
      "payable": false,
      "stateMutability": "view",
      "type": "function"
    },
    {
      "constant": false,
      "inputs": [
        {
          "internalType": "bytes32",
          "name": "_hashedCert",
          "type": "bytes32"
        }
      ],
      "name": "addCertificate",
      "outputs": [],
      "payable": false,
      "stateMutability": "nonpayable",
      "type": "function"
    },
    {
      "constant": false,
      "inputs": [
        {
          "internalType": "bytes32",
          "name": "_certHash",
          "type": "bytes32"
        }
      ],
      "name": "deactivateCertificate",
      "outputs": [],
      "payable": false,
      "stateMutability": "nonpayable",
      "type": "function"
    },
    {
      "constant": false,
      "inputs": [
        {
          "internalType": "bytes32",
          "name": "_certHash",
          "type": "bytes32"
        }
      ],
      "name": "deleteCertificate",
      "outputs": [],
      "payable": false,
      "stateMutability": "nonpayable",
      "type": "function"
    },
    {
      "constant": true,
      "inputs": [
        {
          "internalType": "bytes32",
          "name": "_certHash",
          "type": "bytes32"
        }
      ],
      "name": "viewCertificate",
      "outputs": [
        {
          "internalType": "uint8",
          "name": "",
          "type": "uint8"
        },
        {
          "internalType": "address",
          "name": "",
          "type": "address"
        },
        {
          "internalType": "bytes32",
          "name": "",
          "type": "bytes32"
        }
      ],
      "payable": false,
      "stateMutability": "view",
      "type": "function"
    }
  ],
  "bytecode": "0x608060405234801561001057600080fd5b506040516110533803806110538339818101604052604081101561003357600080fd5b810190808051906020019092919080519060200190929190505050336000806101000a81548173ffffffffffffffffffffffffffffffffffffffff021916908373ffffffffffffffffffffffffffffffffffffffff1602179055506000809054906101000a900473ffffffffffffffffffffffffffffffffffffffff1673ffffffffffffffffffffffffffffffffffffffff16600073ffffffffffffffffffffffffffffffffffffffff167f8be0079c531659141344cd1fd0a4f28419497f9722a3daafe3b4186f6b6457e060405160405180910390a380600360006101000a81548173ffffffffffffffffffffffffffffffffffffffff021916908373ffffffffffffffffffffffffffffffffffffffff16021790555061015a8261016160201b60201c565b50506102d9565b61016f61018a60201b60201c565b61017857600080fd5b610187816101e160201b60201c565b50565b60008060009054906101000a900473ffffffffffffffffffffffffffffffffffffffff1673ffffffffffffffffffffffffffffffffffffffff163373ffffffffffffffffffffffffffffffffffffffff1614905090565b600073ffffffffffffffffffffffffffffffffffffffff168173ffffffffffffffffffffffffffffffffffffffff16141561021b57600080fd5b8073ffffffffffffffffffffffffffffffffffffffff166000809054906101000a900473ffffffffffffffffffffffffffffffffffffffff1673ffffffffffffffffffffffffffffffffffffffff167f8be0079c531659141344cd1fd0a4f28419497f9722a3daafe3b4186f6b6457e060405160405180910390a3806000806101000a81548173ffffffffffffffffffffffffffffffffffffffff021916908373ffffffffffffffffffffffffffffffffffffffff16021790555050565b610d6b806102e86000396000f3fe608060405234801561001057600080fd5b50600436106100a95760003560e01c8063750f9f8711610071578063750f9f87146101cc57806378097d18146101fa5780638da5cb5b146102285780638f32d59b1461027257806395bf75fd14610294578063f2fde38b146102de576100a9565b80633ca03fcc146100ae57806340f126ba146100f0578063464ededc146101725780634b5a7c2314610194578063715018a6146101c2575b600080fd5b6100da600480360360208110156100c457600080fd5b8101908080359060200190929190505050610322565b6040518082815260200191505060405180910390f35b61011c6004803603602081101561010657600080fd5b8101908080359060200190929190505050610343565b604051808460ff1660ff1681526020018373ffffffffffffffffffffffffffffffffffffffff1673ffffffffffffffffffffffffffffffffffffffff168152602001828152602001935050505060405180910390f35b61017a6103a8565b604051808215151515815260200191505060405180910390f35b6101c0600480360360208110156101aa57600080fd5b8101908080359060200190929190505050610494565b005b6101ca610683565b005b6101f8600480360360208110156101e257600080fd5b8101908080359060200190929190505050610753565b005b6102266004803603602081101561021057600080fd5b810190808035906020019092919050505061098d565b005b610230610b7b565b604051808273ffffffffffffffffffffffffffffffffffffffff1673ffffffffffffffffffffffffffffffffffffffff16815260200191505060405180910390f35b61027a610ba4565b604051808215151515815260200191505060405180910390f35b61029c610bfb565b604051808273ffffffffffffffffffffffffffffffffffffffff1673ffffffffffffffffffffffffffffffffffffffff16815260200191505060405180910390f35b610320600480360360208110156102f457600080fd5b81019080803573ffffffffffffffffffffffffffffffffffffffff169060200190929190505050610c21565b005b6001818154811061032f57fe5b906000526020600020016000915090505481565b6000806000806002600086815260200190815260200160002090508060000160009054906101000a900460ff168160000160019054906101000a900473ffffffffffffffffffffffffffffffffffffffff168260010154935093509350509193909250565b6000600360009054906101000a900473ffffffffffffffffffffffffffffffffffffffff1673ffffffffffffffffffffffffffffffffffffffff16637368a6b1336040518263ffffffff1660e01b8152600401808273ffffffffffffffffffffffffffffffffffffffff1673ffffffffffffffffffffffffffffffffffffffff16815260200191505060206040518083038186803b15801561044957600080fd5b505afa15801561045d573d6000803e3d6000fd5b505050506040513d602081101561047357600080fd5b810190808051906020019092919050505061048d57600080fd5b6001905090565b600360009054906101000a900473ffffffffffffffffffffffffffffffffffffffff1673ffffffffffffffffffffffffffffffffffffffff16637368a6b1336040518263ffffffff1660e01b8152600401808273ffffffffffffffffffffffffffffffffffffffff1673ffffffffffffffffffffffffffffffffffffffff16815260200191505060206040518083038186803b15801561053357600080fd5b505afa158015610547573d6000803e3d6000fd5b505050506040513d602081101561055d57600080fd5b810190808051906020019092919050505061057757600080fd5b6002600082815260200190815260200160002060000160019054906101000a900473ffffffffffffffffffffffffffffffffffffffff1673ffffffffffffffffffffffffffffffffffffffff163373ffffffffffffffffffffffffffffffffffffffff16146105e557600080fd5b60006002600083815260200190815260200160002060000160006101000a81548160ff021916908360ff1602179055507f388963cd45808b7a13172f13239164b621cb586f2505cab4e4ad8e2b4d6512643382604051808373ffffffffffffffffffffffffffffffffffffffff1673ffffffffffffffffffffffffffffffffffffffff1681526020018281526020019250505060405180910390a150565b61068b610ba4565b61069457600080fd5b600073ffffffffffffffffffffffffffffffffffffffff166000809054906101000a900473ffffffffffffffffffffffffffffffffffffffff1673ffffffffffffffffffffffffffffffffffffffff167f8be0079c531659141344cd1fd0a4f28419497f9722a3daafe3b4186f6b6457e060405160405180910390a360008060006101000a81548173ffffffffffffffffffffffffffffffffffffffff021916908373ffffffffffffffffffffffffffffffffffffffff160217905550565b600360009054906101000a900473ffffffffffffffffffffffffffffffffffffffff1673ffffffffffffffffffffffffffffffffffffffff16637368a6b1336040518263ffffffff1660e01b8152600401808273ffffffffffffffffffffffffffffffffffffffff1673ffffffffffffffffffffffffffffffffffffffff16815260200191505060206040518083038186803b1580156107f257600080fd5b505afa158015610806573d6000803e3d6000fd5b505050506040513d602081101561081c57600080fd5b810190808051906020019092919050505061083657600080fd5b60018190806001815401808255809150509060018203906000526020600020016000909192909190915055506040518060600160405280600160ff1681526020013373ffffffffffffffffffffffffffffffffffffffff168152602001828152506002600083815260200190815260200160002060008201518160000160006101000a81548160ff021916908360ff16021790555060208201518160000160016101000a81548173ffffffffffffffffffffffffffffffffffffffff021916908373ffffffffffffffffffffffffffffffffffffffff160217905550604082015181600101559050507fba2f7e26c1b0832695054c392bd0d58fa7f4c0b4e69feaa733c9a28dffe5e9963382604051808373ffffffffffffffffffffffffffffffffffffffff1673ffffffffffffffffffffffffffffffffffffffff1681526020018281526020019250505060405180910390a150565b600360009054906101000a900473ffffffffffffffffffffffffffffffffffffffff1673ffffffffffffffffffffffffffffffffffffffff16637368a6b1336040518263ffffffff1660e01b8152600401808273ffffffffffffffffffffffffffffffffffffffff1673ffffffffffffffffffffffffffffffffffffffff16815260200191505060206040518083038186803b158015610a2c57600080fd5b505afa158015610a40573d6000803e3d6000fd5b505050506040513d6020811015610a5657600080fd5b8101908080519060200190929190505050610a7057600080fd5b6002600082815260200190815260200160002060000160019054906101000a900473ffffffffffffffffffffffffffffffffffffffff1673ffffffffffffffffffffffffffffffffffffffff163373ffffffffffffffffffffffffffffffffffffffff1614610ade57600080fd5b600280600083815260200190815260200160002060000160006101000a81548160ff021916908360ff1602179055507fbdb2a1b69e969bce1bb3c51f0ebd56f5bde7ffe485392885385726ea27d178783382604051808373ffffffffffffffffffffffffffffffffffffffff1673ffffffffffffffffffffffffffffffffffffffff1681526020018281526020019250505060405180910390a150565b60008060009054906101000a900473ffffffffffffffffffffffffffffffffffffffff16905090565b60008060009054906101000a900473ffffffffffffffffffffffffffffffffffffffff1673ffffffffffffffffffffffffffffffffffffffff163373ffffffffffffffffffffffffffffffffffffffff1614905090565b600360009054906101000a900473ffffffffffffffffffffffffffffffffffffffff1681565b610c29610ba4565b610c3257600080fd5b610c3b81610c3e565b50565b600073ffffffffffffffffffffffffffffffffffffffff168173ffffffffffffffffffffffffffffffffffffffff161415610c7857600080fd5b8073ffffffffffffffffffffffffffffffffffffffff166000809054906101000a900473ffffffffffffffffffffffffffffffffffffffff1673ffffffffffffffffffffffffffffffffffffffff167f8be0079c531659141344cd1fd0a4f28419497f9722a3daafe3b4186f6b6457e060405160405180910390a3806000806101000a81548173ffffffffffffffffffffffffffffffffffffffff021916908373ffffffffffffffffffffffffffffffffffffffff1602179055505056fea265627a7a72315820a1ce4ec81458ec3724dde1bc2cea05487c2c366b009f76998d82002810a1805f64736f6c63430005100032",
  "source": "pragma solidity >=0.4.22 <0.9.0;  \r\n\r\ncontract Ownable {\r\n  address private _owner;\r\n\r\n  event OwnershipTransferred(\r\n    address indexed previousOwner,\r\n    address indexed newOwner\r\n  );\r\n\r\n  /**\r\n  * @dev The Ownable constructor sets the original `owner` of the contract to the sender\r\n  * account.\r\n  */\r\n  constructor() public {\r\n    _owner = msg.sender;\r\n    emit OwnershipTransferred(address(0), _owner);\r\n  }\r\n\r\n  /**\r\n  * @return the address of the owner.\r\n  */\r\n  function owner() public view returns(address) {\r\n    return _owner;\r\n  }\r\n\r\n  /**\r\n  * @dev Throws if called by any account other than the owner.\r\n  */\r\n  modifier onlyOwner() {\r\n    require(isOwner());\r\n    _;\r\n  }\r\n\r\n  /**\r\n  * @return true if `msg.sender` is the owner of the contract.\r\n  */\r\n  function isOwner() public view returns(bool) {\r\n    return msg.sender == _owner;\r\n  }\r\n\r\n  /**\r\n  * @dev Allows the current owner to relinquish control of the contract.\r\n  * @notice Renouncing to ownership will leave the contract without an owner.\r\n  * It will not be possible to call the functions with the `onlyOwner`\r\n  * modifier anymore.\r\n  */\r\n  function renounceOwnership() public onlyOwner {\r\n    emit OwnershipTransferred(_owner, address(0));\r\n    _owner = address(0);\r\n  }\r\n\r\n  /**\r\n  * @dev Allows the current owner to transfer control of the contract to a newOwner.\r\n  * @param newOwner The address to transfer ownership to.\r\n  */\r\n  function transferOwnership(address newOwner) public onlyOwner {\r\n    _transferOwnership(newOwner);\r\n  }\r\n\r\n  /**\r\n  * @dev Transfers control of the contract to a newOwner.\r\n  * @param newOwner The address to transfer ownership to.\r\n  */\r\n  function _transferOwnership(address newOwner) internal {\r\n    require(newOwner != address(0));\r\n    emit OwnershipTransferred(_owner, newOwner);\r\n    _owner = newOwner;\r\n  }\r\n}\r\n\r\n\r\ncontract System is Ownable{ \r\n  address[] public schoolAddresses;\r\n  address[] public studentAddresses;\r\n  mapping (address => address) public mapSchool; // school address => contract\r\n  mapping (address => address) public mapStudent; // student address => contract\r\n\r\n  mapping (string => address) public idnumberToContract;\r\n\r\n  event addedSchool(address newSchool, address newContract);\r\n  event changedSchoolContract(address _schoolAddr,address _contractAddr);\r\n  \r\n  event addedStudent(address newStudent, address newContract);\r\n  event changedStudentContract(address _studentAddr,address _contractAddr);\r\n\r\n  event createdTempContractbyIDNumber(string _idnumber);\r\n  \r\n  constructor() public{\r\n    transferOwnership(address(0x3E5C773519D38EB7996A5cADFDb8C8256889cB79));\r\n  } \r\n  modifier onlySchool() {\r\n    require(isSchool());\r\n    _;\r\n  }\r\n  function isSchool() public view returns(bool) {\r\n    if (mapSchool[msg.sender] != address(0)) return true;\r\n    return false;\r\n  }\r\n  function _isSchool(address schoolAddr) public view returns(bool) {\r\n    for (uint i=0; i< schoolAddresses.length; i++){\r\n      if (schoolAddr == schoolAddresses[i]) return true;\r\n    }\r\n    return false;\r\n  }\r\n  function _isStudent(address studentAddr) internal view returns(bool) {\r\n    for (uint i=0; i< studentAddresses.length; i++){\r\n      if (studentAddr == studentAddresses[i]) return true;\r\n    }\r\n    return false;\r\n  }\r\n  function addSchool( string memory name, string memory addressPlace, string memory phoneNumber, string memory idnumber, string memory fax, string memory website, address schoolAddr)public onlyOwner(){\r\n    require(!(_isSchool(schoolAddr)));\r\n    schoolAddresses.push(schoolAddr);\r\n    School schoolContract = new School(name, addressPlace, phoneNumber, idnumber, fax, website, schoolAddr);\r\n    mapSchool[schoolAddr] = address(schoolContract);\r\n    emit addedSchool(schoolAddr, address(schoolContract));\r\n  }\r\n  function changeSchoolContract(address _schoolAddr, address _contractAddr) public onlyOwner(){\r\n    for(uint i = 0 ; i< schoolAddresses.length; i++){\r\n      if (schoolAddresses[i] == _schoolAddr){\r\n        mapSchool[_schoolAddr] = _contractAddr;\r\n        emit changedSchoolContract(_schoolAddr, _contractAddr);\r\n        return;\r\n      }\r\n    }\r\n  }\r\n  function getSchoolContractAddr(address _schoolAddr) public view returns(address){\r\n    if(mapSchool[_schoolAddr] == address(0)){\r\n      return address(0);\r\n    }\r\n    return mapSchool[_schoolAddr];\r\n  }\r\n  // STUDENT CONTRACT -----------------------------------\r\n  function addStudent(address _studentAddr, string memory _idnumber, address _stuCA) public onlyOwner(){\r\n    // check if studentAddress is exist\r\n    require (idnumberToContract[_idnumber] == address(0));\r\n    studentAddresses.push(_studentAddr);\r\n    // push student address to array\r\n    idnumberToContract[_idnumber] = _stuCA;\r\n    mapStudent[_studentAddr] = _stuCA;\r\n    emit addedStudent(_studentAddr, _stuCA);\r\n  }\r\n  function changeStudentContract(address _studentAddr, address _contractAddr) public onlyOwner(){\r\n    for (uint i = 0 ; i< studentAddresses.length; i++){\r\n      if (studentAddresses[i] == _studentAddr) {\r\n        mapStudent[_studentAddr] = _contractAddr;\r\n        emit changedStudentContract(_studentAddr, _contractAddr);\r\n        break;\r\n      }\r\n    }\r\n  }\r\n  function getStudentContractAddr(address stuAddr) public view returns(address) {\r\n    return (mapStudent[stuAddr] != address(0))? mapStudent[stuAddr] : address(0);\r\n  }\r\n  function createTempContractbyIDNumber (string memory _idnumber, address _sysCA) public onlyOwner(){\r\n    require(idnumberToContract[_idnumber] == address(0));\r\n    Student stuC = new Student(msg.sender,_sysCA);\r\n    idnumberToContract[_idnumber] = address(stuC);\r\n    emit createdTempContractbyIDNumber(_idnumber);\r\n  }\r\n  function getContractbyIDNumber (string memory _idnumber) public view returns(address){\r\n    return idnumberToContract[_idnumber];\r\n  }\r\n} \r\n\r\ncontract School is Ownable{\r\n  string public name;\r\n  string public addressPlace;\r\n  string public phoneNumber;\r\n  string public idnumber;\r\n  string public fax; \r\n  string public website;\r\n\r\n  constructor(\r\n    string memory _name,\r\n    string memory _addressPlace,\r\n    string memory _phoneNumber,\r\n    string memory _idnumber,\r\n    string memory _fax,\r\n    string memory _website,\r\n    address schAddr\r\n  ) public {\r\n    name = _name;\r\n    addressPlace = _addressPlace;\r\n    phoneNumber = _phoneNumber;\r\n    idnumber = _idnumber;\r\n    fax = _fax;\r\n    website = _website;\r\n    transferOwnership(schAddr);\r\n  }\r\n  function getSchool() public view{\r\n    name;\r\n    addressPlace;\r\n    phoneNumber;\r\n    idnumber;\r\n    fax; \r\n    website;\r\n  }\r\n}\r\n\r\ncontract Student is Ownable{\r\n  struct Certificate {\r\n    uint8 state;\r\n    address schoolAddress;\r\n    bytes32 certHash;\r\n  }\r\n\r\n  bytes32[] public certificateList; // mang hashed_cert\r\n  mapping (bytes32 => Certificate) mapCertificates; // hashed_cert => Certificate\r\n  System public system;\r\n\r\n  event addedCertificate(address _address, bytes32 _certHash);\r\n  event deactivatedCertificate(address _address, bytes32 _certHash);\r\n  event deletedCertificate(address _address, bytes32 _certHash);\r\n\r\n  constructor(address stuAddr, address _sysCA) public {\r\n    system = System(_sysCA);\r\n    transferOwnership(stuAddr);\r\n  }\r\n  \r\n  modifier onlySchool() {\r\n    require(system._isSchool(msg.sender));\r\n    _;\r\n  }\r\n  function isSchool() public view onlySchool() returns(bool){\r\n    return true;\r\n  }\r\n  function addCertificate(bytes32 _hashedCert) public onlySchool(){\r\n    certificateList.push(_hashedCert);\r\n    mapCertificates[_hashedCert] = Certificate(uint8(1), msg.sender, _hashedCert);\r\n    emit addedCertificate(msg.sender, _hashedCert);\r\n  }\r\n  function deactivateCertificate(bytes32 _certHash) public onlySchool(){\r\n    require(msg.sender == mapCertificates[_certHash].schoolAddress);\r\n    mapCertificates[_certHash].state = uint8(0);\r\n    emit deactivatedCertificate(msg.sender, _certHash);\r\n  }\r\n  function deleteCertificate(bytes32 _certHash) public onlySchool(){\r\n    require(msg.sender == mapCertificates[_certHash].schoolAddress);\r\n    mapCertificates[_certHash].state = uint8(2);\r\n    emit deletedCertificate(msg.sender, _certHash);\r\n  }\r\n  function viewCertificate(bytes32 _certHash) public view returns(uint8, address, bytes32){\r\n    Certificate storage cert = mapCertificates[_certHash];\r\n    return (cert.state, cert.schoolAddress, cert.certHash);\r\n  }\r\n  \r\n}",
  "sourcePath": "D:\\labs\\project_QLVBCC\\src\\contracts\\myContract.sol",
  "compiler": {
    "name": "solc",
    "version": "0.5.16+commit.9c3226ce.Emscripten.clang"
  },
  "schemaVersion": "3.4.3",
  "updatedAt": "2021-11-12T13:36:55.791Z",
  "networkType": "ethereum",
  "devdoc": {
    "methods": {
      "isOwner()": {
        "return": "true if `msg.sender` is the owner of the contract."
      },
      "owner()": {
        "return": "the address of the owner."
      },
      "renounceOwnership()": {
        "details": "Allows the current owner to relinquish control of the contract."
      },
      "transferOwnership(address)": {
        "details": "Allows the current owner to transfer control of the contract to a newOwner.",
        "params": {
          "newOwner": "The address to transfer ownership to."
        }
      }
    }
  },
  "userdoc": {
    "methods": {
      "renounceOwnership()": {
        "notice": "Renouncing to ownership will leave the contract without an owner. It will not be possible to call the functions with the `onlyOwner` modifier anymore."
      }
    }
  }
}