{
  "contractName": "SupplyChainManagement",
  "abi": [
    {
      "inputs": [],
      "payable": false,
      "stateMutability": "nonpayable",
      "type": "constructor"
    },
    {
      "anonymous": false,
      "inputs": [
        {
          "indexed": false,
          "internalType": "address",
          "name": "_walletAddress",
          "type": "address"
        },
        {
          "indexed": false,
          "internalType": "string",
          "name": "_id",
          "type": "string"
        },
        {
          "indexed": false,
          "internalType": "string",
          "name": "_censor",
          "type": "string"
        },
        {
          "indexed": false,
          "internalType": "string",
          "name": "_hashString",
          "type": "string"
        },
        {
          "indexed": false,
          "internalType": "uint256",
          "name": "_createTime",
          "type": "uint256"
        }
      ],
      "name": "sendStatus",
      "type": "event"
    },
    {
      "constant": true,
      "inputs": [
        {
          "internalType": "uint256",
          "name": "",
          "type": "uint256"
        }
      ],
      "name": "arrayAgricultural",
      "outputs": [
        {
          "internalType": "address",
          "name": "walletAddress",
          "type": "address"
        },
        {
          "internalType": "string",
          "name": "id",
          "type": "string"
        },
        {
          "internalType": "string",
          "name": "censor",
          "type": "string"
        },
        {
          "internalType": "string",
          "name": "hashString",
          "type": "string"
        },
        {
          "internalType": "uint256",
          "name": "createTime",
          "type": "uint256"
        }
      ],
      "payable": false,
      "stateMutability": "view",
      "type": "function"
    },
    {
      "constant": false,
      "inputs": [
        {
          "internalType": "string",
          "name": "_id",
          "type": "string"
        },
        {
          "internalType": "string",
          "name": "_censor",
          "type": "string"
        },
        {
          "internalType": "string",
          "name": "_hashString",
          "type": "string"
        }
      ],
      "name": "addAgricultural",
      "outputs": [],
      "payable": false,
      "stateMutability": "nonpayable",
      "type": "function"
    },
    {
      "constant": true,
      "inputs": [
        {
          "internalType": "string",
          "name": "_id",
          "type": "string"
        }
      ],
      "name": "getAgricultural",
      "outputs": [
        {
          "components": [
            {
              "internalType": "address",
              "name": "walletAddress",
              "type": "address"
            },
            {
              "internalType": "string",
              "name": "id",
              "type": "string"
            },
            {
              "internalType": "string",
              "name": "censor",
              "type": "string"
            },
            {
              "internalType": "string",
              "name": "hashString",
              "type": "string"
            },
            {
              "internalType": "uint256",
              "name": "createTime",
              "type": "uint256"
            }
          ],
          "internalType": "struct SupplyChainManagement.Agricultural",
          "name": "",
          "type": "tuple"
        }
      ],
      "payable": false,
      "stateMutability": "view",
      "type": "function"
    },
    {
      "constant": true,
      "inputs": [],
      "name": "getAllAgricultural",
      "outputs": [
        {
          "components": [
            {
              "internalType": "address",
              "name": "walletAddress",
              "type": "address"
            },
            {
              "internalType": "string",
              "name": "id",
              "type": "string"
            },
            {
              "internalType": "string",
              "name": "censor",
              "type": "string"
            },
            {
              "internalType": "string",
              "name": "hashString",
              "type": "string"
            },
            {
              "internalType": "uint256",
              "name": "createTime",
              "type": "uint256"
            }
          ],
          "internalType": "struct SupplyChainManagement.Agricultural[]",
          "name": "",
          "type": "tuple[]"
        }
      ],
      "payable": false,
      "stateMutability": "view",
      "type": "function"
    }
  ],
  "bytecode": "0x608060405234801561001057600080fd5b50336000806101000a81548173ffffffffffffffffffffffffffffffffffffffff021916908373ffffffffffffffffffffffffffffffffffffffff160217905550611398806100606000396000f3fe608060405234801561001057600080fd5b506004361061004c5760003560e01c80630c2e6990146100515780636bd5b4db14610085578063878e9bb1146100a3578063bfb73460146100d3575b600080fd5b61006b60048036036100669190810190610cc6565b6100ef565b60405161007c9594939291906110c3565b60405180910390f35b61008d61031a565b60405161009a919061112b565b60405180910390f35b6100bd60048036036100b89190810190610bee565b6105bf565b6040516100ca919061116d565b60405180910390f35b6100ed60048036036100e89190810190610c2f565b6108a7565b005b600181815481106100fc57fe5b90600052602060002090600502016000915090508060000160009054906101000a900473ffffffffffffffffffffffffffffffffffffffff1690806001018054600181600116156101000203166002900480601f0160208091040260200160405190810160405280929190818152602001828054600181600116156101000203166002900480156101ce5780601f106101a3576101008083540402835291602001916101ce565b820191906000526020600020905b8154815290600101906020018083116101b157829003601f168201915b505050505090806002018054600181600116156101000203166002900480601f01602080910402602001604051908101604052809291908181526020018280546001816001161561010002031660029004801561026c5780601f106102415761010080835404028352916020019161026c565b820191906000526020600020905b81548152906001019060200180831161024f57829003601f168201915b505050505090806003018054600181600116156101000203166002900480601f01602080910402602001604051908101604052809291908181526020018280546001816001161561010002031660029004801561030a5780601f106102df5761010080835404028352916020019161030a565b820191906000526020600020905b8154815290600101906020018083116102ed57829003601f168201915b5050505050908060040154905085565b60606001805480602002602001604051908101604052809291908181526020016000905b828210156105b657838290600052602060002090600502016040518060a00160405290816000820160009054906101000a900473ffffffffffffffffffffffffffffffffffffffff1673ffffffffffffffffffffffffffffffffffffffff1673ffffffffffffffffffffffffffffffffffffffff168152602001600182018054600181600116156101000203166002900480601f0160208091040260200160405190810160405280929190818152602001828054600181600116156101000203166002900480156104505780601f1061042557610100808354040283529160200191610450565b820191906000526020600020905b81548152906001019060200180831161043357829003601f168201915b50505050508152602001600282018054600181600116156101000203166002900480601f0160208091040260200160405190810160405280929190818152602001828054600181600116156101000203166002900480156104f25780601f106104c7576101008083540402835291602001916104f2565b820191906000526020600020905b8154815290600101906020018083116104d557829003601f168201915b50505050508152602001600382018054600181600116156101000203166002900480601f0160208091040260200160405190810160405280929190818152602001828054600181600116156101000203166002900480156105945780601f1061056957610100808354040283529160200191610594565b820191906000526020600020905b81548152906001019060200180831161057757829003601f168201915b505050505081526020016004820154815250508152602001906001019061033e565b50505050905090565b6105c7610a9b565b600080600090505b600180549050811015610632578380519060200120600182815481106105f157fe5b906000526020600020906005020160010160405161060f9190611044565b6040518091039020141561062557809150610632565b80806001019150506105cf565b506001818154811061064057fe5b90600052602060002090600502016040518060a00160405290816000820160009054906101000a900473ffffffffffffffffffffffffffffffffffffffff1673ffffffffffffffffffffffffffffffffffffffff1673ffffffffffffffffffffffffffffffffffffffff168152602001600182018054600181600116156101000203166002900480601f0160208091040260200160405190810160405280929190818152602001828054600181600116156101000203166002900480156107485780601f1061071d57610100808354040283529160200191610748565b820191906000526020600020905b81548152906001019060200180831161072b57829003601f168201915b50505050508152602001600282018054600181600116156101000203166002900480601f0160208091040260200160405190810160405280929190818152602001828054600181600116156101000203166002900480156107ea5780601f106107bf576101008083540402835291602001916107ea565b820191906000526020600020905b8154815290600101906020018083116107cd57829003601f168201915b50505050508152602001600382018054600181600116156101000203166002900480601f01602080910402602001604051908101604052809291908181526020018280546001816001161561010002031660029004801561088c5780601f106108615761010080835404028352916020019161088c565b820191906000526020600020905b81548152906001019060200180831161086f57829003601f168201915b50505050508152602001600482015481525050915050919050565b6000809054906101000a900473ffffffffffffffffffffffffffffffffffffffff1673ffffffffffffffffffffffffffffffffffffffff163373ffffffffffffffffffffffffffffffffffffffff1614610936576040517f08c379a000000000000000000000000000000000000000000000000000000000815260040161092d9061114d565b60405180910390fd5b61093e610a9b565b6040518060a001604052803373ffffffffffffffffffffffffffffffffffffffff1681526020018581526020018481526020018381526020014281525090506001819080600181540180825580915050906001820390600052602060002090600502016000909192909190915060008201518160000160006101000a81548173ffffffffffffffffffffffffffffffffffffffff021916908373ffffffffffffffffffffffffffffffffffffffff1602179055506020820151816001019080519060200190610a0e929190610ae0565b506040820151816002019080519060200190610a2b929190610ae0565b506060820151816003019080519060200190610a48929190610ae0565b50608082015181600401555050507fd988d913d61a8a81b95be85f877e4f6d0c507becbf2ff0bdf60f89bc882efea33385858542604051610a8d95949392919061105b565b60405180910390a150505050565b6040518060a00160405280600073ffffffffffffffffffffffffffffffffffffffff168152602001606081526020016060815260200160608152602001600081525090565b828054600181600116156101000203166002900490600052602060002090601f016020900481019282601f10610b2157805160ff1916838001178555610b4f565b82800160010185558215610b4f579182015b82811115610b4e578251825591602001919060010190610b33565b5b509050610b5c9190610b60565b5090565b610b8291905b80821115610b7e576000816000905550600101610b66565b5090565b90565b600082601f830112610b9657600080fd5b8135610ba9610ba4826111bc565b61118f565b91508082526020830160208301858383011115610bc557600080fd5b610bd08382846112eb565b50505092915050565b600081359050610be88161133e565b92915050565b600060208284031215610c0057600080fd5b600082013567ffffffffffffffff811115610c1a57600080fd5b610c2684828501610b85565b91505092915050565b600080600060608486031215610c4457600080fd5b600084013567ffffffffffffffff811115610c5e57600080fd5b610c6a86828701610b85565b935050602084013567ffffffffffffffff811115610c8757600080fd5b610c9386828701610b85565b925050604084013567ffffffffffffffff811115610cb057600080fd5b610cbc86828701610b85565b9150509250925092565b600060208284031215610cd857600080fd5b6000610ce684828501610bd9565b91505092915050565b6000610cfb8383610fa2565b905092915050565b610d0c816112b5565b82525050565b610d1b81611279565b82525050565b610d2a81611279565b82525050565b6000610d3b8261120d565b610d45818561123b565b935083602082028501610d57856111e8565b8060005b85811015610d935784840389528151610d748582610cef565b9450610d7f8361122e565b925060208a01995050600181019050610d5b565b50829750879550505050505092915050565b600081546001811660008114610dc25760018114610de757610e2b565b607f6002830416610dd3818761124c565b955060ff1983168652808601935050610e2b565b60028204610df5818761124c565b9550610e00856111f8565b60005b82811015610e2257815481890152600182019150602081019050610e03565b82880195505050505b505092915050565b6000610e3e82611223565b610e488185611268565b9350610e588185602086016112fa565b610e618161132d565b840191505092915050565b6000610e7782611218565b610e818185611257565b9350610e918185602086016112fa565b610e9a8161132d565b840191505092915050565b6000610eb082611218565b610eba8185611268565b9350610eca8185602086016112fa565b610ed38161132d565b840191505092915050565b6000610eeb601383611268565b91507f43616c6c6572206973206e6f74206f776e6572000000000000000000000000006000830152602082019050919050565b600060a083016000830151610f366000860182610d12565b5060208301518482036020860152610f4e8282610e6c565b91505060408301518482036040860152610f688282610e6c565b91505060608301518482036060860152610f828282610e6c565b9150506080830151610f976080860182611026565b508091505092915050565b600060a083016000830151610fba6000860182610d12565b5060208301518482036020860152610fd28282610e6c565b91505060408301518482036040860152610fec8282610e6c565b915050606083015184820360608601526110068282610e6c565b915050608083015161101b6080860182611026565b508091505092915050565b61102f816112ab565b82525050565b61103e816112ab565b82525050565b60006110508284610da5565b915081905092915050565b600060a0820190506110706000830188610d03565b81810360208301526110828187610e33565b905081810360408301526110968186610e33565b905081810360608301526110aa8185610e33565b90506110b96080830184611035565b9695505050505050565b600060a0820190506110d86000830188610d21565b81810360208301526110ea8187610ea5565b905081810360408301526110fe8186610ea5565b905081810360608301526111128185610ea5565b90506111216080830184611035565b9695505050505050565b600060208201905081810360008301526111458184610d30565b905092915050565b6000602082019050818103600083015261116681610ede565b9050919050565b600060208201905081810360008301526111878184610f1e565b905092915050565b6000604051905081810181811067ffffffffffffffff821117156111b257600080fd5b8060405250919050565b600067ffffffffffffffff8211156111d357600080fd5b601f19601f8301169050602081019050919050565b6000819050602082019050919050565b60008190508160005260206000209050919050565b600081519050919050565b600081519050919050565b600081519050919050565b6000602082019050919050565b600082825260208201905092915050565b600081905092915050565b600082825260208201905092915050565b600082825260208201905092915050565b60006112848261128b565b9050919050565b600073ffffffffffffffffffffffffffffffffffffffff82169050919050565b6000819050919050565b60006112c0826112c7565b9050919050565b60006112d2826112d9565b9050919050565b60006112e48261128b565b9050919050565b82818337600083830152505050565b60005b838110156113185780820151818401526020810190506112fd565b83811115611327576000848401525b50505050565b6000601f19601f8301169050919050565b611347816112ab565b811461135257600080fd5b5056fea365627a7a723158208bb705c909f4e104a808ed239a1058b316dfd46aba772426f67c18a1a95454616c6578706572696d656e74616cf564736f6c63430005100040",
  "source": "pragma solidity >=0.4.22 <0.9.0;  \r\npragma experimental ABIEncoderV2;\r\n\r\ncontract Ownable {\r\n  address private _owner;\r\n\r\n  event OwnershipTransferred(\r\n    address indexed previousOwner,\r\n    address indexed newOwner\r\n  );\r\n\r\n  /**\r\n  * @dev The Ownable constructor sets the original `owner` of the contract to the sender\r\n  * account.\r\n  */\r\n  constructor() public {\r\n    _owner = msg.sender;\r\n    emit OwnershipTransferred(address(0), _owner);\r\n  }\r\n\r\n  /**\r\n  * @return the address of the owner.\r\n  */\r\n  function owner() public view returns(address) {\r\n    return _owner;\r\n  }\r\n\r\n  /**\r\n  * @dev Throws if called by any account other than the owner.\r\n  */\r\n  modifier onlyOwner() {\r\n    require(isOwner());\r\n    _;\r\n  }\r\n\r\n  /**\r\n  * @return true if `msg.sender` is the owner of the contract.\r\n  */\r\n  function isOwner() public view returns(bool) {\r\n    return msg.sender == _owner;\r\n  }\r\n\r\n  /**\r\n  * @dev Allows the current owner to relinquish control of the contract.\r\n  * @notice Renouncing to ownership will leave the contract without an owner.\r\n  * It will not be possible to call the functions with the `onlyOwner`\r\n  * modifier anymore.\r\n  */\r\n  function renounceOwnership() public onlyOwner {\r\n    emit OwnershipTransferred(_owner, address(0));\r\n    _owner = address(0);\r\n  }\r\n\r\n  /**\r\n  * @dev Allows the current owner to transfer control of the contract to a newOwner.\r\n  * @param newOwner The address to transfer ownership to.\r\n  */\r\n  function transferOwnership(address newOwner) public onlyOwner {\r\n    _transferOwnership(newOwner);\r\n  }\r\n\r\n  /**\r\n  * @dev Transfers control of the contract to a newOwner.\r\n  * @param newOwner The address to transfer ownership to.\r\n  */\r\n  function _transferOwnership(address newOwner) internal {\r\n    require(newOwner != address(0));\r\n    emit OwnershipTransferred(_owner, newOwner);\r\n    _owner = newOwner;\r\n  }\r\n}\r\n\r\ncontract System is Ownable{ \r\n  address[] public schoolAddresses;\r\n  address[] public userAddresses;\r\n  mapping (address => address) public mapSchool; // school address => contract\r\n  mapping (address => address) public mapUser; // user address => contract\r\n\r\n  mapping (string => address) public idnumberToContract;\r\n\r\n  event addedSchool(address newSchool, address newContract);\r\n  event changedSchoolContract(address _schoolAddr, address _contractAddr);\r\n  \r\n  event addedUser(address newUser, address newContract);\r\n  event changedUserContract(address _userAddr,address _contractAddr);\r\n\r\n  event createdUserContractWithIDNumber(string _idnumber);\r\n  \r\n  constructor() public{\r\n    transferOwnership(address(msg.sender));\r\n  } \r\n  modifier onlySchool() {\r\n    require(isSchool());\r\n    _;\r\n  }\r\n  function isSchool() public view returns(bool) {\r\n    if (mapSchool[msg.sender] != address(0)) return true;\r\n    return false;\r\n  }\r\n  function _isSchool(address schoolAddr) public view returns(bool) {\r\n    for (uint i=0; i< schoolAddresses.length; i++){\r\n      if (schoolAddr == schoolAddresses[i]) return true;\r\n    }\r\n    return false;\r\n  }\r\n  function _isSchoolContract(address schoolCA ) public view returns(bool) {\r\n    for (uint i=0; i< schoolAddresses.length; i++){\r\n      if (mapSchool[schoolAddresses[i]] == schoolCA) return true;\r\n    }\r\n    return false;\r\n  }\r\n  function _isUser(address userAddr) internal view returns(bool) {\r\n    for (uint i=0; i< userAddresses.length; i++){\r\n      if (userAddr == userAddresses[i]) return true;\r\n    }\r\n    return false;\r\n  }\r\n  function addSchool( string memory name, string memory addressPlace, string memory phoneNumber, string memory idnumber, string memory fax, string memory website, address schoolAddr)public onlyOwner(){\r\n    require(!(_isSchool(schoolAddr)));\r\n    schoolAddresses.push(schoolAddr);\r\n    School schoolContract = new School(name, addressPlace, phoneNumber, idnumber, fax, website, schoolAddr);\r\n    mapSchool[schoolAddr] = address(schoolContract);\r\n    emit addedSchool(schoolAddr, address(schoolContract));\r\n  }\r\n  function changeSchoolContract(address _schoolAddr, address _contractAddr) public onlyOwner(){\r\n    for(uint i = 0 ; i< schoolAddresses.length; i++){\r\n      if (schoolAddresses[i] == _schoolAddr){\r\n        mapSchool[_schoolAddr] = _contractAddr;\r\n        emit changedSchoolContract(_schoolAddr, _contractAddr);\r\n        return;\r\n      }\r\n    }\r\n  }\r\n  function getSchoolContractAddr(address _schoolAddr) public view returns(address){\r\n    if(mapSchool[_schoolAddr] == address(0)){\r\n      return address(0);\r\n    }\r\n    return mapSchool[_schoolAddr];\r\n  }\r\n  // STUDENT CONTRACT -----------------------------------\r\n  function addUser(address _userAddr, string memory _idnumber, address _userCA) public onlyOwner(){\r\n    // check if userAddress is exist\r\n    // require (idnumberToContract[_idnumber] != address(0));\r\n    userAddresses.push(_userAddr);\r\n    // push user address to array\r\n    idnumberToContract[_idnumber] = _userCA;\r\n    mapUser[_userAddr] = _userCA;\r\n    emit addedUser(_userAddr, _userCA);\r\n  }\r\n  function changeUserContract(address _userAddr, address _contractAddr) public onlyOwner(){\r\n    for (uint i = 0 ; i< userAddresses.length; i++){\r\n      if (userAddresses[i] == _userAddr) {\r\n        mapUser[_userAddr] = _contractAddr;\r\n        emit changedUserContract(_userAddr, _contractAddr);\r\n        break;\r\n      }\r\n    }\r\n  }\r\n  function getUserContractAddr(address userAddr) public view returns(address) {\r\n    return (mapUser[userAddr] != address(0))? mapUser[userAddr] : address(0);\r\n  }\r\n  function createUserContractWithIDNumber (string memory _idnumber, address _sysCA) public onlyOwner(){\r\n    require(idnumberToContract[_idnumber] == address(0));\r\n    User userC = new User(msg.sender,_sysCA);\r\n    idnumberToContract[_idnumber] = address(userC);\r\n    emit createdUserContractWithIDNumber(_idnumber);\r\n  }\r\n  function getContractbyIDNumber (string memory _idnumber) public view returns(address){\r\n    return idnumberToContract[_idnumber];\r\n  }\r\n  \r\n} \r\n\r\ncontract School is Ownable{\r\n  string public name;\r\n  string public addressPlace;\r\n  string public phoneNumber;\r\n  string public idnumber;\r\n  string public fax; \r\n  string public website;\r\n  \r\n  event addedCertificate(address _userCAddr,string _certNumber, bytes32 _certHash);\r\n  event deactivatedCertificate(address _userCAddr,string _certNumber, bytes32 _certHash);\r\n\r\n  constructor(\r\n    string memory _name,\r\n    string memory _addressPlace,\r\n    string memory _phoneNumber,\r\n    string memory _idnumber,\r\n    string memory _fax,\r\n    string memory _website,\r\n    address schAddr\r\n    ) public {\r\n      name = _name;\r\n      addressPlace = _addressPlace;\r\n      phoneNumber = _phoneNumber;\r\n      idnumber = _idnumber;\r\n      fax = _fax;\r\n      website = _website;\r\n      transferOwnership(schAddr);\r\n    }\r\n  function getSchool() public view{\r\n    name;\r\n    addressPlace;\r\n    phoneNumber;\r\n    idnumber;\r\n    fax; \r\n    website;\r\n  }\r\n  function addCertificate(bytes32 _hashedCert,string memory _certNumber, address userCAddr ) public onlyOwner(){\r\n    User userI = User(userCAddr);\r\n    require (address(userI) != address(0));\r\n    userI.addCertificate(_hashedCert, _certNumber);\r\n    emit addedCertificate(userCAddr, _certNumber,  _hashedCert);\r\n  }\r\n  function deactivateCertificate(bytes32 _certHash, string memory _certNumber, address userCAddr) public onlyOwner(){\r\n    User userI = User(userCAddr);\r\n    require (address(userI) != address(0));\r\n    userI.deactivateCertificate(_certHash);\r\n    emit deactivatedCertificate(userCAddr, _certNumber, _certHash);\r\n  }\r\n}\r\n\r\ncontract User is Ownable{\r\n  struct Certificate {\r\n    uint8 state;\r\n    address schoolAddress;\r\n    bytes32 certHash;\r\n  }\r\n\r\n  bytes32[] public certificateList; // mang hashed_cert\r\n  mapping (bytes32 => Certificate) mapCertificates; // hashed_cert => Certificate\r\n  System public system;\r\n\r\n  event addedCertificate(string _certNumber, bytes32 _certHash);\r\n  event deactivatedCertificate(bytes32 _certHash);\r\n\r\n  constructor(address userAddr, address _sysCA) public {\r\n    system = System(_sysCA);\r\n    transferOwnership(userAddr);\r\n  }\r\n  \r\n  modifier onlySchool() {\r\n    require(system._isSchoolContract(msg.sender));\r\n    _;\r\n  }\r\n  function addCertificate(bytes32 _hashedCert, string memory _certNumber) public onlySchool(){\r\n    mapCertificates[_hashedCert] = Certificate(uint8(1), msg.sender, _hashedCert );\r\n    certificateList.push(_hashedCert);\r\n    emit addedCertificate(_certNumber, _hashedCert);\r\n  }\r\n  function deactivateCertificate(bytes32 _certHash) public onlySchool(){\r\n    require( mapCertificates[_certHash].schoolAddress == msg.sender);\r\n    mapCertificates[_certHash].state = uint8(0);\r\n    emit deactivatedCertificate( _certHash);\r\n  }\r\n  function viewCertificate(bytes32 _certHash) public view returns(uint8, address, bytes32){\r\n    Certificate storage cert = mapCertificates[_certHash];\r\n    return (cert.state, cert.schoolAddress, cert.certHash);\r\n  }\r\n}\r\n\r\ncontract SupplyChainManagement {\r\n    address private owner;\r\n\r\n    constructor() public {\r\n        owner = msg.sender; \r\n    }\r\n\r\n    modifier isOwner() {\r\n        require(msg.sender == owner, \"Caller is not owner\");\r\n        _;\r\n    }\r\n\r\n    Agricultural[] public arrayAgricultural; \r\n  \r\n    struct Agricultural {\r\n        address walletAddress;\r\n        string id;\r\n        string censor;\r\n        string hashString;\r\n        uint createTime;\r\n    }\r\n\r\n    event sendStatus(address _walletAddress, string _id, string _censor, string _hashString, uint _createTime);\r\n    function addAgricultural(string memory _id, string memory _censor,  string memory _hashString) public isOwner { // no coin\r\n        Agricultural memory newAgricultural = Agricultural(msg.sender, _id, _censor, _hashString, block.timestamp);\r\n        arrayAgricultural.push(newAgricultural);\r\n        emit sendStatus(msg.sender, _id, _censor, _hashString, block.timestamp);\r\n    }\r\n\r\n    function getAgricultural(string memory _id) public view returns (Agricultural memory) {\r\n        uint index; \r\n        for(uint i=0; i<arrayAgricultural.length; i++) {\r\n            if(keccak256(bytes(arrayAgricultural[i].id)) == keccak256(bytes(_id))) {\r\n                index = i;\r\n                break;\r\n            }\r\n        }\r\n        return arrayAgricultural[index];\r\n    }\r\n\r\n    function getAllAgricultural() public view returns (Agricultural[] memory) {\r\n        return arrayAgricultural;\r\n    }\r\n}",
  "sourcePath": "D:\\labs\\project_QLVBCC\\src\\contracts\\myContract.sol",
  "compiler": {
    "name": "solc",
    "version": "0.5.16+commit.9c3226ce.Emscripten.clang"
  },
  "schemaVersion": "3.4.3",
  "updatedAt": "2021-12-12T04:21:30.177Z",
  "devdoc": {
    "methods": {}
  },
  "userdoc": {
    "methods": {}
  }
}