{
  "contractName": "System",
  "abi": [
    {
      "inputs": [],
      "payable": false,
      "stateMutability": "nonpayable",
      "type": "constructor"
    },
    {
      "anonymous": false,
      "inputs": [
        {
          "indexed": true,
          "internalType": "address",
          "name": "previousOwner",
          "type": "address"
        },
        {
          "indexed": true,
          "internalType": "address",
          "name": "newOwner",
          "type": "address"
        }
      ],
      "name": "OwnershipTransferred",
      "type": "event"
    },
    {
      "anonymous": false,
      "inputs": [
        {
          "indexed": false,
          "internalType": "string",
          "name": "schoolCode",
          "type": "string"
        },
        {
          "indexed": false,
          "internalType": "address",
          "name": "newSchool",
          "type": "address"
        },
        {
          "indexed": false,
          "internalType": "address",
          "name": "newContract",
          "type": "address"
        }
      ],
      "name": "addedSchool",
      "type": "event"
    },
    {
      "anonymous": false,
      "inputs": [
        {
          "indexed": false,
          "internalType": "string",
          "name": "idnumber",
          "type": "string"
        },
        {
          "indexed": false,
          "internalType": "address",
          "name": "newUser",
          "type": "address"
        },
        {
          "indexed": false,
          "internalType": "address",
          "name": "newContract",
          "type": "address"
        }
      ],
      "name": "addedUser",
      "type": "event"
    },
    {
      "anonymous": false,
      "inputs": [
        {
          "indexed": false,
          "internalType": "address",
          "name": "_schoolAddr",
          "type": "address"
        },
        {
          "indexed": false,
          "internalType": "address",
          "name": "_contractAddr",
          "type": "address"
        }
      ],
      "name": "changedSchoolContract",
      "type": "event"
    },
    {
      "anonymous": false,
      "inputs": [
        {
          "indexed": false,
          "internalType": "address",
          "name": "_userAddr",
          "type": "address"
        },
        {
          "indexed": false,
          "internalType": "address",
          "name": "_contractAddr",
          "type": "address"
        }
      ],
      "name": "changedUserContract",
      "type": "event"
    },
    {
      "anonymous": false,
      "inputs": [
        {
          "indexed": false,
          "internalType": "string",
          "name": "_idnumber",
          "type": "string"
        }
      ],
      "name": "createdUserContractWithIDNumber",
      "type": "event"
    },
    {
      "constant": true,
      "inputs": [
        {
          "internalType": "string",
          "name": "",
          "type": "string"
        }
      ],
      "name": "idnumberToContract",
      "outputs": [
        {
          "internalType": "address",
          "name": "",
          "type": "address"
        }
      ],
      "payable": false,
      "stateMutability": "view",
      "type": "function"
    },
    {
      "constant": true,
      "inputs": [],
      "name": "isOwner",
      "outputs": [
        {
          "internalType": "bool",
          "name": "",
          "type": "bool"
        }
      ],
      "payable": false,
      "stateMutability": "view",
      "type": "function"
    },
    {
      "constant": true,
      "inputs": [
        {
          "internalType": "address",
          "name": "",
          "type": "address"
        }
      ],
      "name": "mapSchool",
      "outputs": [
        {
          "internalType": "address",
          "name": "",
          "type": "address"
        }
      ],
      "payable": false,
      "stateMutability": "view",
      "type": "function"
    },
    {
      "constant": true,
      "inputs": [
        {
          "internalType": "address",
          "name": "",
          "type": "address"
        }
      ],
      "name": "mapUser",
      "outputs": [
        {
          "internalType": "address",
          "name": "",
          "type": "address"
        }
      ],
      "payable": false,
      "stateMutability": "view",
      "type": "function"
    },
    {
      "constant": true,
      "inputs": [],
      "name": "owner",
      "outputs": [
        {
          "internalType": "address",
          "name": "",
          "type": "address"
        }
      ],
      "payable": false,
      "stateMutability": "view",
      "type": "function"
    },
    {
      "constant": false,
      "inputs": [],
      "name": "renounceOwnership",
      "outputs": [],
      "payable": false,
      "stateMutability": "nonpayable",
      "type": "function"
    },
    {
      "constant": true,
      "inputs": [
        {
          "internalType": "uint256",
          "name": "",
          "type": "uint256"
        }
      ],
      "name": "schoolAddresses",
      "outputs": [
        {
          "internalType": "address",
          "name": "",
          "type": "address"
        }
      ],
      "payable": false,
      "stateMutability": "view",
      "type": "function"
    },
    {
      "constant": false,
      "inputs": [
        {
          "internalType": "address",
          "name": "newOwner",
          "type": "address"
        }
      ],
      "name": "transferOwnership",
      "outputs": [],
      "payable": false,
      "stateMutability": "nonpayable",
      "type": "function"
    },
    {
      "constant": true,
      "inputs": [
        {
          "internalType": "uint256",
          "name": "",
          "type": "uint256"
        }
      ],
      "name": "userAddresses",
      "outputs": [
        {
          "internalType": "address",
          "name": "",
          "type": "address"
        }
      ],
      "payable": false,
      "stateMutability": "view",
      "type": "function"
    },
    {
      "constant": true,
      "inputs": [],
      "name": "isSchool",
      "outputs": [
        {
          "internalType": "bool",
          "name": "",
          "type": "bool"
        }
      ],
      "payable": false,
      "stateMutability": "view",
      "type": "function"
    },
    {
      "constant": true,
      "inputs": [
        {
          "internalType": "address",
          "name": "schoolAddr",
          "type": "address"
        }
      ],
      "name": "_isSchool",
      "outputs": [
        {
          "internalType": "bool",
          "name": "",
          "type": "bool"
        }
      ],
      "payable": false,
      "stateMutability": "view",
      "type": "function"
    },
    {
      "constant": true,
      "inputs": [
        {
          "internalType": "address",
          "name": "schoolCA",
          "type": "address"
        }
      ],
      "name": "_isSchoolContract",
      "outputs": [
        {
          "internalType": "bool",
          "name": "",
          "type": "bool"
        }
      ],
      "payable": false,
      "stateMutability": "view",
      "type": "function"
    },
    {
      "constant": false,
      "inputs": [
        {
          "internalType": "string",
          "name": "name",
          "type": "string"
        },
        {
          "internalType": "string",
          "name": "code",
          "type": "string"
        },
        {
          "internalType": "string",
          "name": "addressPlace",
          "type": "string"
        },
        {
          "internalType": "string",
          "name": "phoneNumber",
          "type": "string"
        },
        {
          "internalType": "string",
          "name": "email",
          "type": "string"
        },
        {
          "internalType": "string",
          "name": "fax",
          "type": "string"
        },
        {
          "internalType": "string",
          "name": "website",
          "type": "string"
        },
        {
          "internalType": "address",
          "name": "schoolAddr",
          "type": "address"
        }
      ],
      "name": "addSchool",
      "outputs": [],
      "payable": false,
      "stateMutability": "nonpayable",
      "type": "function"
    },
    {
      "constant": false,
      "inputs": [
        {
          "internalType": "address",
          "name": "_schoolAddr",
          "type": "address"
        },
        {
          "internalType": "address",
          "name": "_contractAddr",
          "type": "address"
        }
      ],
      "name": "changeSchoolContract",
      "outputs": [],
      "payable": false,
      "stateMutability": "nonpayable",
      "type": "function"
    },
    {
      "constant": true,
      "inputs": [
        {
          "internalType": "address",
          "name": "_schoolAddr",
          "type": "address"
        }
      ],
      "name": "getSchoolContractAddr",
      "outputs": [
        {
          "internalType": "address",
          "name": "",
          "type": "address"
        }
      ],
      "payable": false,
      "stateMutability": "view",
      "type": "function"
    },
    {
      "constant": false,
      "inputs": [
        {
          "internalType": "address",
          "name": "_userAddr",
          "type": "address"
        },
        {
          "internalType": "string",
          "name": "_idnumber",
          "type": "string"
        },
        {
          "internalType": "address",
          "name": "_userCA",
          "type": "address"
        }
      ],
      "name": "addUser",
      "outputs": [],
      "payable": false,
      "stateMutability": "nonpayable",
      "type": "function"
    },
    {
      "constant": false,
      "inputs": [
        {
          "internalType": "address",
          "name": "_userAddr",
          "type": "address"
        },
        {
          "internalType": "address",
          "name": "_contractAddr",
          "type": "address"
        }
      ],
      "name": "changeUserContract",
      "outputs": [],
      "payable": false,
      "stateMutability": "nonpayable",
      "type": "function"
    },
    {
      "constant": true,
      "inputs": [
        {
          "internalType": "address",
          "name": "userAddr",
          "type": "address"
        }
      ],
      "name": "getUserContractAddr",
      "outputs": [
        {
          "internalType": "address",
          "name": "",
          "type": "address"
        }
      ],
      "payable": false,
      "stateMutability": "view",
      "type": "function"
    },
    {
      "constant": false,
      "inputs": [
        {
          "internalType": "string",
          "name": "_idnumber",
          "type": "string"
        },
        {
          "internalType": "address",
          "name": "_sysCA",
          "type": "address"
        }
      ],
      "name": "createUserContractWithIDNumber",
      "outputs": [],
      "payable": false,
      "stateMutability": "nonpayable",
      "type": "function"
    },
    {
      "constant": true,
      "inputs": [
        {
          "internalType": "string",
          "name": "_idnumber",
          "type": "string"
        }
      ],
      "name": "getContractbyIDNumber",
      "outputs": [
        {
          "internalType": "address",
          "name": "",
          "type": "address"
        }
      ],
      "payable": false,
      "stateMutability": "view",
      "type": "function"
    }
  ],
  "bytecode": "0x60806040523480156200001157600080fd5b50336000806101000a81548173ffffffffffffffffffffffffffffffffffffffff021916908373ffffffffffffffffffffffffffffffffffffffff1602179055506000809054906101000a900473ffffffffffffffffffffffffffffffffffffffff1673ffffffffffffffffffffffffffffffffffffffff16600073ffffffffffffffffffffffffffffffffffffffff167f8be0079c531659141344cd1fd0a4f28419497f9722a3daafe3b4186f6b6457e060405160405180910390a3620000df33620000e560201b60201c565b62000263565b620000f56200011360201b60201c565b620000ff57600080fd5b62000110816200016a60201b60201c565b50565b60008060009054906101000a900473ffffffffffffffffffffffffffffffffffffffff1673ffffffffffffffffffffffffffffffffffffffff163373ffffffffffffffffffffffffffffffffffffffff1614905090565b600073ffffffffffffffffffffffffffffffffffffffff168173ffffffffffffffffffffffffffffffffffffffff161415620001a557600080fd5b8073ffffffffffffffffffffffffffffffffffffffff166000809054906101000a900473ffffffffffffffffffffffffffffffffffffffff1673ffffffffffffffffffffffffffffffffffffffff167f8be0079c531659141344cd1fd0a4f28419497f9722a3daafe3b4186f6b6457e060405160405180910390a3806000806101000a81548173ffffffffffffffffffffffffffffffffffffffff021916908373ffffffffffffffffffffffffffffffffffffffff16021790555050565b614fbe80620002736000396000f3fe60806040523480156200001157600080fd5b5060043610620001485760003560e01c80637368a6b111620000bd578063b298f55e116200007b578063b298f55e14620003a3578063b4c8a1e414620003d9578063b7600862146200040f578063f2fde38b1462000445578063f72459ec14620004655762000148565b80637368a6b114620002d3578063862d71bc14620003095780638c53250214620003295780638da5cb5b146200035f5780638f32d59b14620003815762000148565b80634f5a5653116200010b5780634f5a5653146200021b578063502c9bd5146200023b578063599bf09614620002715780636ce42a4514620002a7578063715018a614620002c75762000148565b80631a6f46fc146200014d5780632037d402146200016d5780633b8e699714620001a3578063422e694f14620001c3578063464ededc14620001f9575b600080fd5b6200016b600480360362000165919081019062001714565b6200049b565b005b6200018b600480360362000185919081019062001554565b6200063c565b6040516200019a9190620019ed565b60405180910390f35b620001c16004803603620001bb9190810190620016ba565b62000742565b005b620001e16004803603620001db919081019062001886565b620008ac565b604051620001f0919062001976565b60405180910390f35b62000203620008e9565b604051620002129190620019ed565b60405180910390f35b62000239600480360362000233919081019062001580565b62000990565b005b62000259600480360362000253919081019062001886565b62000af9565b60405162000268919062001976565b60405180910390f35b6200028f600480360362000289919081019062001554565b62000b36565b6040516200029e919062001976565b60405180910390f35b620002c56004803603620002bf9190810190620015c1565b62000b69565b005b620002d162000d02565b005b620002f16004803603620002eb919081019062001554565b62000dd5565b604051620003009190620019ed565b60405180910390f35b62000327600480360362000321919081019062001580565b62000e7c565b005b62000347600480360362000341919081019062001675565b62000fe3565b60405162000356919062001976565b60405180910390f35b620003696200102d565b60405162000378919062001976565b60405180910390f35b6200038b62001056565b6040516200039a9190620019ed565b60405180910390f35b620003c16004803603620003bb919081019062001554565b620010ad565b604051620003d0919062001976565b60405180910390f35b620003f76004803603620003f1919081019062001630565b620011b3565b60405162000406919062001976565b60405180910390f35b6200042d600480360362000427919081019062001554565b620011fc565b6040516200043c919062001976565b60405180910390f35b6200046360048036036200045d919081019062001554565b6200122f565b005b6200048360048036036200047d919081019062001554565b62001251565b60405162000492919062001976565b60405180910390f35b620004a562001056565b620004af57600080fd5b620004ba8162000dd5565b15620004c557600080fd5b60018190806001815401808255809150509060018203906000526020600020016000909192909190916101000a81548173ffffffffffffffffffffffffffffffffffffffff021916908373ffffffffffffffffffffffffffffffffffffffff1602179055505060008888888888888888604051620005439062001452565b6200055698979695949392919062001a72565b604051809103906000f08015801562000573573d6000803e3d6000fd5b50905080600360008473ffffffffffffffffffffffffffffffffffffffff1673ffffffffffffffffffffffffffffffffffffffff16815260200190815260200160002060006101000a81548173ffffffffffffffffffffffffffffffffffffffff021916908373ffffffffffffffffffffffffffffffffffffffff1602179055507f0f121225e183a6ad55f9000685dd37754faeb8fc958787ad2f2aaffd7856d6e8888383604051620006299392919062001a2e565b60405180910390a1505050505050505050565b600080600090505b60018054905081101562000737578273ffffffffffffffffffffffffffffffffffffffff1660036000600184815481106200067b57fe5b9060005260206000200160009054906101000a900473ffffffffffffffffffffffffffffffffffffffff1673ffffffffffffffffffffffffffffffffffffffff1673ffffffffffffffffffffffffffffffffffffffff16815260200190815260200160002060009054906101000a900473ffffffffffffffffffffffffffffffffffffffff1673ffffffffffffffffffffffffffffffffffffffff161415620007295760019150506200073d565b808060010191505062000644565b50600090505b919050565b6200074c62001056565b6200075657600080fd5b600073ffffffffffffffffffffffffffffffffffffffff166005836040516200078091906200195d565b908152602001604051809103902060009054906101000a900473ffffffffffffffffffffffffffffffffffffffff1673ffffffffffffffffffffffffffffffffffffffff1614620007d057600080fd5b60003382604051620007e29062001460565b620007ef92919062001993565b604051809103906000f0801580156200080c573d6000803e3d6000fd5b509050806005846040516200082291906200195d565b908152602001604051809103902060006101000a81548173ffffffffffffffffffffffffffffffffffffffff021916908373ffffffffffffffffffffffffffffffffffffffff1602179055507faddc7b3e4414ee38ae5211d64cd9ac1caf2fcba96d32c1313077a72fa3a27685836040516200089f919062001a0a565b60405180910390a1505050565b60018181548110620008ba57fe5b906000526020600020016000915054906101000a900473ffffffffffffffffffffffffffffffffffffffff1681565b60008073ffffffffffffffffffffffffffffffffffffffff16600360003373ffffffffffffffffffffffffffffffffffffffff1673ffffffffffffffffffffffffffffffffffffffff16815260200190815260200160002060009054906101000a900473ffffffffffffffffffffffffffffffffffffffff1673ffffffffffffffffffffffffffffffffffffffff16146200098857600190506200098d565b600090505b90565b6200099a62001056565b620009a457600080fd5b60008090505b60018054905081101562000af3578273ffffffffffffffffffffffffffffffffffffffff1660018281548110620009dd57fe5b9060005260206000200160009054906101000a900473ffffffffffffffffffffffffffffffffffffffff1673ffffffffffffffffffffffffffffffffffffffff16141562000ae55781600360008573ffffffffffffffffffffffffffffffffffffffff1673ffffffffffffffffffffffffffffffffffffffff16815260200190815260200160002060006101000a81548173ffffffffffffffffffffffffffffffffffffffff021916908373ffffffffffffffffffffffffffffffffffffffff1602179055507fc0a3af17a25887aa43a3dd7638fe667ec832469b0c828864ebd1234f072019cc838360405162000ad6929190620019c0565b60405180910390a15062000af5565b8080600101915050620009aa565b505b5050565b6002818154811062000b0757fe5b906000526020600020016000915054906101000a900473ffffffffffffffffffffffffffffffffffffffff1681565b60046020528060005260406000206000915054906101000a900473ffffffffffffffffffffffffffffffffffffffff1681565b62000b7362001056565b62000b7d57600080fd5b60028390806001815401808255809150509060018203906000526020600020016000909192909190916101000a81548173ffffffffffffffffffffffffffffffffffffffff021916908373ffffffffffffffffffffffffffffffffffffffff160217905550508060058360405162000bf691906200195d565b908152602001604051809103902060006101000a81548173ffffffffffffffffffffffffffffffffffffffff021916908373ffffffffffffffffffffffffffffffffffffffff16021790555080600460008573ffffffffffffffffffffffffffffffffffffffff1673ffffffffffffffffffffffffffffffffffffffff16815260200190815260200160002060006101000a81548173ffffffffffffffffffffffffffffffffffffffff021916908373ffffffffffffffffffffffffffffffffffffffff1602179055507fa753689437efd5dd98dbea2651282098650c6cd4fbb15182fea0b02b82af38da82848360405162000cf59392919062001a2e565b60405180910390a1505050565b62000d0c62001056565b62000d1657600080fd5b600073ffffffffffffffffffffffffffffffffffffffff166000809054906101000a900473ffffffffffffffffffffffffffffffffffffffff1673ffffffffffffffffffffffffffffffffffffffff167f8be0079c531659141344cd1fd0a4f28419497f9722a3daafe3b4186f6b6457e060405160405180910390a360008060006101000a81548173ffffffffffffffffffffffffffffffffffffffff021916908373ffffffffffffffffffffffffffffffffffffffff160217905550565b600080600090505b60018054905081101562000e71576001818154811062000df957fe5b9060005260206000200160009054906101000a900473ffffffffffffffffffffffffffffffffffffffff1673ffffffffffffffffffffffffffffffffffffffff168373ffffffffffffffffffffffffffffffffffffffff16141562000e6357600191505062000e77565b808060010191505062000ddd565b50600090505b919050565b62000e8662001056565b62000e9057600080fd5b60008090505b60028054905081101562000fde578273ffffffffffffffffffffffffffffffffffffffff166002828154811062000ec957fe5b9060005260206000200160009054906101000a900473ffffffffffffffffffffffffffffffffffffffff1673ffffffffffffffffffffffffffffffffffffffff16141562000fd05781600460008573ffffffffffffffffffffffffffffffffffffffff1673ffffffffffffffffffffffffffffffffffffffff16815260200190815260200160002060006101000a81548173ffffffffffffffffffffffffffffffffffffffff021916908373ffffffffffffffffffffffffffffffffffffffff1602179055507fefee54f73959f1033e2f8f9bc27666412c412835b7284b77da43f0207007da64838360405162000fc2929190620019c0565b60405180910390a162000fde565b808060010191505062000e96565b505050565b600060058260405162000ff791906200195d565b908152602001604051809103902060009054906101000a900473ffffffffffffffffffffffffffffffffffffffff169050919050565b60008060009054906101000a900473ffffffffffffffffffffffffffffffffffffffff16905090565b60008060009054906101000a900473ffffffffffffffffffffffffffffffffffffffff1673ffffffffffffffffffffffffffffffffffffffff163373ffffffffffffffffffffffffffffffffffffffff1614905090565b60008073ffffffffffffffffffffffffffffffffffffffff16600460008473ffffffffffffffffffffffffffffffffffffffff1673ffffffffffffffffffffffffffffffffffffffff16815260200190815260200160002060009054906101000a900473ffffffffffffffffffffffffffffffffffffffff1673ffffffffffffffffffffffffffffffffffffffff1614156200114b576000620011ac565b600460008373ffffffffffffffffffffffffffffffffffffffff1673ffffffffffffffffffffffffffffffffffffffff16815260200190815260200160002060009054906101000a900473ffffffffffffffffffffffffffffffffffffffff165b9050919050565b6005818051602081018201805184825260208301602085012081835280955050505050506000915054906101000a900473ffffffffffffffffffffffffffffffffffffffff1681565b60036020528060005260406000206000915054906101000a900473ffffffffffffffffffffffffffffffffffffffff1681565b6200123962001056565b6200124357600080fd5b6200124e8162001359565b50565b60008073ffffffffffffffffffffffffffffffffffffffff16600360008473ffffffffffffffffffffffffffffffffffffffff1673ffffffffffffffffffffffffffffffffffffffff16815260200190815260200160002060009054906101000a900473ffffffffffffffffffffffffffffffffffffffff1673ffffffffffffffffffffffffffffffffffffffff161415620012f1576000905062001354565b600360008373ffffffffffffffffffffffffffffffffffffffff1673ffffffffffffffffffffffffffffffffffffffff16815260200190815260200160002060009054906101000a900473ffffffffffffffffffffffffffffffffffffffff1690505b919050565b600073ffffffffffffffffffffffffffffffffffffffff168173ffffffffffffffffffffffffffffffffffffffff1614156200139457600080fd5b8073ffffffffffffffffffffffffffffffffffffffff166000809054906101000a900473ffffffffffffffffffffffffffffffffffffffff1673ffffffffffffffffffffffffffffffffffffffff167f8be0079c531659141344cd1fd0a4f28419497f9722a3daafe3b4186f6b6457e060405160405180910390a3806000806101000a81548173ffffffffffffffffffffffffffffffffffffffff021916908373ffffffffffffffffffffffffffffffffffffffff16021790555050565b611bcb8062001cf183390190565b6116c080620038bc83390190565b6000813590506200147f8162001cbc565b92915050565b600082601f8301126200149757600080fd5b8135620014ae620014a88262001b5f565b62001b31565b91508082526020830160208301858383011115620014cb57600080fd5b620014d883828462001c66565b50505092915050565b600082601f830112620014f357600080fd5b81356200150a620015048262001b8c565b62001b31565b915080825260208301602083018583830111156200152757600080fd5b6200153483828462001c66565b50505092915050565b6000813590506200154e8162001cd6565b92915050565b6000602082840312156200156757600080fd5b600062001577848285016200146e565b91505092915050565b600080604083850312156200159457600080fd5b6000620015a4858286016200146e565b9250506020620015b7858286016200146e565b9150509250929050565b600080600060608486031215620015d757600080fd5b6000620015e7868287016200146e565b935050602084013567ffffffffffffffff8111156200160557600080fd5b6200161386828701620014e1565b925050604062001626868287016200146e565b9150509250925092565b6000602082840312156200164357600080fd5b600082013567ffffffffffffffff8111156200165e57600080fd5b6200166c8482850162001485565b91505092915050565b6000602082840312156200168857600080fd5b600082013567ffffffffffffffff811115620016a357600080fd5b620016b184828501620014e1565b91505092915050565b60008060408385031215620016ce57600080fd5b600083013567ffffffffffffffff811115620016e957600080fd5b620016f785828601620014e1565b92505060206200170a858286016200146e565b9150509250929050565b600080600080600080600080610100898b0312156200173257600080fd5b600089013567ffffffffffffffff8111156200174d57600080fd5b6200175b8b828c01620014e1565b985050602089013567ffffffffffffffff8111156200177957600080fd5b620017878b828c01620014e1565b975050604089013567ffffffffffffffff811115620017a557600080fd5b620017b38b828c01620014e1565b965050606089013567ffffffffffffffff811115620017d157600080fd5b620017df8b828c01620014e1565b955050608089013567ffffffffffffffff811115620017fd57600080fd5b6200180b8b828c01620014e1565b94505060a089013567ffffffffffffffff8111156200182957600080fd5b620018378b828c01620014e1565b93505060c089013567ffffffffffffffff8111156200185557600080fd5b620018638b828c01620014e1565b92505060e0620018768b828c016200146e565b9150509295985092959890939650565b6000602082840312156200189957600080fd5b6000620018a9848285016200153d565b91505092915050565b620018bd8162001c2a565b82525050565b620018ce8162001be0565b82525050565b620018df8162001bf4565b82525050565b6000620018f28262001bb9565b620018fe818562001bc4565b93506200191081856020860162001c75565b6200191b8162001cab565b840191505092915050565b6000620019338262001bb9565b6200193f818562001bd5565b93506200195181856020860162001c75565b80840191505092915050565b60006200196b828462001926565b915081905092915050565b60006020820190506200198d6000830184620018c3565b92915050565b6000604082019050620019aa6000830185620018b2565b620019b96020830184620018c3565b9392505050565b6000604082019050620019d76000830185620018c3565b620019e66020830184620018c3565b9392505050565b600060208201905062001a046000830184620018d4565b92915050565b6000602082019050818103600083015262001a268184620018e5565b905092915050565b6000606082019050818103600083015262001a4a8186620018e5565b905062001a5b6020830185620018c3565b62001a6a6040830184620018c3565b949350505050565b600061010082019050818103600083015262001a8f818b620018e5565b9050818103602083015262001aa5818a620018e5565b9050818103604083015262001abb8189620018e5565b9050818103606083015262001ad18188620018e5565b9050818103608083015262001ae78187620018e5565b905081810360a083015262001afd8186620018e5565b905081810360c083015262001b138185620018e5565b905062001b2460e0830184620018c3565b9998505050505050505050565b6000604051905081810181811067ffffffffffffffff8211171562001b5557600080fd5b8060405250919050565b600067ffffffffffffffff82111562001b7757600080fd5b601f19601f8301169050602081019050919050565b600067ffffffffffffffff82111562001ba457600080fd5b601f19601f8301169050602081019050919050565b600081519050919050565b600082825260208201905092915050565b600081905092915050565b600062001bed8262001c00565b9050919050565b60008115159050919050565b600073ffffffffffffffffffffffffffffffffffffffff82169050919050565b6000819050919050565b600062001c378262001c3e565b9050919050565b600062001c4b8262001c52565b9050919050565b600062001c5f8262001c00565b9050919050565b82818337600083830152505050565b60005b8381101562001c9557808201518184015260208101905062001c78565b8381111562001ca5576000848401525b50505050565b6000601f19601f8301169050919050565b62001cc78162001be0565b811462001cd357600080fd5b50565b62001ce18162001c20565b811462001ced57600080fd5b5056fe60806040523480156200001157600080fd5b5060405162001bcb38038062001bcb833981810160405262000037919081019062000461565b336000806101000a81548173ffffffffffffffffffffffffffffffffffffffff021916908373ffffffffffffffffffffffffffffffffffffffff1602179055506000809054906101000a900473ffffffffffffffffffffffffffffffffffffffff1673ffffffffffffffffffffffffffffffffffffffff16600073ffffffffffffffffffffffffffffffffffffffff167f8be0079c531659141344cd1fd0a4f28419497f9722a3daafe3b4186f6b6457e060405160405180910390a387600190805190602001906200010b9291906200033f565b508660029080519060200190620001249291906200033f565b5085600390805190602001906200013d9291906200033f565b508460049080519060200190620001569291906200033f565b5083600590805190602001906200016f9291906200033f565b508260069080519060200190620001889291906200033f565b508160079080519060200190620001a19291906200033f565b50620001b381620001c160201b60201c565b5050505050505050620006b2565b620001d1620001ef60201b60201c565b620001db57600080fd5b620001ec816200024660201b60201c565b50565b60008060009054906101000a900473ffffffffffffffffffffffffffffffffffffffff1673ffffffffffffffffffffffffffffffffffffffff163373ffffffffffffffffffffffffffffffffffffffff1614905090565b600073ffffffffffffffffffffffffffffffffffffffff168173ffffffffffffffffffffffffffffffffffffffff1614156200028157600080fd5b8073ffffffffffffffffffffffffffffffffffffffff166000809054906101000a900473ffffffffffffffffffffffffffffffffffffffff1673ffffffffffffffffffffffffffffffffffffffff167f8be0079c531659141344cd1fd0a4f28419497f9722a3daafe3b4186f6b6457e060405160405180910390a3806000806101000a81548173ffffffffffffffffffffffffffffffffffffffff021916908373ffffffffffffffffffffffffffffffffffffffff16021790555050565b828054600181600116156101000203166002900490600052602060002090601f016020900481019282601f106200038257805160ff1916838001178555620003b3565b82800160010185558215620003b3579182015b82811115620003b257825182559160200191906001019062000395565b5b509050620003c29190620003c6565b5090565b620003eb91905b80821115620003e7576000816000905550600101620003cd565b5090565b90565b600081519050620003ff8162000698565b92915050565b600082601f8301126200041757600080fd5b81516200042e620004288262000601565b620005d3565b915080825260208301602083018583830111156200044b57600080fd5b6200045883828462000662565b50505092915050565b600080600080600080600080610100898b0312156200047f57600080fd5b600089015167ffffffffffffffff8111156200049a57600080fd5b620004a88b828c0162000405565b985050602089015167ffffffffffffffff811115620004c657600080fd5b620004d48b828c0162000405565b975050604089015167ffffffffffffffff811115620004f257600080fd5b620005008b828c0162000405565b965050606089015167ffffffffffffffff8111156200051e57600080fd5b6200052c8b828c0162000405565b955050608089015167ffffffffffffffff8111156200054a57600080fd5b620005588b828c0162000405565b94505060a089015167ffffffffffffffff8111156200057657600080fd5b620005848b828c0162000405565b93505060c089015167ffffffffffffffff811115620005a257600080fd5b620005b08b828c0162000405565b92505060e0620005c38b828c01620003ee565b9150509295985092959890939650565b6000604051905081810181811067ffffffffffffffff82111715620005f757600080fd5b8060405250919050565b600067ffffffffffffffff8211156200061957600080fd5b601f19601f8301169050602081019050919050565b60006200063b8262000642565b9050919050565b600073ffffffffffffffffffffffffffffffffffffffff82169050919050565b60005b838110156200068257808201518184015260208101905062000665565b8381111562000692576000848401525b50505050565b620006a3816200062e565b8114620006af57600080fd5b50565b61150980620006c26000396000f3fe608060405234801561001057600080fd5b50600436106100ea5760003560e01c80638f32d59b1161008c578063a9e3e7c111610066578063a9e3e7c114610203578063beb0a41614610227578063ef690ad414610245578063f2fde38b14610263576100ea565b80638f32d59b146101ab57806390ef5873146101c957806396b275fc146101e5576100ea565b8063715018a6116100c8578063715018a614610147578063747f338014610151578063820e93f51461016f5780638da5cb5b1461018d576100ea565b806306fdde03146100ef57806324c12bf61461010d57806327879ab71461012b575b600080fd5b6100f761027f565b60405161010491906112bb565b60405180910390f35b61011561031d565b60405161012291906112bb565b60405180910390f35b610145600480360361014091908101906110b5565b6103bb565b005b61014f6104bc565b005b61015961058c565b60405161016691906112bb565b60405180910390f35b61017761062a565b60405161018491906112bb565b60405180910390f35b6101956106c8565b6040516101a291906111e7565b60405180910390f35b6101b36106f1565b6040516101c09190611240565b60405180910390f35b6101e360048036036101de919081019061104e565b610748565b005b6101ed610844565b6040516101fa91906112bb565b60405180910390f35b61020b6108e2565b60405161021e97969594939291906112dd565b60405180910390f35b61022f610d56565b60405161023c91906112bb565b60405180910390f35b61024d610df4565b60405161025a91906112bb565b60405180910390f35b61027d60048036036102789190810190611025565b610e92565b005b60018054600181600116156101000203166002900480601f0160208091040260200160405190810160405280929190818152602001828054600181600116156101000203166002900480156103155780601f106102ea57610100808354040283529160200191610315565b820191906000526020600020905b8154815290600101906020018083116102f857829003601f168201915b505050505081565b60028054600181600116156101000203166002900480601f0160208091040260200160405190810160405280929190818152602001828054600181600116156101000203166002900480156103b35780601f10610388576101008083540402835291602001916103b3565b820191906000526020600020905b81548152906001019060200180831161039657829003601f168201915b505050505081565b6103c36106f1565b6103cc57600080fd5b6000819050600073ffffffffffffffffffffffffffffffffffffffff168173ffffffffffffffffffffffffffffffffffffffff16141561040b57600080fd5b8073ffffffffffffffffffffffffffffffffffffffff1663d7787eeb8686866040518463ffffffff1660e01b815260040161044893929190611276565b600060405180830381600087803b15801561046257600080fd5b505af1158015610476573d6000803e3d6000fd5b505050507f29ce43725d4bb7eab2eba2456a54567781f53da28f5a5e6ad76948ca3dad62d78285876040516104ad93929190611202565b60405180910390a15050505050565b6104c46106f1565b6104cd57600080fd5b600073ffffffffffffffffffffffffffffffffffffffff166000809054906101000a900473ffffffffffffffffffffffffffffffffffffffff1673ffffffffffffffffffffffffffffffffffffffff167f8be0079c531659141344cd1fd0a4f28419497f9722a3daafe3b4186f6b6457e060405160405180910390a360008060006101000a81548173ffffffffffffffffffffffffffffffffffffffff021916908373ffffffffffffffffffffffffffffffffffffffff160217905550565b60048054600181600116156101000203166002900480601f0160208091040260200160405190810160405280929190818152602001828054600181600116156101000203166002900480156106225780601f106105f757610100808354040283529160200191610622565b820191906000526020600020905b81548152906001019060200180831161060557829003601f168201915b505050505081565b60058054600181600116156101000203166002900480601f0160208091040260200160405190810160405280929190818152602001828054600181600116156101000203166002900480156106c05780601f10610695576101008083540402835291602001916106c0565b820191906000526020600020905b8154815290600101906020018083116106a357829003601f168201915b505050505081565b60008060009054906101000a900473ffffffffffffffffffffffffffffffffffffffff16905090565b60008060009054906101000a900473ffffffffffffffffffffffffffffffffffffffff1673ffffffffffffffffffffffffffffffffffffffff163373ffffffffffffffffffffffffffffffffffffffff1614905090565b6107506106f1565b61075957600080fd5b6000819050600073ffffffffffffffffffffffffffffffffffffffff168173ffffffffffffffffffffffffffffffffffffffff16141561079857600080fd5b8073ffffffffffffffffffffffffffffffffffffffff16634b5a7c23856040518263ffffffff1660e01b81526004016107d1919061125b565b600060405180830381600087803b1580156107eb57600080fd5b505af11580156107ff573d6000803e3d6000fd5b505050507f4b767ae7cceb4be6f856fff380d53455e3f6a1f96e7e19dde9a75ad1bd32a26782848660405161083693929190611202565b60405180910390a150505050565b60038054600181600116156101000203166002900480601f0160208091040260200160405190810160405280929190818152602001828054600181600116156101000203166002900480156108da5780601f106108af576101008083540402835291602001916108da565b820191906000526020600020905b8154815290600101906020018083116108bd57829003601f168201915b505050505081565b60608060608060608060606001600260036004600560066007868054600181600116156101000203166002900480601f0160208091040260200160405190810160405280929190818152602001828054600181600116156101000203166002900480156109905780601f1061096557610100808354040283529160200191610990565b820191906000526020600020905b81548152906001019060200180831161097357829003601f168201915b50505050509650858054600181600116156101000203166002900480601f016020809104026020016040519081016040528092919081815260200182805460018160011615610100020316600290048015610a2c5780601f10610a0157610100808354040283529160200191610a2c565b820191906000526020600020905b815481529060010190602001808311610a0f57829003601f168201915b50505050509550848054600181600116156101000203166002900480601f016020809104026020016040519081016040528092919081815260200182805460018160011615610100020316600290048015610ac85780601f10610a9d57610100808354040283529160200191610ac8565b820191906000526020600020905b815481529060010190602001808311610aab57829003601f168201915b50505050509450838054600181600116156101000203166002900480601f016020809104026020016040519081016040528092919081815260200182805460018160011615610100020316600290048015610b645780601f10610b3957610100808354040283529160200191610b64565b820191906000526020600020905b815481529060010190602001808311610b4757829003601f168201915b50505050509350828054600181600116156101000203166002900480601f016020809104026020016040519081016040528092919081815260200182805460018160011615610100020316600290048015610c005780601f10610bd557610100808354040283529160200191610c00565b820191906000526020600020905b815481529060010190602001808311610be357829003601f168201915b50505050509250818054600181600116156101000203166002900480601f016020809104026020016040519081016040528092919081815260200182805460018160011615610100020316600290048015610c9c5780601f10610c7157610100808354040283529160200191610c9c565b820191906000526020600020905b815481529060010190602001808311610c7f57829003601f168201915b50505050509150808054600181600116156101000203166002900480601f016020809104026020016040519081016040528092919081815260200182805460018160011615610100020316600290048015610d385780601f10610d0d57610100808354040283529160200191610d38565b820191906000526020600020905b815481529060010190602001808311610d1b57829003601f168201915b50505050509050965096509650965096509650965090919293949596565b60078054600181600116156101000203166002900480601f016020809104026020016040519081016040528092919081815260200182805460018160011615610100020316600290048015610dec5780601f10610dc157610100808354040283529160200191610dec565b820191906000526020600020905b815481529060010190602001808311610dcf57829003601f168201915b505050505081565b60068054600181600116156101000203166002900480601f016020809104026020016040519081016040528092919081815260200182805460018160011615610100020316600290048015610e8a5780601f10610e5f57610100808354040283529160200191610e8a565b820191906000526020600020905b815481529060010190602001808311610e6d57829003601f168201915b505050505081565b610e9a6106f1565b610ea357600080fd5b610eac81610eaf565b50565b600073ffffffffffffffffffffffffffffffffffffffff168173ffffffffffffffffffffffffffffffffffffffff161415610ee957600080fd5b8073ffffffffffffffffffffffffffffffffffffffff166000809054906101000a900473ffffffffffffffffffffffffffffffffffffffff1673ffffffffffffffffffffffffffffffffffffffff167f8be0079c531659141344cd1fd0a4f28419497f9722a3daafe3b4186f6b6457e060405160405180910390a3806000806101000a81548173ffffffffffffffffffffffffffffffffffffffff021916908373ffffffffffffffffffffffffffffffffffffffff16021790555050565b600081359050610fb681611498565b92915050565b600081359050610fcb816114af565b92915050565b600082601f830112610fe257600080fd5b8135610ff5610ff0826113aa565b61137d565b9150808252602083016020830185838301111561101157600080fd5b61101c838284611445565b50505092915050565b60006020828403121561103757600080fd5b600061104584828501610fa7565b91505092915050565b60008060006060848603121561106357600080fd5b600061107186828701610fbc565b935050602084013567ffffffffffffffff81111561108e57600080fd5b61109a86828701610fd1565b92505060406110ab86828701610fa7565b9150509250925092565b600080600080608085870312156110cb57600080fd5b60006110d987828801610fbc565b945050602085013567ffffffffffffffff8111156110f657600080fd5b61110287828801610fd1565b935050604085013567ffffffffffffffff81111561111f57600080fd5b61112b87828801610fd1565b925050606061113c87828801610fa7565b91505092959194509250565b611151816113fd565b82525050565b6111608161140f565b82525050565b61116f8161141b565b82525050565b6000611180826113e1565b61118a81856113ec565b935061119a818560208601611454565b6111a381611487565b840191505092915050565b60006111b9826113d6565b6111c381856113ec565b93506111d3818560208601611454565b6111dc81611487565b840191505092915050565b60006020820190506111fc6000830184611148565b92915050565b60006060820190506112176000830186611148565b81810360208301526112298185611175565b90506112386040830184611166565b949350505050565b60006020820190506112556000830184611157565b92915050565b60006020820190506112706000830184611166565b92915050565b600060608201905061128b6000830186611166565b818103602083015261129d8185611175565b905081810360408301526112b18184611175565b9050949350505050565b600060208201905081810360008301526112d581846111ae565b905092915050565b600060e08201905081810360008301526112f7818a611175565b9050818103602083015261130b8189611175565b9050818103604083015261131f8188611175565b905081810360608301526113338187611175565b905081810360808301526113478186611175565b905081810360a083015261135b8185611175565b905081810360c083015261136f8184611175565b905098975050505050505050565b6000604051905081810181811067ffffffffffffffff821117156113a057600080fd5b8060405250919050565b600067ffffffffffffffff8211156113c157600080fd5b601f19601f8301169050602081019050919050565b600081519050919050565b600081519050919050565b600082825260208201905092915050565b600061140882611425565b9050919050565b60008115159050919050565b6000819050919050565b600073ffffffffffffffffffffffffffffffffffffffff82169050919050565b82818337600083830152505050565b60005b83811015611472578082015181840152602081019050611457565b83811115611481576000848401525b50505050565b6000601f19601f8301169050919050565b6114a1816113fd565b81146114ac57600080fd5b50565b6114b88161141b565b81146114c357600080fd5b5056fea365627a7a72315820118f947020562c33f8299689b40bae3ac13f6f4c7830964deffbcd660449296f6c6578706572696d656e74616cf564736f6c6343000510004060806040523480156200001157600080fd5b50604051620016c0380380620016c08339818101604052620000379190810190620002e2565b336000806101000a81548173ffffffffffffffffffffffffffffffffffffffff021916908373ffffffffffffffffffffffffffffffffffffffff1602179055506000809054906101000a900473ffffffffffffffffffffffffffffffffffffffff1673ffffffffffffffffffffffffffffffffffffffff16600073ffffffffffffffffffffffffffffffffffffffff167f8be0079c531659141344cd1fd0a4f28419497f9722a3daafe3b4186f6b6457e060405160405180910390a380600360006101000a81548173ffffffffffffffffffffffffffffffffffffffff021916908373ffffffffffffffffffffffffffffffffffffffff16021790555062000145826200014d60201b60201c565b505062000371565b6200015d6200017b60201b60201c565b6200016757600080fd5b6200017881620001d260201b60201c565b50565b60008060009054906101000a900473ffffffffffffffffffffffffffffffffffffffff1673ffffffffffffffffffffffffffffffffffffffff163373ffffffffffffffffffffffffffffffffffffffff1614905090565b600073ffffffffffffffffffffffffffffffffffffffff168173ffffffffffffffffffffffffffffffffffffffff1614156200020d57600080fd5b8073ffffffffffffffffffffffffffffffffffffffff166000809054906101000a900473ffffffffffffffffffffffffffffffffffffffff1673ffffffffffffffffffffffffffffffffffffffff167f8be0079c531659141344cd1fd0a4f28419497f9722a3daafe3b4186f6b6457e060405160405180910390a3806000806101000a81548173ffffffffffffffffffffffffffffffffffffffff021916908373ffffffffffffffffffffffffffffffffffffffff16021790555050565b600081519050620002dc8162000357565b92915050565b60008060408385031215620002f657600080fd5b60006200030685828601620002cb565b92505060206200031985828601620002cb565b9150509250929050565b6000620003308262000337565b9050919050565b600073ffffffffffffffffffffffffffffffffffffffff82169050919050565b620003628162000323565b81146200036e57600080fd5b50565b61133f80620003816000396000f3fe608060405234801561001057600080fd5b506004361061009e5760003560e01c80638f32d59b116100665780638f32d59b1461014a57806395bf75fd14610168578063d7787eeb14610186578063ecadd443146101a2578063f2fde38b146101c05761009e565b80633ca03fcc146100a357806340f126ba146100d35780634b5a7c2314610106578063715018a6146101225780638da5cb5b1461012c575b600080fd5b6100bd60048036036100b89190810190610d82565b6101dc565b6040516100ca9190611003565b60405180910390f35b6100ed60048036036100e89190810190610cda565b6101fd565b6040516100fd949392919061107e565b60405180910390f35b610120600480360361011b9190810190610cda565b610307565b005b61012a610493565b005b610134610563565b6040516101419190610f90565b60405180910390f35b61015261058c565b60405161015f9190610fe8565b60405180910390f35b6101706105e3565b60405161017d919061101e565b60405180910390f35b6101a0600480360361019b9190810190610d03565b610609565b005b6101aa610809565b6040516101b79190610fc6565b60405180910390f35b6101da60048036036101d59190810190610c88565b6109e2565b005b600181815481106101e957fe5b906000526020600020016000915090505481565b6000806000606060006002600087815260200190815260200160002090508060000160009054906101000a900460ff168160000160019054906101000a900473ffffffffffffffffffffffffffffffffffffffff16826001015483600201808054600181600116156101000203166002900480601f0160208091040260200160405190810160405280929190818152602001828054600181600116156101000203166002900480156102f05780601f106102c5576101008083540402835291602001916102f0565b820191906000526020600020905b8154815290600101906020018083116102d357829003601f168201915b505050505090509450945094509450509193509193565b600360009054906101000a900473ffffffffffffffffffffffffffffffffffffffff1673ffffffffffffffffffffffffffffffffffffffff16632037d402336040518263ffffffff1660e01b81526004016103629190610fab565b60206040518083038186803b15801561037a57600080fd5b505afa15801561038e573d6000803e3d6000fd5b505050506040513d601f19601f820116820180604052506103b29190810190610cb1565b6103bb57600080fd5b3373ffffffffffffffffffffffffffffffffffffffff166002600083815260200190815260200160002060000160019054906101000a900473ffffffffffffffffffffffffffffffffffffffff1673ffffffffffffffffffffffffffffffffffffffff161461042957600080fd5b60006002600083815260200190815260200160002060000160006101000a81548160ff021916908360ff1602179055507fd7ba2a6b783e56f0c89569bd62a208506db11b7affd3241b2093454186567960816040516104889190611003565b60405180910390a150565b61049b61058c565b6104a457600080fd5b600073ffffffffffffffffffffffffffffffffffffffff166000809054906101000a900473ffffffffffffffffffffffffffffffffffffffff1673ffffffffffffffffffffffffffffffffffffffff167f8be0079c531659141344cd1fd0a4f28419497f9722a3daafe3b4186f6b6457e060405160405180910390a360008060006101000a81548173ffffffffffffffffffffffffffffffffffffffff021916908373ffffffffffffffffffffffffffffffffffffffff160217905550565b60008060009054906101000a900473ffffffffffffffffffffffffffffffffffffffff16905090565b60008060009054906101000a900473ffffffffffffffffffffffffffffffffffffffff1673ffffffffffffffffffffffffffffffffffffffff163373ffffffffffffffffffffffffffffffffffffffff1614905090565b600360009054906101000a900473ffffffffffffffffffffffffffffffffffffffff1681565b600360009054906101000a900473ffffffffffffffffffffffffffffffffffffffff1673ffffffffffffffffffffffffffffffffffffffff16632037d402336040518263ffffffff1660e01b81526004016106649190610fab565b60206040518083038186803b15801561067c57600080fd5b505afa158015610690573d6000803e3d6000fd5b505050506040513d601f19601f820116820180604052506106b49190810190610cb1565b6106bd57600080fd5b6040518060800160405280600160ff1681526020013373ffffffffffffffffffffffffffffffffffffffff168152602001848152602001828152506002600085815260200190815260200160002060008201518160000160006101000a81548160ff021916908360ff16021790555060208201518160000160016101000a81548173ffffffffffffffffffffffffffffffffffffffff021916908373ffffffffffffffffffffffffffffffffffffffff160217905550604082015181600101556060820151816002019080519060200190610799929190610af7565b5090505060018390806001815401808255809150509060018203906000526020600020016000909192909190915055507f950d82c3d2786c1e94a75b98878453641af6a2e4dc132187c32ffc0746f3dd488284836040516107fc93929190611039565b60405180910390a1505050565b60608060018054905060405190808252806020026020018201604052801561084b57816020015b610838610b77565b8152602001906001900390816108305790505b50905060008090505b600180805490500381116109da57600260006001838154811061087357fe5b906000526020600020015481526020019081526020016000206040518060800160405290816000820160009054906101000a900460ff1660ff1660ff1681526020016000820160019054906101000a900473ffffffffffffffffffffffffffffffffffffffff1673ffffffffffffffffffffffffffffffffffffffff1673ffffffffffffffffffffffffffffffffffffffff16815260200160018201548152602001600282018054600181600116156101000203166002900480601f0160208091040260200160405190810160405280929190818152602001828054600181600116156101000203166002900480156109ad5780601f10610982576101008083540402835291602001916109ad565b820191906000526020600020905b81548152906001019060200180831161099057829003601f168201915b5050505050815250508282815181106109c257fe5b60200260200101819052508080600101915050610854565b819250505090565b6109ea61058c565b6109f357600080fd5b6109fc816109ff565b50565b600073ffffffffffffffffffffffffffffffffffffffff168173ffffffffffffffffffffffffffffffffffffffff161415610a3957600080fd5b8073ffffffffffffffffffffffffffffffffffffffff166000809054906101000a900473ffffffffffffffffffffffffffffffffffffffff1673ffffffffffffffffffffffffffffffffffffffff167f8be0079c531659141344cd1fd0a4f28419497f9722a3daafe3b4186f6b6457e060405160405180910390a3806000806101000a81548173ffffffffffffffffffffffffffffffffffffffff021916908373ffffffffffffffffffffffffffffffffffffffff16021790555050565b828054600181600116156101000203166002900490600052602060002090601f016020900481019282601f10610b3857805160ff1916838001178555610b66565b82800160010185558215610b66579182015b82811115610b65578251825591602001919060010190610b4a565b5b509050610b739190610bbb565b5090565b6040518060800160405280600060ff168152602001600073ffffffffffffffffffffffffffffffffffffffff16815260200160008019168152602001606081525090565b610bdd91905b80821115610bd9576000816000905550600101610bc1565b5090565b90565b600081359050610bef816112a0565b92915050565b600081519050610c04816112b7565b92915050565b600081359050610c19816112ce565b92915050565b600082601f830112610c3057600080fd5b8135610c43610c3e826110f7565b6110ca565b91508082526020830160208301858383011115610c5f57600080fd5b610c6a83828461124d565b50505092915050565b600081359050610c82816112e5565b92915050565b600060208284031215610c9a57600080fd5b6000610ca884828501610be0565b91505092915050565b600060208284031215610cc357600080fd5b6000610cd184828501610bf5565b91505092915050565b600060208284031215610cec57600080fd5b6000610cfa84828501610c0a565b91505092915050565b600080600060608486031215610d1857600080fd5b6000610d2686828701610c0a565b935050602084013567ffffffffffffffff811115610d4357600080fd5b610d4f86828701610c1f565b925050604084013567ffffffffffffffff811115610d6c57600080fd5b610d7886828701610c1f565b9150509250925092565b600060208284031215610d9457600080fd5b6000610da284828501610c73565b91505092915050565b6000610db78383610f0f565b905092915050565b610dc8816111f3565b82525050565b610dd781611194565b82525050565b610de681611194565b82525050565b6000610df782611133565b610e018185611161565b935083602082028501610e1385611123565b8060005b85811015610e4f5784840389528151610e308582610dab565b9450610e3b83611154565b925060208a01995050600181019050610e17565b50829750879550505050505092915050565b610e6a816111a6565b82525050565b610e79816111b2565b82525050565b610e88816111b2565b82525050565b610e9781611205565b82525050565b6000610ea882611149565b610eb28185611183565b9350610ec281856020860161125c565b610ecb8161128f565b840191505092915050565b6000610ee18261113e565b610eeb8185611172565b9350610efb81856020860161125c565b610f048161128f565b840191505092915050565b6000608083016000830151610f276000860182610f72565b506020830151610f3a6020860182610dce565b506040830151610f4d6040860182610e70565b5060608301518482036060860152610f658282610ed6565b9150508091505092915050565b610f7b816111e6565b82525050565b610f8a816111e6565b82525050565b6000602082019050610fa56000830184610ddd565b92915050565b6000602082019050610fc06000830184610dbf565b92915050565b60006020820190508181036000830152610fe08184610dec565b905092915050565b6000602082019050610ffd6000830184610e61565b92915050565b60006020820190506110186000830184610e7f565b92915050565b60006020820190506110336000830184610e8e565b92915050565b600060608201905081810360008301526110538186610e9d565b90506110626020830185610e7f565b81810360408301526110748184610e9d565b9050949350505050565b60006080820190506110936000830187610f81565b6110a06020830186610ddd565b6110ad6040830185610e7f565b81810360608301526110bf8184610e9d565b905095945050505050565b6000604051905081810181811067ffffffffffffffff821117156110ed57600080fd5b8060405250919050565b600067ffffffffffffffff82111561110e57600080fd5b601f19601f8301169050602081019050919050565b6000819050602082019050919050565b600081519050919050565b600081519050919050565b600081519050919050565b6000602082019050919050565b600082825260208201905092915050565b600082825260208201905092915050565b600082825260208201905092915050565b600061119f826111bc565b9050919050565b60008115159050919050565b6000819050919050565b600073ffffffffffffffffffffffffffffffffffffffff82169050919050565b6000819050919050565b600060ff82169050919050565b60006111fe82611229565b9050919050565b600061121082611217565b9050919050565b6000611222826111bc565b9050919050565b60006112348261123b565b9050919050565b6000611246826111bc565b9050919050565b82818337600083830152505050565b60005b8381101561127a57808201518184015260208101905061125f565b83811115611289576000848401525b50505050565b6000601f19601f8301169050919050565b6112a981611194565b81146112b457600080fd5b50565b6112c0816111a6565b81146112cb57600080fd5b50565b6112d7816111b2565b81146112e257600080fd5b50565b6112ee816111dc565b81146112f957600080fd5b5056fea365627a7a72315820be6bf9b7a7430d4b13c0493f5bce08c9d194112cb38e625ebe2a3e46487f09806c6578706572696d656e74616cf564736f6c63430005100040a365627a7a723158203ce10fa0c7c250b32558b3037aebbf110fda7da54990afbb78b36c4797d39dd66c6578706572696d656e74616cf564736f6c63430005100040",
  "source": "pragma solidity >=0.4.22 <0.9.0;  \r\npragma experimental ABIEncoderV2;\r\n\r\ncontract Ownable {\r\n  address private _owner;\r\n\r\n  event OwnershipTransferred(\r\n    address indexed previousOwner,\r\n    address indexed newOwner\r\n  );\r\n\r\n  constructor() public {\r\n    _owner = msg.sender;\r\n    emit OwnershipTransferred(address(0), _owner);\r\n  }\r\n  function owner() public view returns(address) {\r\n    return _owner;\r\n  }\r\n  modifier onlyOwner() {\r\n    require(isOwner());\r\n    _;\r\n  }\r\n  function isOwner() public view returns(bool) {\r\n    return msg.sender == _owner;\r\n  }\r\n  function renounceOwnership() public onlyOwner {\r\n    emit OwnershipTransferred(_owner, address(0));\r\n    _owner = address(0);\r\n  }\r\n  function transferOwnership(address newOwner) public onlyOwner {\r\n    _transferOwnership(newOwner);\r\n  }\r\n  function _transferOwnership(address newOwner) internal {\r\n    require(newOwner != address(0));\r\n    emit OwnershipTransferred(_owner, newOwner);\r\n    _owner = newOwner;\r\n  }\r\n}\r\n\r\ncontract System is Ownable{ \r\n  address[] public schoolAddresses;\r\n  address[] public userAddresses;\r\n  mapping (address => address) public mapSchool; // school address => contract\r\n  mapping (address => address) public mapUser; // user address => contract\r\n\r\n  mapping (string => address) public idnumberToContract;\r\n\r\n  event addedSchool(string schoolCode, address newSchool, address newContract);\r\n  event changedSchoolContract(address _schoolAddr, address _contractAddr);\r\n  \r\n  event addedUser(string idnumber, address newUser, address newContract);\r\n  event changedUserContract(address _userAddr,address _contractAddr);\r\n\r\n  event createdUserContractWithIDNumber(string _idnumber);\r\n  \r\n  constructor() public{\r\n    transferOwnership(address(msg.sender));\r\n  } \r\n  modifier onlySchool() {\r\n    require(isSchool());\r\n    _;\r\n  }\r\n  function isSchool() public view returns(bool) {\r\n    if (mapSchool[msg.sender] != address(0)) return true;\r\n    return false;\r\n  }\r\n  function _isSchool(address schoolAddr) public view returns(bool) {\r\n    for (uint i=0; i< schoolAddresses.length; i++){\r\n      if (schoolAddr == schoolAddresses[i]) return true;\r\n    }\r\n    return false;\r\n  }\r\n  function _isSchoolContract(address schoolCA ) public view returns(bool) {\r\n    for (uint i=0; i< schoolAddresses.length; i++){\r\n      if (mapSchool[schoolAddresses[i]] == schoolCA) return true;\r\n    }\r\n    return false;\r\n  }\r\n  function _isUser(address userAddr) internal view returns(bool) {\r\n    for (uint i=0; i< userAddresses.length; i++){\r\n      if (userAddr == userAddresses[i]) return true;\r\n    }\r\n    return false;\r\n  }\r\n  function addSchool( string memory name,string memory code, string memory addressPlace, string memory phoneNumber, string memory email, string memory fax, string memory website, address schoolAddr)public onlyOwner(){\r\n    require(!(_isSchool(schoolAddr)));\r\n    schoolAddresses.push(schoolAddr);\r\n    School schoolContract = new School(name, code, addressPlace, phoneNumber, email, fax, website, schoolAddr);\r\n    mapSchool[schoolAddr] = address(schoolContract);\r\n    emit addedSchool(code, schoolAddr, address(schoolContract));\r\n  }\r\n  \r\n  function changeSchoolContract(address _schoolAddr, address _contractAddr) public onlyOwner(){\r\n    for(uint i = 0 ; i< schoolAddresses.length; i++){\r\n      if (schoolAddresses[i] == _schoolAddr){\r\n        mapSchool[_schoolAddr] = _contractAddr;\r\n        emit changedSchoolContract(_schoolAddr, _contractAddr);\r\n        return;\r\n      }\r\n    }\r\n  }\r\n  function getSchoolContractAddr(address _schoolAddr) public view returns(address){\r\n    if(mapSchool[_schoolAddr] == address(0)){\r\n      return address(0);\r\n    }\r\n    return mapSchool[_schoolAddr];\r\n  }\r\n  function addUser(address _userAddr, string memory _idnumber, address _userCA) public onlyOwner(){\r\n    userAddresses.push(_userAddr);\r\n    idnumberToContract[_idnumber] = _userCA;\r\n    mapUser[_userAddr] = _userCA;\r\n    emit addedUser(_idnumber, _userAddr, _userCA);\r\n  }\r\n  function changeUserContract(address _userAddr, address _contractAddr) public onlyOwner(){\r\n    for (uint i = 0 ; i< userAddresses.length; i++){\r\n      if (userAddresses[i] == _userAddr) {\r\n        mapUser[_userAddr] = _contractAddr;\r\n        emit changedUserContract(_userAddr, _contractAddr);\r\n        break;\r\n      }\r\n    }\r\n  }\r\n  function getUserContractAddr(address userAddr) public view returns(address) {\r\n    return (mapUser[userAddr] != address(0))? mapUser[userAddr] : address(0);\r\n  }\r\n  function createUserContractWithIDNumber (string memory _idnumber, address _sysCA) public onlyOwner(){\r\n    require(idnumberToContract[_idnumber] == address(0));\r\n    User userC = new User(msg.sender,_sysCA);\r\n    idnumberToContract[_idnumber] = address(userC);\r\n    emit createdUserContractWithIDNumber(_idnumber);\r\n  }\r\n  function getContractbyIDNumber (string memory _idnumber) public view returns(address){\r\n    return idnumberToContract[_idnumber];\r\n  }\r\n} \r\n\r\ncontract School is Ownable{\r\n  string public name;\r\n  string public code;\r\n  string public addressPlace;\r\n  string public phoneNumber;\r\n  string public email;\r\n  string public fax; \r\n  string public website;\r\n  \r\n  event addedCertificate(address _userCAddr,string _certNumber, bytes32 _certHash);\r\n  event deactivatedCertificate(address _userCAddr,string _certNumber, bytes32 _certHash);\r\n\r\n  constructor(\r\n    string memory _name,\r\n    string memory _code,\r\n    string memory _addressPlace,\r\n    string memory _phoneNumber,\r\n    string memory _email,\r\n    string memory _fax,\r\n    string memory _website,\r\n    address schAddr\r\n    ) public {\r\n      name = _name;\r\n      code = _code;\r\n      addressPlace = _addressPlace;\r\n      phoneNumber = _phoneNumber;\r\n      email = _email;\r\n      fax = _fax;\r\n      website = _website;\r\n      transferOwnership(schAddr);\r\n    }\r\n  function getSchool() public view returns (string memory, string memory, string memory, string memory, string memory, string memory, string memory){\r\n    return (name, code, addressPlace ,phoneNumber , email, fax, website);\r\n  }\r\n  function addCertificate(bytes32 _hashedCert,string memory _certNumber,string memory _ipfs, address userCAddr) public onlyOwner(){\r\n    User userI = User(userCAddr);\r\n    require (address(userI) != address(0));\r\n    userI.addCertificate(_hashedCert, _certNumber, _ipfs);\r\n    emit addedCertificate(userCAddr, _certNumber,  _hashedCert);\r\n  }\r\n  function deactivateCertificate(bytes32 _certHash, string memory _certNumber, address userCAddr) public onlyOwner(){\r\n    User userI = User(userCAddr);\r\n    require (address(userI) != address(0));\r\n    userI.deactivateCertificate(_certHash);\r\n    emit deactivatedCertificate(userCAddr, _certNumber, _certHash);\r\n  }\r\n}\r\n\r\ncontract User is Ownable{\r\n  struct Certificate {\r\n    uint8 state;\r\n    address schoolAddress;\r\n    bytes32 certHash;\r\n    string ipfs;\r\n  }\r\n\r\n  bytes32[] public certificateList;\r\n  mapping (bytes32 => Certificate) mapCertificates;\r\n  System public system;\r\n\r\n  event addedCertificate(string _certNumber, bytes32 _certHash, string _ipfs);\r\n  event deactivatedCertificate(bytes32 _certHash);\r\n\r\n  constructor(address userAddr, address _sysCA) public {\r\n    system = System(_sysCA);\r\n    transferOwnership(userAddr);\r\n  }\r\n  \r\n  modifier onlySchool() {\r\n    require(system._isSchoolContract(msg.sender));\r\n    _;\r\n  }\r\n  function addCertificate(bytes32 _hashedCert, string memory _certNumber, string memory _ipfs) public onlySchool(){\r\n    mapCertificates[_hashedCert] = Certificate(uint8(1), msg.sender, _hashedCert, _ipfs);\r\n    certificateList.push(_hashedCert);\r\n    emit addedCertificate(_certNumber, _hashedCert, _ipfs);\r\n  }\r\n  function deactivateCertificate(bytes32 _certHash) public onlySchool(){\r\n    require( mapCertificates[_certHash].schoolAddress == msg.sender);\r\n    mapCertificates[_certHash].state = uint8(0);\r\n    emit deactivatedCertificate( _certHash);\r\n  }\r\n  function viewCertificate(bytes32 _certHash) public view returns(uint8, address, bytes32, string memory){\r\n    Certificate storage cert = mapCertificates[_certHash];\r\n    return (cert.state, cert.schoolAddress, cert.certHash, cert.ipfs);\r\n  }\r\n  function getAllCertificate() public view returns(Certificate[] memory) {\r\n    Certificate[] memory returnData = new Certificate[](certificateList.length);\r\n    uint i=0;\r\n    for (i; i<= certificateList.length-1; i++){\r\n      returnData[i] = (mapCertificates[certificateList[i]]);\r\n    }\r\n    return returnData;\r\n  }\r\n}\r\n",
  "sourcePath": "D:\\labs\\project_QLVBCC\\src\\contracts\\myContract.sol",
  "compiler": {
    "name": "solc",
    "version": "0.5.16+commit.9c3226ce.Emscripten.clang"
  },
  "schemaVersion": "3.4.3",
  "updatedAt": "2021-12-15T17:35:49.150Z",
  "networkType": "ethereum",
  "devdoc": {
    "methods": {}
  },
  "userdoc": {
    "methods": {}
  }
}