{
  "contractName": "System",
  "abi": [
    {
      "inputs": [],
      "payable": false,
      "stateMutability": "nonpayable",
      "type": "constructor"
    },
    {
      "anonymous": false,
      "inputs": [
        {
          "indexed": true,
          "internalType": "address",
          "name": "previousOwner",
          "type": "address"
        },
        {
          "indexed": true,
          "internalType": "address",
          "name": "newOwner",
          "type": "address"
        }
      ],
      "name": "OwnershipTransferred",
      "type": "event"
    },
    {
      "anonymous": false,
      "inputs": [
        {
          "indexed": false,
          "internalType": "address",
          "name": "newSchool",
          "type": "address"
        },
        {
          "indexed": false,
          "internalType": "address",
          "name": "newContract",
          "type": "address"
        }
      ],
      "name": "addedSchool",
      "type": "event"
    },
    {
      "anonymous": false,
      "inputs": [
        {
          "indexed": false,
          "internalType": "address",
          "name": "newUser",
          "type": "address"
        },
        {
          "indexed": false,
          "internalType": "address",
          "name": "newContract",
          "type": "address"
        }
      ],
      "name": "addedUser",
      "type": "event"
    },
    {
      "anonymous": false,
      "inputs": [
        {
          "indexed": false,
          "internalType": "address",
          "name": "_schoolAddr",
          "type": "address"
        },
        {
          "indexed": false,
          "internalType": "address",
          "name": "_contractAddr",
          "type": "address"
        }
      ],
      "name": "changedSchoolContract",
      "type": "event"
    },
    {
      "anonymous": false,
      "inputs": [
        {
          "indexed": false,
          "internalType": "address",
          "name": "_userAddr",
          "type": "address"
        },
        {
          "indexed": false,
          "internalType": "address",
          "name": "_contractAddr",
          "type": "address"
        }
      ],
      "name": "changedUserContract",
      "type": "event"
    },
    {
      "anonymous": false,
      "inputs": [
        {
          "indexed": false,
          "internalType": "string",
          "name": "_idnumber",
          "type": "string"
        }
      ],
      "name": "createdUserContractWithIDNumber",
      "type": "event"
    },
    {
      "constant": true,
      "inputs": [
        {
          "internalType": "string",
          "name": "",
          "type": "string"
        }
      ],
      "name": "idnumberToContract",
      "outputs": [
        {
          "internalType": "address",
          "name": "",
          "type": "address"
        }
      ],
      "payable": false,
      "stateMutability": "view",
      "type": "function"
    },
    {
      "constant": true,
      "inputs": [],
      "name": "isOwner",
      "outputs": [
        {
          "internalType": "bool",
          "name": "",
          "type": "bool"
        }
      ],
      "payable": false,
      "stateMutability": "view",
      "type": "function"
    },
    {
      "constant": true,
      "inputs": [
        {
          "internalType": "address",
          "name": "",
          "type": "address"
        }
      ],
      "name": "mapSchool",
      "outputs": [
        {
          "internalType": "address",
          "name": "",
          "type": "address"
        }
      ],
      "payable": false,
      "stateMutability": "view",
      "type": "function"
    },
    {
      "constant": true,
      "inputs": [
        {
          "internalType": "address",
          "name": "",
          "type": "address"
        }
      ],
      "name": "mapUser",
      "outputs": [
        {
          "internalType": "address",
          "name": "",
          "type": "address"
        }
      ],
      "payable": false,
      "stateMutability": "view",
      "type": "function"
    },
    {
      "constant": true,
      "inputs": [],
      "name": "owner",
      "outputs": [
        {
          "internalType": "address",
          "name": "",
          "type": "address"
        }
      ],
      "payable": false,
      "stateMutability": "view",
      "type": "function"
    },
    {
      "constant": false,
      "inputs": [],
      "name": "renounceOwnership",
      "outputs": [],
      "payable": false,
      "stateMutability": "nonpayable",
      "type": "function"
    },
    {
      "constant": true,
      "inputs": [
        {
          "internalType": "uint256",
          "name": "",
          "type": "uint256"
        }
      ],
      "name": "schoolAddresses",
      "outputs": [
        {
          "internalType": "address",
          "name": "",
          "type": "address"
        }
      ],
      "payable": false,
      "stateMutability": "view",
      "type": "function"
    },
    {
      "constant": false,
      "inputs": [
        {
          "internalType": "address",
          "name": "newOwner",
          "type": "address"
        }
      ],
      "name": "transferOwnership",
      "outputs": [],
      "payable": false,
      "stateMutability": "nonpayable",
      "type": "function"
    },
    {
      "constant": true,
      "inputs": [
        {
          "internalType": "uint256",
          "name": "",
          "type": "uint256"
        }
      ],
      "name": "userAddresses",
      "outputs": [
        {
          "internalType": "address",
          "name": "",
          "type": "address"
        }
      ],
      "payable": false,
      "stateMutability": "view",
      "type": "function"
    },
    {
      "constant": true,
      "inputs": [],
      "name": "isSchool",
      "outputs": [
        {
          "internalType": "bool",
          "name": "",
          "type": "bool"
        }
      ],
      "payable": false,
      "stateMutability": "view",
      "type": "function"
    },
    {
      "constant": true,
      "inputs": [
        {
          "internalType": "address",
          "name": "schoolAddr",
          "type": "address"
        }
      ],
      "name": "_isSchool",
      "outputs": [
        {
          "internalType": "bool",
          "name": "",
          "type": "bool"
        }
      ],
      "payable": false,
      "stateMutability": "view",
      "type": "function"
    },
    {
      "constant": true,
      "inputs": [
        {
          "internalType": "address",
          "name": "schoolCA",
          "type": "address"
        }
      ],
      "name": "_isSchoolContract",
      "outputs": [
        {
          "internalType": "bool",
          "name": "",
          "type": "bool"
        }
      ],
      "payable": false,
      "stateMutability": "view",
      "type": "function"
    },
    {
      "constant": false,
      "inputs": [
        {
          "internalType": "string",
          "name": "name",
          "type": "string"
        },
        {
          "internalType": "string",
          "name": "addressPlace",
          "type": "string"
        },
        {
          "internalType": "string",
          "name": "phoneNumber",
          "type": "string"
        },
        {
          "internalType": "string",
          "name": "idnumber",
          "type": "string"
        },
        {
          "internalType": "string",
          "name": "fax",
          "type": "string"
        },
        {
          "internalType": "string",
          "name": "website",
          "type": "string"
        },
        {
          "internalType": "address",
          "name": "schoolAddr",
          "type": "address"
        }
      ],
      "name": "addSchool",
      "outputs": [],
      "payable": false,
      "stateMutability": "nonpayable",
      "type": "function"
    },
    {
      "constant": false,
      "inputs": [
        {
          "internalType": "address",
          "name": "_schoolAddr",
          "type": "address"
        },
        {
          "internalType": "address",
          "name": "_contractAddr",
          "type": "address"
        }
      ],
      "name": "changeSchoolContract",
      "outputs": [],
      "payable": false,
      "stateMutability": "nonpayable",
      "type": "function"
    },
    {
      "constant": true,
      "inputs": [
        {
          "internalType": "address",
          "name": "_schoolAddr",
          "type": "address"
        }
      ],
      "name": "getSchoolContractAddr",
      "outputs": [
        {
          "internalType": "address",
          "name": "",
          "type": "address"
        }
      ],
      "payable": false,
      "stateMutability": "view",
      "type": "function"
    },
    {
      "constant": false,
      "inputs": [
        {
          "internalType": "address",
          "name": "_userAddr",
          "type": "address"
        },
        {
          "internalType": "string",
          "name": "_idnumber",
          "type": "string"
        },
        {
          "internalType": "address",
          "name": "_userCA",
          "type": "address"
        }
      ],
      "name": "addUser",
      "outputs": [],
      "payable": false,
      "stateMutability": "nonpayable",
      "type": "function"
    },
    {
      "constant": false,
      "inputs": [
        {
          "internalType": "address",
          "name": "_userAddr",
          "type": "address"
        },
        {
          "internalType": "address",
          "name": "_contractAddr",
          "type": "address"
        }
      ],
      "name": "changeUserContract",
      "outputs": [],
      "payable": false,
      "stateMutability": "nonpayable",
      "type": "function"
    },
    {
      "constant": true,
      "inputs": [
        {
          "internalType": "address",
          "name": "userAddr",
          "type": "address"
        }
      ],
      "name": "getUserContractAddr",
      "outputs": [
        {
          "internalType": "address",
          "name": "",
          "type": "address"
        }
      ],
      "payable": false,
      "stateMutability": "view",
      "type": "function"
    },
    {
      "constant": false,
      "inputs": [
        {
          "internalType": "string",
          "name": "_idnumber",
          "type": "string"
        },
        {
          "internalType": "address",
          "name": "_sysCA",
          "type": "address"
        }
      ],
      "name": "createUserContractWithIDNumber",
      "outputs": [],
      "payable": false,
      "stateMutability": "nonpayable",
      "type": "function"
    },
    {
      "constant": true,
      "inputs": [
        {
          "internalType": "string",
          "name": "_idnumber",
          "type": "string"
        }
      ],
      "name": "getContractbyIDNumber",
      "outputs": [
        {
          "internalType": "address",
          "name": "",
          "type": "address"
        }
      ],
      "payable": false,
      "stateMutability": "view",
      "type": "function"
    }
  ],
  "bytecode": "0x60806040523480156200001157600080fd5b50336000806101000a81548173ffffffffffffffffffffffffffffffffffffffff021916908373ffffffffffffffffffffffffffffffffffffffff1602179055506000809054906101000a900473ffffffffffffffffffffffffffffffffffffffff1673ffffffffffffffffffffffffffffffffffffffff16600073ffffffffffffffffffffffffffffffffffffffff167f8be0079c531659141344cd1fd0a4f28419497f9722a3daafe3b4186f6b6457e060405160405180910390a3620000df33620000e560201b60201c565b62000263565b620000f56200011360201b60201c565b620000ff57600080fd5b62000110816200016a60201b60201c565b50565b60008060009054906101000a900473ffffffffffffffffffffffffffffffffffffffff1673ffffffffffffffffffffffffffffffffffffffff163373ffffffffffffffffffffffffffffffffffffffff1614905090565b600073ffffffffffffffffffffffffffffffffffffffff168173ffffffffffffffffffffffffffffffffffffffff161415620001a557600080fd5b8073ffffffffffffffffffffffffffffffffffffffff166000809054906101000a900473ffffffffffffffffffffffffffffffffffffffff1673ffffffffffffffffffffffffffffffffffffffff167f8be0079c531659141344cd1fd0a4f28419497f9722a3daafe3b4186f6b6457e060405160405180910390a3806000806101000a81548173ffffffffffffffffffffffffffffffffffffffff021916908373ffffffffffffffffffffffffffffffffffffffff16021790555050565b6148e080620002736000396000f3fe60806040523480156200001157600080fd5b5060043610620001485760003560e01c80637fd64a8811620000bd578063b298f55e116200007b578063b298f55e14620003a3578063b4c8a1e414620003d9578063b7600862146200040f578063f2fde38b1462000445578063f72459ec14620004655762000148565b80637fd64a8814620002e9578063862d71bc14620003095780638c53250214620003295780638da5cb5b146200035f5780638f32d59b14620003815762000148565b8063502c9bd5116200010b578063502c9bd5146200021b578063599bf09614620002515780636ce42a451462000287578063715018a614620002a75780637368a6b114620002b35762000148565b80632037d402146200014d5780633b8e69971462000183578063422e694f14620001a3578063464ededc14620001d95780634f5a565314620001fb575b600080fd5b6200016b60048036036200016591908101906200154d565b6200049b565b6040516200017a9190620019b7565b60405180910390f35b620001a160048036036200019b9190810190620016b3565b620005a1565b005b620001c16004803603620001bb919081019062001850565b6200070b565b604051620001d0919062001940565b60405180910390f35b620001e362000748565b604051620001f29190620019b7565b60405180910390f35b62000219600480360362000213919081019062001579565b620007ef565b005b62000239600480360362000233919081019062001850565b62000958565b60405162000248919062001940565b60405180910390f35b6200026f60048036036200026991908101906200154d565b62000995565b6040516200027e919062001940565b60405180910390f35b620002a560048036036200029f9190810190620015ba565b620009c8565b005b620002b162000b5f565b005b620002d16004803603620002cb91908101906200154d565b62000c32565b604051620002e09190620019b7565b60405180910390f35b6200030760048036036200030191908101906200170d565b62000cd9565b005b62000327600480360362000321919081019062001579565b62000e75565b005b6200034760048036036200034191908101906200166e565b62000fdc565b60405162000356919062001940565b60405180910390f35b6200036962001026565b60405162000378919062001940565b60405180910390f35b6200038b6200104f565b6040516200039a9190620019b7565b60405180910390f35b620003c16004803603620003bb91908101906200154d565b620010a6565b604051620003d0919062001940565b60405180910390f35b620003f76004803603620003f1919081019062001629565b620011ac565b60405162000406919062001940565b60405180910390f35b6200042d60048036036200042791908101906200154d565b620011f5565b6040516200043c919062001940565b60405180910390f35b6200046360048036036200045d91908101906200154d565b62001228565b005b6200048360048036036200047d91908101906200154d565b6200124a565b60405162000492919062001940565b60405180910390f35b600080600090505b60018054905081101562000596578273ffffffffffffffffffffffffffffffffffffffff166003600060018481548110620004da57fe5b9060005260206000200160009054906101000a900473ffffffffffffffffffffffffffffffffffffffff1673ffffffffffffffffffffffffffffffffffffffff1673ffffffffffffffffffffffffffffffffffffffff16815260200190815260200160002060009054906101000a900473ffffffffffffffffffffffffffffffffffffffff1673ffffffffffffffffffffffffffffffffffffffff161415620005885760019150506200059c565b8080600101915050620004a3565b50600090505b919050565b620005ab6200104f565b620005b557600080fd5b600073ffffffffffffffffffffffffffffffffffffffff16600583604051620005df919062001927565b908152602001604051809103902060009054906101000a900473ffffffffffffffffffffffffffffffffffffffff1673ffffffffffffffffffffffffffffffffffffffff16146200062f57600080fd5b6000338260405162000641906200144b565b6200064e9291906200195d565b604051809103906000f0801580156200066b573d6000803e3d6000fd5b5090508060058460405162000681919062001927565b908152602001604051809103902060006101000a81548173ffffffffffffffffffffffffffffffffffffffff021916908373ffffffffffffffffffffffffffffffffffffffff1602179055507faddc7b3e4414ee38ae5211d64cd9ac1caf2fcba96d32c1313077a72fa3a2768583604051620006fe9190620019d4565b60405180910390a1505050565b600181815481106200071957fe5b906000526020600020016000915054906101000a900473ffffffffffffffffffffffffffffffffffffffff1681565b60008073ffffffffffffffffffffffffffffffffffffffff16600360003373ffffffffffffffffffffffffffffffffffffffff1673ffffffffffffffffffffffffffffffffffffffff16815260200190815260200160002060009054906101000a900473ffffffffffffffffffffffffffffffffffffffff1673ffffffffffffffffffffffffffffffffffffffff1614620007e75760019050620007ec565b600090505b90565b620007f96200104f565b6200080357600080fd5b60008090505b60018054905081101562000952578273ffffffffffffffffffffffffffffffffffffffff16600182815481106200083c57fe5b9060005260206000200160009054906101000a900473ffffffffffffffffffffffffffffffffffffffff1673ffffffffffffffffffffffffffffffffffffffff161415620009445781600360008573ffffffffffffffffffffffffffffffffffffffff1673ffffffffffffffffffffffffffffffffffffffff16815260200190815260200160002060006101000a81548173ffffffffffffffffffffffffffffffffffffffff021916908373ffffffffffffffffffffffffffffffffffffffff1602179055507fc0a3af17a25887aa43a3dd7638fe667ec832469b0c828864ebd1234f072019cc8383604051620009359291906200198a565b60405180910390a15062000954565b808060010191505062000809565b505b5050565b600281815481106200096657fe5b906000526020600020016000915054906101000a900473ffffffffffffffffffffffffffffffffffffffff1681565b60046020528060005260406000206000915054906101000a900473ffffffffffffffffffffffffffffffffffffffff1681565b620009d26200104f565b620009dc57600080fd5b60028390806001815401808255809150509060018203906000526020600020016000909192909190916101000a81548173ffffffffffffffffffffffffffffffffffffffff021916908373ffffffffffffffffffffffffffffffffffffffff160217905550508060058360405162000a55919062001927565b908152602001604051809103902060006101000a81548173ffffffffffffffffffffffffffffffffffffffff021916908373ffffffffffffffffffffffffffffffffffffffff16021790555080600460008573ffffffffffffffffffffffffffffffffffffffff1673ffffffffffffffffffffffffffffffffffffffff16815260200190815260200160002060006101000a81548173ffffffffffffffffffffffffffffffffffffffff021916908373ffffffffffffffffffffffffffffffffffffffff1602179055507fbc167a461846eb85e4965d4d124056b1819670f1c5b6b46f1c97cd6874467a91838260405162000b529291906200198a565b60405180910390a1505050565b62000b696200104f565b62000b7357600080fd5b600073ffffffffffffffffffffffffffffffffffffffff166000809054906101000a900473ffffffffffffffffffffffffffffffffffffffff1673ffffffffffffffffffffffffffffffffffffffff167f8be0079c531659141344cd1fd0a4f28419497f9722a3daafe3b4186f6b6457e060405160405180910390a360008060006101000a81548173ffffffffffffffffffffffffffffffffffffffff021916908373ffffffffffffffffffffffffffffffffffffffff160217905550565b600080600090505b60018054905081101562000cce576001818154811062000c5657fe5b9060005260206000200160009054906101000a900473ffffffffffffffffffffffffffffffffffffffff1673ffffffffffffffffffffffffffffffffffffffff168373ffffffffffffffffffffffffffffffffffffffff16141562000cc057600191505062000cd4565b808060010191505062000c3a565b50600090505b919050565b62000ce36200104f565b62000ced57600080fd5b62000cf88162000c32565b1562000d0357600080fd5b60018190806001815401808255809150509060018203906000526020600020016000909192909190916101000a81548173ffffffffffffffffffffffffffffffffffffffff021916908373ffffffffffffffffffffffffffffffffffffffff1602179055505060008787878787878760405162000d809062001459565b62000d929796959493929190620019f8565b604051809103906000f08015801562000daf573d6000803e3d6000fd5b50905080600360008473ffffffffffffffffffffffffffffffffffffffff1673ffffffffffffffffffffffffffffffffffffffff16815260200190815260200160002060006101000a81548173ffffffffffffffffffffffffffffffffffffffff021916908373ffffffffffffffffffffffffffffffffffffffff1602179055507fdd19c2b37ce34cda2a2a56c4ee286e52174599ec90686fbdc109701c310e1748828260405162000e639291906200198a565b60405180910390a15050505050505050565b62000e7f6200104f565b62000e8957600080fd5b60008090505b60028054905081101562000fd7578273ffffffffffffffffffffffffffffffffffffffff166002828154811062000ec257fe5b9060005260206000200160009054906101000a900473ffffffffffffffffffffffffffffffffffffffff1673ffffffffffffffffffffffffffffffffffffffff16141562000fc95781600460008573ffffffffffffffffffffffffffffffffffffffff1673ffffffffffffffffffffffffffffffffffffffff16815260200190815260200160002060006101000a81548173ffffffffffffffffffffffffffffffffffffffff021916908373ffffffffffffffffffffffffffffffffffffffff1602179055507fefee54f73959f1033e2f8f9bc27666412c412835b7284b77da43f0207007da64838360405162000fbb9291906200198a565b60405180910390a162000fd7565b808060010191505062000e8f565b505050565b600060058260405162000ff0919062001927565b908152602001604051809103902060009054906101000a900473ffffffffffffffffffffffffffffffffffffffff169050919050565b60008060009054906101000a900473ffffffffffffffffffffffffffffffffffffffff16905090565b60008060009054906101000a900473ffffffffffffffffffffffffffffffffffffffff1673ffffffffffffffffffffffffffffffffffffffff163373ffffffffffffffffffffffffffffffffffffffff1614905090565b60008073ffffffffffffffffffffffffffffffffffffffff16600460008473ffffffffffffffffffffffffffffffffffffffff1673ffffffffffffffffffffffffffffffffffffffff16815260200190815260200160002060009054906101000a900473ffffffffffffffffffffffffffffffffffffffff1673ffffffffffffffffffffffffffffffffffffffff16141562001144576000620011a5565b600460008373ffffffffffffffffffffffffffffffffffffffff1673ffffffffffffffffffffffffffffffffffffffff16815260200190815260200160002060009054906101000a900473ffffffffffffffffffffffffffffffffffffffff165b9050919050565b6005818051602081018201805184825260208301602085012081835280955050505050506000915054906101000a900473ffffffffffffffffffffffffffffffffffffffff1681565b60036020528060005260406000206000915054906101000a900473ffffffffffffffffffffffffffffffffffffffff1681565b620012326200104f565b6200123c57600080fd5b620012478162001352565b50565b60008073ffffffffffffffffffffffffffffffffffffffff16600360008473ffffffffffffffffffffffffffffffffffffffff1673ffffffffffffffffffffffffffffffffffffffff16815260200190815260200160002060009054906101000a900473ffffffffffffffffffffffffffffffffffffffff1673ffffffffffffffffffffffffffffffffffffffff161415620012ea57600090506200134d565b600360008373ffffffffffffffffffffffffffffffffffffffff1673ffffffffffffffffffffffffffffffffffffffff16815260200190815260200160002060009054906101000a900473ffffffffffffffffffffffffffffffffffffffff1690505b919050565b600073ffffffffffffffffffffffffffffffffffffffff168173ffffffffffffffffffffffffffffffffffffffff1614156200138d57600080fd5b8073ffffffffffffffffffffffffffffffffffffffff166000809054906101000a900473ffffffffffffffffffffffffffffffffffffffff1673ffffffffffffffffffffffffffffffffffffffff167f8be0079c531659141344cd1fd0a4f28419497f9722a3daafe3b4186f6b6457e060405160405180910390a3806000806101000a81548173ffffffffffffffffffffffffffffffffffffffff021916908373ffffffffffffffffffffffffffffffffffffffff16021790555050565b6116c08062001c5f83390190565b61157f806200331f83390190565b600081359050620014788162001c2a565b92915050565b600082601f8301126200149057600080fd5b8135620014a7620014a18262001acd565b62001a9f565b91508082526020830160208301858383011115620014c457600080fd5b620014d183828462001bd4565b50505092915050565b600082601f830112620014ec57600080fd5b813562001503620014fd8262001afa565b62001a9f565b915080825260208301602083018583830111156200152057600080fd5b6200152d83828462001bd4565b50505092915050565b600081359050620015478162001c44565b92915050565b6000602082840312156200156057600080fd5b6000620015708482850162001467565b91505092915050565b600080604083850312156200158d57600080fd5b60006200159d8582860162001467565b9250506020620015b08582860162001467565b9150509250929050565b600080600060608486031215620015d057600080fd5b6000620015e08682870162001467565b935050602084013567ffffffffffffffff811115620015fe57600080fd5b6200160c86828701620014da565b92505060406200161f8682870162001467565b9150509250925092565b6000602082840312156200163c57600080fd5b600082013567ffffffffffffffff8111156200165757600080fd5b62001665848285016200147e565b91505092915050565b6000602082840312156200168157600080fd5b600082013567ffffffffffffffff8111156200169c57600080fd5b620016aa84828501620014da565b91505092915050565b60008060408385031215620016c757600080fd5b600083013567ffffffffffffffff811115620016e257600080fd5b620016f085828601620014da565b9250506020620017038582860162001467565b9150509250929050565b600080600080600080600060e0888a0312156200172957600080fd5b600088013567ffffffffffffffff8111156200174457600080fd5b620017528a828b01620014da565b975050602088013567ffffffffffffffff8111156200177057600080fd5b6200177e8a828b01620014da565b965050604088013567ffffffffffffffff8111156200179c57600080fd5b620017aa8a828b01620014da565b955050606088013567ffffffffffffffff811115620017c857600080fd5b620017d68a828b01620014da565b945050608088013567ffffffffffffffff811115620017f457600080fd5b620018028a828b01620014da565b93505060a088013567ffffffffffffffff8111156200182057600080fd5b6200182e8a828b01620014da565b92505060c0620018418a828b0162001467565b91505092959891949750929550565b6000602082840312156200186357600080fd5b6000620018738482850162001536565b91505092915050565b620018878162001b98565b82525050565b620018988162001b4e565b82525050565b620018a98162001b62565b82525050565b6000620018bc8262001b27565b620018c8818562001b32565b9350620018da81856020860162001be3565b620018e58162001c19565b840191505092915050565b6000620018fd8262001b27565b62001909818562001b43565b93506200191b81856020860162001be3565b80840191505092915050565b6000620019358284620018f0565b915081905092915050565b60006020820190506200195760008301846200188d565b92915050565b60006040820190506200197460008301856200187c565b6200198360208301846200188d565b9392505050565b6000604082019050620019a160008301856200188d565b620019b060208301846200188d565b9392505050565b6000602082019050620019ce60008301846200189e565b92915050565b60006020820190508181036000830152620019f08184620018af565b905092915050565b600060e082019050818103600083015262001a14818a620018af565b9050818103602083015262001a2a8189620018af565b9050818103604083015262001a408188620018af565b9050818103606083015262001a568187620018af565b9050818103608083015262001a6c8186620018af565b905081810360a083015262001a828185620018af565b905062001a9360c08301846200188d565b98975050505050505050565b6000604051905081810181811067ffffffffffffffff8211171562001ac357600080fd5b8060405250919050565b600067ffffffffffffffff82111562001ae557600080fd5b601f19601f8301169050602081019050919050565b600067ffffffffffffffff82111562001b1257600080fd5b601f19601f8301169050602081019050919050565b600081519050919050565b600082825260208201905092915050565b600081905092915050565b600062001b5b8262001b6e565b9050919050565b60008115159050919050565b600073ffffffffffffffffffffffffffffffffffffffff82169050919050565b6000819050919050565b600062001ba58262001bac565b9050919050565b600062001bb98262001bc0565b9050919050565b600062001bcd8262001b6e565b9050919050565b82818337600083830152505050565b60005b8381101562001c0357808201518184015260208101905062001be6565b8381111562001c13576000848401525b50505050565b6000601f19601f8301169050919050565b62001c358162001b4e565b811462001c4157600080fd5b50565b62001c4f8162001b8e565b811462001c5b57600080fd5b5056fe60806040523480156200001157600080fd5b50604051620016c0380380620016c08339818101604052620000379190810190620002e2565b336000806101000a81548173ffffffffffffffffffffffffffffffffffffffff021916908373ffffffffffffffffffffffffffffffffffffffff1602179055506000809054906101000a900473ffffffffffffffffffffffffffffffffffffffff1673ffffffffffffffffffffffffffffffffffffffff16600073ffffffffffffffffffffffffffffffffffffffff167f8be0079c531659141344cd1fd0a4f28419497f9722a3daafe3b4186f6b6457e060405160405180910390a380600360006101000a81548173ffffffffffffffffffffffffffffffffffffffff021916908373ffffffffffffffffffffffffffffffffffffffff16021790555062000145826200014d60201b60201c565b505062000371565b6200015d6200017b60201b60201c565b6200016757600080fd5b6200017881620001d260201b60201c565b50565b60008060009054906101000a900473ffffffffffffffffffffffffffffffffffffffff1673ffffffffffffffffffffffffffffffffffffffff163373ffffffffffffffffffffffffffffffffffffffff1614905090565b600073ffffffffffffffffffffffffffffffffffffffff168173ffffffffffffffffffffffffffffffffffffffff1614156200020d57600080fd5b8073ffffffffffffffffffffffffffffffffffffffff166000809054906101000a900473ffffffffffffffffffffffffffffffffffffffff1673ffffffffffffffffffffffffffffffffffffffff167f8be0079c531659141344cd1fd0a4f28419497f9722a3daafe3b4186f6b6457e060405160405180910390a3806000806101000a81548173ffffffffffffffffffffffffffffffffffffffff021916908373ffffffffffffffffffffffffffffffffffffffff16021790555050565b600081519050620002dc8162000357565b92915050565b60008060408385031215620002f657600080fd5b60006200030685828601620002cb565b92505060206200031985828601620002cb565b9150509250929050565b6000620003308262000337565b9050919050565b600073ffffffffffffffffffffffffffffffffffffffff82169050919050565b620003628162000323565b81146200036e57600080fd5b50565b61133f80620003816000396000f3fe608060405234801561001057600080fd5b506004361061009e5760003560e01c80638f32d59b116100665780638f32d59b1461014a57806395bf75fd14610168578063d7787eeb14610186578063ecadd443146101a2578063f2fde38b146101c05761009e565b80633ca03fcc146100a357806340f126ba146100d35780634b5a7c2314610106578063715018a6146101225780638da5cb5b1461012c575b600080fd5b6100bd60048036036100b89190810190610d82565b6101dc565b6040516100ca9190611003565b60405180910390f35b6100ed60048036036100e89190810190610cda565b6101fd565b6040516100fd949392919061107e565b60405180910390f35b610120600480360361011b9190810190610cda565b610307565b005b61012a610493565b005b610134610563565b6040516101419190610f90565b60405180910390f35b61015261058c565b60405161015f9190610fe8565b60405180910390f35b6101706105e3565b60405161017d919061101e565b60405180910390f35b6101a0600480360361019b9190810190610d03565b610609565b005b6101aa610809565b6040516101b79190610fc6565b60405180910390f35b6101da60048036036101d59190810190610c88565b6109e2565b005b600181815481106101e957fe5b906000526020600020016000915090505481565b6000806000606060006002600087815260200190815260200160002090508060000160009054906101000a900460ff168160000160019054906101000a900473ffffffffffffffffffffffffffffffffffffffff16826001015483600201808054600181600116156101000203166002900480601f0160208091040260200160405190810160405280929190818152602001828054600181600116156101000203166002900480156102f05780601f106102c5576101008083540402835291602001916102f0565b820191906000526020600020905b8154815290600101906020018083116102d357829003601f168201915b505050505090509450945094509450509193509193565b600360009054906101000a900473ffffffffffffffffffffffffffffffffffffffff1673ffffffffffffffffffffffffffffffffffffffff16632037d402336040518263ffffffff1660e01b81526004016103629190610fab565b60206040518083038186803b15801561037a57600080fd5b505afa15801561038e573d6000803e3d6000fd5b505050506040513d601f19601f820116820180604052506103b29190810190610cb1565b6103bb57600080fd5b3373ffffffffffffffffffffffffffffffffffffffff166002600083815260200190815260200160002060000160019054906101000a900473ffffffffffffffffffffffffffffffffffffffff1673ffffffffffffffffffffffffffffffffffffffff161461042957600080fd5b60006002600083815260200190815260200160002060000160006101000a81548160ff021916908360ff1602179055507fd7ba2a6b783e56f0c89569bd62a208506db11b7affd3241b2093454186567960816040516104889190611003565b60405180910390a150565b61049b61058c565b6104a457600080fd5b600073ffffffffffffffffffffffffffffffffffffffff166000809054906101000a900473ffffffffffffffffffffffffffffffffffffffff1673ffffffffffffffffffffffffffffffffffffffff167f8be0079c531659141344cd1fd0a4f28419497f9722a3daafe3b4186f6b6457e060405160405180910390a360008060006101000a81548173ffffffffffffffffffffffffffffffffffffffff021916908373ffffffffffffffffffffffffffffffffffffffff160217905550565b60008060009054906101000a900473ffffffffffffffffffffffffffffffffffffffff16905090565b60008060009054906101000a900473ffffffffffffffffffffffffffffffffffffffff1673ffffffffffffffffffffffffffffffffffffffff163373ffffffffffffffffffffffffffffffffffffffff1614905090565b600360009054906101000a900473ffffffffffffffffffffffffffffffffffffffff1681565b600360009054906101000a900473ffffffffffffffffffffffffffffffffffffffff1673ffffffffffffffffffffffffffffffffffffffff16632037d402336040518263ffffffff1660e01b81526004016106649190610fab565b60206040518083038186803b15801561067c57600080fd5b505afa158015610690573d6000803e3d6000fd5b505050506040513d601f19601f820116820180604052506106b49190810190610cb1565b6106bd57600080fd5b6040518060800160405280600160ff1681526020013373ffffffffffffffffffffffffffffffffffffffff168152602001848152602001828152506002600085815260200190815260200160002060008201518160000160006101000a81548160ff021916908360ff16021790555060208201518160000160016101000a81548173ffffffffffffffffffffffffffffffffffffffff021916908373ffffffffffffffffffffffffffffffffffffffff160217905550604082015181600101556060820151816002019080519060200190610799929190610af7565b5090505060018390806001815401808255809150509060018203906000526020600020016000909192909190915055507f950d82c3d2786c1e94a75b98878453641af6a2e4dc132187c32ffc0746f3dd488284836040516107fc93929190611039565b60405180910390a1505050565b60608060018054905060405190808252806020026020018201604052801561084b57816020015b610838610b77565b8152602001906001900390816108305790505b50905060008090505b600180805490500381116109da57600260006001838154811061087357fe5b906000526020600020015481526020019081526020016000206040518060800160405290816000820160009054906101000a900460ff1660ff1660ff1681526020016000820160019054906101000a900473ffffffffffffffffffffffffffffffffffffffff1673ffffffffffffffffffffffffffffffffffffffff1673ffffffffffffffffffffffffffffffffffffffff16815260200160018201548152602001600282018054600181600116156101000203166002900480601f0160208091040260200160405190810160405280929190818152602001828054600181600116156101000203166002900480156109ad5780601f10610982576101008083540402835291602001916109ad565b820191906000526020600020905b81548152906001019060200180831161099057829003601f168201915b5050505050815250508282815181106109c257fe5b60200260200101819052508080600101915050610854565b819250505090565b6109ea61058c565b6109f357600080fd5b6109fc816109ff565b50565b600073ffffffffffffffffffffffffffffffffffffffff168173ffffffffffffffffffffffffffffffffffffffff161415610a3957600080fd5b8073ffffffffffffffffffffffffffffffffffffffff166000809054906101000a900473ffffffffffffffffffffffffffffffffffffffff1673ffffffffffffffffffffffffffffffffffffffff167f8be0079c531659141344cd1fd0a4f28419497f9722a3daafe3b4186f6b6457e060405160405180910390a3806000806101000a81548173ffffffffffffffffffffffffffffffffffffffff021916908373ffffffffffffffffffffffffffffffffffffffff16021790555050565b828054600181600116156101000203166002900490600052602060002090601f016020900481019282601f10610b3857805160ff1916838001178555610b66565b82800160010185558215610b66579182015b82811115610b65578251825591602001919060010190610b4a565b5b509050610b739190610bbb565b5090565b6040518060800160405280600060ff168152602001600073ffffffffffffffffffffffffffffffffffffffff16815260200160008019168152602001606081525090565b610bdd91905b80821115610bd9576000816000905550600101610bc1565b5090565b90565b600081359050610bef816112a0565b92915050565b600081519050610c04816112b7565b92915050565b600081359050610c19816112ce565b92915050565b600082601f830112610c3057600080fd5b8135610c43610c3e826110f7565b6110ca565b91508082526020830160208301858383011115610c5f57600080fd5b610c6a83828461124d565b50505092915050565b600081359050610c82816112e5565b92915050565b600060208284031215610c9a57600080fd5b6000610ca884828501610be0565b91505092915050565b600060208284031215610cc357600080fd5b6000610cd184828501610bf5565b91505092915050565b600060208284031215610cec57600080fd5b6000610cfa84828501610c0a565b91505092915050565b600080600060608486031215610d1857600080fd5b6000610d2686828701610c0a565b935050602084013567ffffffffffffffff811115610d4357600080fd5b610d4f86828701610c1f565b925050604084013567ffffffffffffffff811115610d6c57600080fd5b610d7886828701610c1f565b9150509250925092565b600060208284031215610d9457600080fd5b6000610da284828501610c73565b91505092915050565b6000610db78383610f0f565b905092915050565b610dc8816111f3565b82525050565b610dd781611194565b82525050565b610de681611194565b82525050565b6000610df782611133565b610e018185611161565b935083602082028501610e1385611123565b8060005b85811015610e4f5784840389528151610e308582610dab565b9450610e3b83611154565b925060208a01995050600181019050610e17565b50829750879550505050505092915050565b610e6a816111a6565b82525050565b610e79816111b2565b82525050565b610e88816111b2565b82525050565b610e9781611205565b82525050565b6000610ea882611149565b610eb28185611183565b9350610ec281856020860161125c565b610ecb8161128f565b840191505092915050565b6000610ee18261113e565b610eeb8185611172565b9350610efb81856020860161125c565b610f048161128f565b840191505092915050565b6000608083016000830151610f276000860182610f72565b506020830151610f3a6020860182610dce565b506040830151610f4d6040860182610e70565b5060608301518482036060860152610f658282610ed6565b9150508091505092915050565b610f7b816111e6565b82525050565b610f8a816111e6565b82525050565b6000602082019050610fa56000830184610ddd565b92915050565b6000602082019050610fc06000830184610dbf565b92915050565b60006020820190508181036000830152610fe08184610dec565b905092915050565b6000602082019050610ffd6000830184610e61565b92915050565b60006020820190506110186000830184610e7f565b92915050565b60006020820190506110336000830184610e8e565b92915050565b600060608201905081810360008301526110538186610e9d565b90506110626020830185610e7f565b81810360408301526110748184610e9d565b9050949350505050565b60006080820190506110936000830187610f81565b6110a06020830186610ddd565b6110ad6040830185610e7f565b81810360608301526110bf8184610e9d565b905095945050505050565b6000604051905081810181811067ffffffffffffffff821117156110ed57600080fd5b8060405250919050565b600067ffffffffffffffff82111561110e57600080fd5b601f19601f8301169050602081019050919050565b6000819050602082019050919050565b600081519050919050565b600081519050919050565b600081519050919050565b6000602082019050919050565b600082825260208201905092915050565b600082825260208201905092915050565b600082825260208201905092915050565b600061119f826111bc565b9050919050565b60008115159050919050565b6000819050919050565b600073ffffffffffffffffffffffffffffffffffffffff82169050919050565b6000819050919050565b600060ff82169050919050565b60006111fe82611229565b9050919050565b600061121082611217565b9050919050565b6000611222826111bc565b9050919050565b60006112348261123b565b9050919050565b6000611246826111bc565b9050919050565b82818337600083830152505050565b60005b8381101561127a57808201518184015260208101905061125f565b83811115611289576000848401525b50505050565b6000601f19601f8301169050919050565b6112a981611194565b81146112b457600080fd5b50565b6112c0816111a6565b81146112cb57600080fd5b50565b6112d7816111b2565b81146112e257600080fd5b50565b6112ee816111dc565b81146112f957600080fd5b5056fea365627a7a72315820ecc2ca2cdfdecddbfc38a903c3be0a692ee4731efa04bdd584c59a1e0efdc9f76c6578706572696d656e74616cf564736f6c6343000510004060806040523480156200001157600080fd5b506040516200157f3803806200157f833981810160405262000037919081019062000447565b336000806101000a81548173ffffffffffffffffffffffffffffffffffffffff021916908373ffffffffffffffffffffffffffffffffffffffff1602179055506000809054906101000a900473ffffffffffffffffffffffffffffffffffffffff1673ffffffffffffffffffffffffffffffffffffffff16600073ffffffffffffffffffffffffffffffffffffffff167f8be0079c531659141344cd1fd0a4f28419497f9722a3daafe3b4186f6b6457e060405160405180910390a386600190805190602001906200010b92919062000325565b5085600290805190602001906200012492919062000325565b5084600390805190602001906200013d92919062000325565b5083600490805190602001906200015692919062000325565b5082600590805190602001906200016f92919062000325565b5081600690805190602001906200018892919062000325565b506200019a81620001a760201b60201c565b5050505050505062000669565b620001b7620001d560201b60201c565b620001c157600080fd5b620001d2816200022c60201b60201c565b50565b60008060009054906101000a900473ffffffffffffffffffffffffffffffffffffffff1673ffffffffffffffffffffffffffffffffffffffff163373ffffffffffffffffffffffffffffffffffffffff1614905090565b600073ffffffffffffffffffffffffffffffffffffffff168173ffffffffffffffffffffffffffffffffffffffff1614156200026757600080fd5b8073ffffffffffffffffffffffffffffffffffffffff166000809054906101000a900473ffffffffffffffffffffffffffffffffffffffff1673ffffffffffffffffffffffffffffffffffffffff167f8be0079c531659141344cd1fd0a4f28419497f9722a3daafe3b4186f6b6457e060405160405180910390a3806000806101000a81548173ffffffffffffffffffffffffffffffffffffffff021916908373ffffffffffffffffffffffffffffffffffffffff16021790555050565b828054600181600116156101000203166002900490600052602060002090601f016020900481019282601f106200036857805160ff191683800117855562000399565b8280016001018555821562000399579182015b82811115620003985782518255916020019190600101906200037b565b5b509050620003a89190620003ac565b5090565b620003d191905b80821115620003cd576000816000905550600101620003b3565b5090565b90565b600081519050620003e5816200064f565b92915050565b600082601f830112620003fd57600080fd5b8151620004146200040e82620005b8565b6200058a565b915080825260208301602083018583830111156200043157600080fd5b6200043e83828462000619565b50505092915050565b600080600080600080600060e0888a0312156200046357600080fd5b600088015167ffffffffffffffff8111156200047e57600080fd5b6200048c8a828b01620003eb565b975050602088015167ffffffffffffffff811115620004aa57600080fd5b620004b88a828b01620003eb565b965050604088015167ffffffffffffffff811115620004d657600080fd5b620004e48a828b01620003eb565b955050606088015167ffffffffffffffff8111156200050257600080fd5b620005108a828b01620003eb565b945050608088015167ffffffffffffffff8111156200052e57600080fd5b6200053c8a828b01620003eb565b93505060a088015167ffffffffffffffff8111156200055a57600080fd5b620005688a828b01620003eb565b92505060c06200057b8a828b01620003d4565b91505092959891949750929550565b6000604051905081810181811067ffffffffffffffff82111715620005ae57600080fd5b8060405250919050565b600067ffffffffffffffff821115620005d057600080fd5b601f19601f8301169050602081019050919050565b6000620005f282620005f9565b9050919050565b600073ffffffffffffffffffffffffffffffffffffffff82169050919050565b60005b83811015620006395780820151818401526020810190506200061c565b8381111562000649576000848401525b50505050565b6200065a81620005e5565b81146200066657600080fd5b50565b610f0680620006796000396000f3fe608060405234801561001057600080fd5b50600436106100cf5760003560e01c806390ef58731161008c578063be7ebe5f11610066578063be7ebe5f146101b6578063beb0a416146101d4578063ef690ad4146101f2578063f2fde38b14610210576100cf565b806390ef58731461017257806396b275fc1461018e578063a9e3e7c1146101ac576100cf565b806306fdde03146100d457806327879ab7146100f2578063715018a61461010e578063747f3380146101185780638da5cb5b146101365780638f32d59b14610154575b600080fd5b6100dc61022c565b6040516100e99190610d58565b60405180910390f35b61010c60048036036101079190810190610b52565b6102ca565b005b6101166103cb565b005b61012061049b565b60405161012d9190610d58565b60405180910390f35b61013e610539565b60405161014b9190610c84565b60405180910390f35b61015c610562565b6040516101699190610cdd565b60405180910390f35b61018c60048036036101879190810190610aeb565b6105b9565b005b6101966106b5565b6040516101a39190610d58565b60405180910390f35b6101b4610753565b005b6101be610755565b6040516101cb9190610d58565b60405180910390f35b6101dc6107f3565b6040516101e99190610d58565b60405180910390f35b6101fa610891565b6040516102079190610d58565b60405180910390f35b61022a60048036036102259190810190610ac2565b61092f565b005b60018054600181600116156101000203166002900480601f0160208091040260200160405190810160405280929190818152602001828054600181600116156101000203166002900480156102c25780601f10610297576101008083540402835291602001916102c2565b820191906000526020600020905b8154815290600101906020018083116102a557829003601f168201915b505050505081565b6102d2610562565b6102db57600080fd5b6000819050600073ffffffffffffffffffffffffffffffffffffffff168173ffffffffffffffffffffffffffffffffffffffff16141561031a57600080fd5b8073ffffffffffffffffffffffffffffffffffffffff1663d7787eeb8686866040518463ffffffff1660e01b815260040161035793929190610d13565b600060405180830381600087803b15801561037157600080fd5b505af1158015610385573d6000803e3d6000fd5b505050507f29ce43725d4bb7eab2eba2456a54567781f53da28f5a5e6ad76948ca3dad62d78285876040516103bc93929190610c9f565b60405180910390a15050505050565b6103d3610562565b6103dc57600080fd5b600073ffffffffffffffffffffffffffffffffffffffff166000809054906101000a900473ffffffffffffffffffffffffffffffffffffffff1673ffffffffffffffffffffffffffffffffffffffff167f8be0079c531659141344cd1fd0a4f28419497f9722a3daafe3b4186f6b6457e060405160405180910390a360008060006101000a81548173ffffffffffffffffffffffffffffffffffffffff021916908373ffffffffffffffffffffffffffffffffffffffff160217905550565b60038054600181600116156101000203166002900480601f0160208091040260200160405190810160405280929190818152602001828054600181600116156101000203166002900480156105315780601f1061050657610100808354040283529160200191610531565b820191906000526020600020905b81548152906001019060200180831161051457829003601f168201915b505050505081565b60008060009054906101000a900473ffffffffffffffffffffffffffffffffffffffff16905090565b60008060009054906101000a900473ffffffffffffffffffffffffffffffffffffffff1673ffffffffffffffffffffffffffffffffffffffff163373ffffffffffffffffffffffffffffffffffffffff1614905090565b6105c1610562565b6105ca57600080fd5b6000819050600073ffffffffffffffffffffffffffffffffffffffff168173ffffffffffffffffffffffffffffffffffffffff16141561060957600080fd5b8073ffffffffffffffffffffffffffffffffffffffff16634b5a7c23856040518263ffffffff1660e01b81526004016106429190610cf8565b600060405180830381600087803b15801561065c57600080fd5b505af1158015610670573d6000803e3d6000fd5b505050507f4b767ae7cceb4be6f856fff380d53455e3f6a1f96e7e19dde9a75ad1bd32a2678284866040516106a793929190610c9f565b60405180910390a150505050565b60028054600181600116156101000203166002900480601f01602080910402602001604051908101604052809291908181526020018280546001816001161561010002031660029004801561074b5780601f106107205761010080835404028352916020019161074b565b820191906000526020600020905b81548152906001019060200180831161072e57829003601f168201915b505050505081565b565b60048054600181600116156101000203166002900480601f0160208091040260200160405190810160405280929190818152602001828054600181600116156101000203166002900480156107eb5780601f106107c0576101008083540402835291602001916107eb565b820191906000526020600020905b8154815290600101906020018083116107ce57829003601f168201915b505050505081565b60068054600181600116156101000203166002900480601f0160208091040260200160405190810160405280929190818152602001828054600181600116156101000203166002900480156108895780601f1061085e57610100808354040283529160200191610889565b820191906000526020600020905b81548152906001019060200180831161086c57829003601f168201915b505050505081565b60058054600181600116156101000203166002900480601f0160208091040260200160405190810160405280929190818152602001828054600181600116156101000203166002900480156109275780601f106108fc57610100808354040283529160200191610927565b820191906000526020600020905b81548152906001019060200180831161090a57829003601f168201915b505050505081565b610937610562565b61094057600080fd5b6109498161094c565b50565b600073ffffffffffffffffffffffffffffffffffffffff168173ffffffffffffffffffffffffffffffffffffffff16141561098657600080fd5b8073ffffffffffffffffffffffffffffffffffffffff166000809054906101000a900473ffffffffffffffffffffffffffffffffffffffff1673ffffffffffffffffffffffffffffffffffffffff167f8be0079c531659141344cd1fd0a4f28419497f9722a3daafe3b4186f6b6457e060405160405180910390a3806000806101000a81548173ffffffffffffffffffffffffffffffffffffffff021916908373ffffffffffffffffffffffffffffffffffffffff16021790555050565b600081359050610a5381610e95565b92915050565b600081359050610a6881610eac565b92915050565b600082601f830112610a7f57600080fd5b8135610a92610a8d82610da7565b610d7a565b91508082526020830160208301858383011115610aae57600080fd5b610ab9838284610e42565b50505092915050565b600060208284031215610ad457600080fd5b6000610ae284828501610a44565b91505092915050565b600080600060608486031215610b0057600080fd5b6000610b0e86828701610a59565b935050602084013567ffffffffffffffff811115610b2b57600080fd5b610b3786828701610a6e565b9250506040610b4886828701610a44565b9150509250925092565b60008060008060808587031215610b6857600080fd5b6000610b7687828801610a59565b945050602085013567ffffffffffffffff811115610b9357600080fd5b610b9f87828801610a6e565b935050604085013567ffffffffffffffff811115610bbc57600080fd5b610bc887828801610a6e565b9250506060610bd987828801610a44565b91505092959194509250565b610bee81610dfa565b82525050565b610bfd81610e0c565b82525050565b610c0c81610e18565b82525050565b6000610c1d82610dde565b610c278185610de9565b9350610c37818560208601610e51565b610c4081610e84565b840191505092915050565b6000610c5682610dd3565b610c608185610de9565b9350610c70818560208601610e51565b610c7981610e84565b840191505092915050565b6000602082019050610c996000830184610be5565b92915050565b6000606082019050610cb46000830186610be5565b8181036020830152610cc68185610c12565b9050610cd56040830184610c03565b949350505050565b6000602082019050610cf26000830184610bf4565b92915050565b6000602082019050610d0d6000830184610c03565b92915050565b6000606082019050610d286000830186610c03565b8181036020830152610d3a8185610c12565b90508181036040830152610d4e8184610c12565b9050949350505050565b60006020820190508181036000830152610d728184610c4b565b905092915050565b6000604051905081810181811067ffffffffffffffff82111715610d9d57600080fd5b8060405250919050565b600067ffffffffffffffff821115610dbe57600080fd5b601f19601f8301169050602081019050919050565b600081519050919050565b600081519050919050565b600082825260208201905092915050565b6000610e0582610e22565b9050919050565b60008115159050919050565b6000819050919050565b600073ffffffffffffffffffffffffffffffffffffffff82169050919050565b82818337600083830152505050565b60005b83811015610e6f578082015181840152602081019050610e54565b83811115610e7e576000848401525b50505050565b6000601f19601f8301169050919050565b610e9e81610dfa565b8114610ea957600080fd5b50565b610eb581610e18565b8114610ec057600080fd5b5056fea365627a7a7231582088c84ce2b0d1cba8e7e7ae6e812e352af1ff88806460c8d2e81a658191553d1d6c6578706572696d656e74616cf564736f6c63430005100040a365627a7a72315820aa824f7a6182400363999066fd2493405310aeb3312f0eff349e1f78ee6c1b136c6578706572696d656e74616cf564736f6c63430005100040",
  "source": "pragma solidity >=0.4.22 <0.9.0;  \r\npragma experimental ABIEncoderV2;\r\n\r\ncontract Ownable {\r\n  address private _owner;\r\n\r\n  event OwnershipTransferred(\r\n    address indexed previousOwner,\r\n    address indexed newOwner\r\n  );\r\n\r\n  /**\r\n  * @dev The Ownable constructor sets the original `owner` of the contract to the sender\r\n  * account.\r\n  */\r\n  constructor() public {\r\n    _owner = msg.sender;\r\n    emit OwnershipTransferred(address(0), _owner);\r\n  }\r\n\r\n  /**\r\n  * @return the address of the owner.\r\n  */\r\n  function owner() public view returns(address) {\r\n    return _owner;\r\n  }\r\n\r\n  /**\r\n  * @dev Throws if called by any account other than the owner.\r\n  */\r\n  modifier onlyOwner() {\r\n    require(isOwner());\r\n    _;\r\n  }\r\n\r\n  /**\r\n  * @return true if `msg.sender` is the owner of the contract.\r\n  */\r\n  function isOwner() public view returns(bool) {\r\n    return msg.sender == _owner;\r\n  }\r\n\r\n  /**\r\n  * @dev Allows the current owner to relinquish control of the contract.\r\n  * @notice Renouncing to ownership will leave the contract without an owner.\r\n  * It will not be possible to call the functions with the `onlyOwner`\r\n  * modifier anymore.\r\n  */\r\n  function renounceOwnership() public onlyOwner {\r\n    emit OwnershipTransferred(_owner, address(0));\r\n    _owner = address(0);\r\n  }\r\n\r\n  /**\r\n  * @dev Allows the current owner to transfer control of the contract to a newOwner.\r\n  * @param newOwner The address to transfer ownership to.\r\n  */\r\n  function transferOwnership(address newOwner) public onlyOwner {\r\n    _transferOwnership(newOwner);\r\n  }\r\n\r\n  /**\r\n  * @dev Transfers control of the contract to a newOwner.\r\n  * @param newOwner The address to transfer ownership to.\r\n  */\r\n  function _transferOwnership(address newOwner) internal {\r\n    require(newOwner != address(0));\r\n    emit OwnershipTransferred(_owner, newOwner);\r\n    _owner = newOwner;\r\n  }\r\n}\r\n\r\ncontract System is Ownable{ \r\n  address[] public schoolAddresses;\r\n  address[] public userAddresses;\r\n  mapping (address => address) public mapSchool; // school address => contract\r\n  mapping (address => address) public mapUser; // user address => contract\r\n\r\n  mapping (string => address) public idnumberToContract;\r\n\r\n  event addedSchool(address newSchool, address newContract);\r\n  event changedSchoolContract(address _schoolAddr, address _contractAddr);\r\n  \r\n  event addedUser(address newUser, address newContract);\r\n  event changedUserContract(address _userAddr,address _contractAddr);\r\n\r\n  event createdUserContractWithIDNumber(string _idnumber);\r\n  \r\n  constructor() public{\r\n    transferOwnership(address(msg.sender));\r\n  } \r\n  modifier onlySchool() {\r\n    require(isSchool());\r\n    _;\r\n  }\r\n  function isSchool() public view returns(bool) {\r\n    if (mapSchool[msg.sender] != address(0)) return true;\r\n    return false;\r\n  }\r\n  function _isSchool(address schoolAddr) public view returns(bool) {\r\n    for (uint i=0; i< schoolAddresses.length; i++){\r\n      if (schoolAddr == schoolAddresses[i]) return true;\r\n    }\r\n    return false;\r\n  }\r\n  function _isSchoolContract(address schoolCA ) public view returns(bool) {\r\n    for (uint i=0; i< schoolAddresses.length; i++){\r\n      if (mapSchool[schoolAddresses[i]] == schoolCA) return true;\r\n    }\r\n    return false;\r\n  }\r\n  function _isUser(address userAddr) internal view returns(bool) {\r\n    for (uint i=0; i< userAddresses.length; i++){\r\n      if (userAddr == userAddresses[i]) return true;\r\n    }\r\n    return false;\r\n  }\r\n  function addSchool( string memory name, string memory addressPlace, string memory phoneNumber, string memory idnumber, string memory fax, string memory website, address schoolAddr)public onlyOwner(){\r\n    require(!(_isSchool(schoolAddr)));\r\n    schoolAddresses.push(schoolAddr);\r\n    School schoolContract = new School(name, addressPlace, phoneNumber, idnumber, fax, website, schoolAddr);\r\n    mapSchool[schoolAddr] = address(schoolContract);\r\n    emit addedSchool(schoolAddr, address(schoolContract));\r\n  }\r\n  function changeSchoolContract(address _schoolAddr, address _contractAddr) public onlyOwner(){\r\n    for(uint i = 0 ; i< schoolAddresses.length; i++){\r\n      if (schoolAddresses[i] == _schoolAddr){\r\n        mapSchool[_schoolAddr] = _contractAddr;\r\n        emit changedSchoolContract(_schoolAddr, _contractAddr);\r\n        return;\r\n      }\r\n    }\r\n  }\r\n  function getSchoolContractAddr(address _schoolAddr) public view returns(address){\r\n    if(mapSchool[_schoolAddr] == address(0)){\r\n      return address(0);\r\n    }\r\n    return mapSchool[_schoolAddr];\r\n  }\r\n  // STUDENT CONTRACT -----------------------------------\r\n  function addUser(address _userAddr, string memory _idnumber, address _userCA) public onlyOwner(){\r\n    // check if userAddress is exist\r\n    // require (idnumberToContract[_idnumber] != address(0));\r\n    userAddresses.push(_userAddr);\r\n    // push user address to array\r\n    idnumberToContract[_idnumber] = _userCA;\r\n    mapUser[_userAddr] = _userCA;\r\n    emit addedUser(_userAddr, _userCA);\r\n  }\r\n  function changeUserContract(address _userAddr, address _contractAddr) public onlyOwner(){\r\n    for (uint i = 0 ; i< userAddresses.length; i++){\r\n      if (userAddresses[i] == _userAddr) {\r\n        mapUser[_userAddr] = _contractAddr;\r\n        emit changedUserContract(_userAddr, _contractAddr);\r\n        break;\r\n      }\r\n    }\r\n  }\r\n  function getUserContractAddr(address userAddr) public view returns(address) {\r\n    return (mapUser[userAddr] != address(0))? mapUser[userAddr] : address(0);\r\n  }\r\n  function createUserContractWithIDNumber (string memory _idnumber, address _sysCA) public onlyOwner(){\r\n    require(idnumberToContract[_idnumber] == address(0));\r\n    User userC = new User(msg.sender,_sysCA);\r\n    idnumberToContract[_idnumber] = address(userC);\r\n    emit createdUserContractWithIDNumber(_idnumber);\r\n  }\r\n  function getContractbyIDNumber (string memory _idnumber) public view returns(address){\r\n    return idnumberToContract[_idnumber];\r\n  }\r\n  \r\n} \r\n\r\ncontract School is Ownable{\r\n  string public name;\r\n  string public addressPlace;\r\n  string public phoneNumber;\r\n  string public idnumber;\r\n  string public fax; \r\n  string public website;\r\n  \r\n  event addedCertificate(address _userCAddr,string _certNumber, bytes32 _certHash);\r\n  event deactivatedCertificate(address _userCAddr,string _certNumber, bytes32 _certHash);\r\n\r\n  constructor(\r\n    string memory _name,\r\n    string memory _addressPlace,\r\n    string memory _phoneNumber,\r\n    string memory _idnumber,\r\n    string memory _fax,\r\n    string memory _website,\r\n    address schAddr\r\n    ) public {\r\n      name = _name;\r\n      addressPlace = _addressPlace;\r\n      phoneNumber = _phoneNumber;\r\n      idnumber = _idnumber;\r\n      fax = _fax;\r\n      website = _website;\r\n      transferOwnership(schAddr);\r\n    }\r\n  function getSchool() public view{\r\n    name;\r\n    addressPlace;\r\n    phoneNumber;\r\n    idnumber;\r\n    fax; \r\n    website;\r\n  }\r\n  function addCertificate(bytes32 _hashedCert,string memory _certNumber,string memory _ipfs, address userCAddr) public onlyOwner(){\r\n    User userI = User(userCAddr);\r\n    require (address(userI) != address(0));\r\n    userI.addCertificate(_hashedCert, _certNumber, _ipfs);\r\n    emit addedCertificate(userCAddr, _certNumber,  _hashedCert);\r\n  }\r\n  function deactivateCertificate(bytes32 _certHash, string memory _certNumber, address userCAddr) public onlyOwner(){\r\n    User userI = User(userCAddr);\r\n    require (address(userI) != address(0));\r\n    userI.deactivateCertificate(_certHash);\r\n    emit deactivatedCertificate(userCAddr, _certNumber, _certHash);\r\n  }\r\n}\r\n\r\ncontract User is Ownable{\r\n  struct Certificate {\r\n    uint8 state;\r\n    address schoolAddress;\r\n    bytes32 certHash;\r\n    string ipfs;\r\n  }\r\n\r\n  bytes32[] public certificateList; // mang hashed_cert\r\n  mapping (bytes32 => Certificate) mapCertificates; // hashed_cert => Certificate\r\n  System public system;\r\n\r\n  event addedCertificate(string _certNumber, bytes32 _certHash, string _ipfs);\r\n  event deactivatedCertificate(bytes32 _certHash);\r\n\r\n  constructor(address userAddr, address _sysCA) public {\r\n    system = System(_sysCA);\r\n    transferOwnership(userAddr);\r\n  }\r\n  \r\n  modifier onlySchool() {\r\n    require(system._isSchoolContract(msg.sender));\r\n    _;\r\n  }\r\n  function addCertificate(bytes32 _hashedCert, string memory _certNumber, string memory _ipfs) public onlySchool(){\r\n    mapCertificates[_hashedCert] = Certificate(uint8(1), msg.sender, _hashedCert, _ipfs);\r\n    certificateList.push(_hashedCert);\r\n    emit addedCertificate(_certNumber, _hashedCert, _ipfs);\r\n  }\r\n  function deactivateCertificate(bytes32 _certHash) public onlySchool(){\r\n    require( mapCertificates[_certHash].schoolAddress == msg.sender);\r\n    mapCertificates[_certHash].state = uint8(0);\r\n    emit deactivatedCertificate( _certHash);\r\n  }\r\n  function viewCertificate(bytes32 _certHash) public view returns(uint8, address, bytes32,  string memory){\r\n    Certificate storage cert = mapCertificates[_certHash];\r\n    return (cert.state, cert.schoolAddress, cert.certHash, cert.ipfs );\r\n  }\r\n  function getAllCertificate() public view returns(Certificate[] memory) {\r\n    Certificate[] memory returnData = new Certificate[](certificateList.length);\r\n    uint i=0;\r\n    for (i; i<= certificateList.length-1; i++){\r\n      returnData[i] = (mapCertificates[certificateList[i]]);\r\n    }\r\n    return returnData;\r\n  }\r\n}\r\n",
  "sourcePath": "D:\\labs\\project_QLVBCC\\src\\contracts\\myContract.sol",
  "compiler": {
    "name": "solc",
    "version": "0.5.16+commit.9c3226ce.Emscripten.clang"
  },
  "schemaVersion": "3.4.3",
  "updatedAt": "2021-12-13T08:33:41.010Z",
  "networkType": "ethereum",
  "devdoc": {
    "methods": {
      "isOwner()": {
        "return": "true if `msg.sender` is the owner of the contract."
      },
      "owner()": {
        "return": "the address of the owner."
      },
      "renounceOwnership()": {
        "details": "Allows the current owner to relinquish control of the contract."
      },
      "transferOwnership(address)": {
        "details": "Allows the current owner to transfer control of the contract to a newOwner.",
        "params": {
          "newOwner": "The address to transfer ownership to."
        }
      }
    }
  },
  "userdoc": {
    "methods": {
      "renounceOwnership()": {
        "notice": "Renouncing to ownership will leave the contract without an owner. It will not be possible to call the functions with the `onlyOwner` modifier anymore."
      }
    }
  }
}