{
  "contractName": "User",
  "abi": [
    {
      "inputs": [
        {
          "internalType": "address",
          "name": "userAddr",
          "type": "address"
        },
        {
          "internalType": "address",
          "name": "_sysCA",
          "type": "address"
        }
      ],
      "payable": false,
      "stateMutability": "nonpayable",
      "type": "constructor"
    },
    {
      "anonymous": false,
      "inputs": [
        {
          "indexed": true,
          "internalType": "address",
          "name": "previousOwner",
          "type": "address"
        },
        {
          "indexed": true,
          "internalType": "address",
          "name": "newOwner",
          "type": "address"
        }
      ],
      "name": "OwnershipTransferred",
      "type": "event"
    },
    {
      "anonymous": false,
      "inputs": [
        {
          "indexed": false,
          "internalType": "string",
          "name": "_certNumber",
          "type": "string"
        },
        {
          "indexed": false,
          "internalType": "bytes32",
          "name": "_certHash",
          "type": "bytes32"
        },
        {
          "indexed": false,
          "internalType": "string",
          "name": "_ipfs",
          "type": "string"
        }
      ],
      "name": "addedCertificate",
      "type": "event"
    },
    {
      "anonymous": false,
      "inputs": [
        {
          "indexed": false,
          "internalType": "string",
          "name": "_certNumber",
          "type": "string"
        }
      ],
      "name": "deactivatedCertificate",
      "type": "event"
    },
    {
      "constant": true,
      "inputs": [
        {
          "internalType": "uint256",
          "name": "",
          "type": "uint256"
        }
      ],
      "name": "certificateList",
      "outputs": [
        {
          "internalType": "bytes32",
          "name": "",
          "type": "bytes32"
        }
      ],
      "payable": false,
      "stateMutability": "view",
      "type": "function"
    },
    {
      "constant": true,
      "inputs": [],
      "name": "isOwner",
      "outputs": [
        {
          "internalType": "bool",
          "name": "",
          "type": "bool"
        }
      ],
      "payable": false,
      "stateMutability": "view",
      "type": "function"
    },
    {
      "constant": true,
      "inputs": [],
      "name": "owner",
      "outputs": [
        {
          "internalType": "address",
          "name": "",
          "type": "address"
        }
      ],
      "payable": false,
      "stateMutability": "view",
      "type": "function"
    },
    {
      "constant": false,
      "inputs": [],
      "name": "renounceOwnership",
      "outputs": [],
      "payable": false,
      "stateMutability": "nonpayable",
      "type": "function"
    },
    {
      "constant": true,
      "inputs": [],
      "name": "system",
      "outputs": [
        {
          "internalType": "contract System",
          "name": "",
          "type": "address"
        }
      ],
      "payable": false,
      "stateMutability": "view",
      "type": "function"
    },
    {
      "constant": false,
      "inputs": [
        {
          "internalType": "address",
          "name": "newOwner",
          "type": "address"
        }
      ],
      "name": "transferOwnership",
      "outputs": [],
      "payable": false,
      "stateMutability": "nonpayable",
      "type": "function"
    },
    {
      "constant": false,
      "inputs": [
        {
          "internalType": "bytes32",
          "name": "_hashedCert",
          "type": "bytes32"
        },
        {
          "internalType": "string",
          "name": "_certNumber",
          "type": "string"
        },
        {
          "internalType": "string",
          "name": "_ipfs",
          "type": "string"
        }
      ],
      "name": "addCertificate",
      "outputs": [],
      "payable": false,
      "stateMutability": "nonpayable",
      "type": "function"
    },
    {
      "constant": false,
      "inputs": [
        {
          "internalType": "bytes32",
          "name": "_certHash",
          "type": "bytes32"
        },
        {
          "internalType": "string",
          "name": "_certNumber",
          "type": "string"
        }
      ],
      "name": "deactivateCertificate",
      "outputs": [],
      "payable": false,
      "stateMutability": "nonpayable",
      "type": "function"
    },
    {
      "constant": true,
      "inputs": [
        {
          "internalType": "bytes32",
          "name": "_certHash",
          "type": "bytes32"
        }
      ],
      "name": "viewCertificate",
      "outputs": [
        {
          "internalType": "uint8",
          "name": "",
          "type": "uint8"
        },
        {
          "internalType": "address",
          "name": "",
          "type": "address"
        },
        {
          "internalType": "bytes32",
          "name": "",
          "type": "bytes32"
        },
        {
          "internalType": "string",
          "name": "",
          "type": "string"
        }
      ],
      "payable": false,
      "stateMutability": "view",
      "type": "function"
    },
    {
      "constant": true,
      "inputs": [],
      "name": "getAllCertificate",
      "outputs": [
        {
          "components": [
            {
              "internalType": "uint8",
              "name": "state",
              "type": "uint8"
            },
            {
              "internalType": "address",
              "name": "schoolAddress",
              "type": "address"
            },
            {
              "internalType": "bytes32",
              "name": "certHash",
              "type": "bytes32"
            },
            {
              "internalType": "string",
              "name": "ipfs",
              "type": "string"
            }
          ],
          "internalType": "struct User.Certificate[]",
          "name": "",
          "type": "tuple[]"
        }
      ],
      "payable": false,
      "stateMutability": "view",
      "type": "function"
    }
  ],
  "bytecode": "0x60806040523480156200001157600080fd5b5060405162001737380380620017378339818101604052620000379190810190620002e2565b336000806101000a81548173ffffffffffffffffffffffffffffffffffffffff021916908373ffffffffffffffffffffffffffffffffffffffff1602179055506000809054906101000a900473ffffffffffffffffffffffffffffffffffffffff1673ffffffffffffffffffffffffffffffffffffffff16600073ffffffffffffffffffffffffffffffffffffffff167f8be0079c531659141344cd1fd0a4f28419497f9722a3daafe3b4186f6b6457e060405160405180910390a380600360006101000a81548173ffffffffffffffffffffffffffffffffffffffff021916908373ffffffffffffffffffffffffffffffffffffffff16021790555062000145826200014d60201b60201c565b505062000371565b6200015d6200017b60201b60201c565b6200016757600080fd5b6200017881620001d260201b60201c565b50565b60008060009054906101000a900473ffffffffffffffffffffffffffffffffffffffff1673ffffffffffffffffffffffffffffffffffffffff163373ffffffffffffffffffffffffffffffffffffffff1614905090565b600073ffffffffffffffffffffffffffffffffffffffff168173ffffffffffffffffffffffffffffffffffffffff1614156200020d57600080fd5b8073ffffffffffffffffffffffffffffffffffffffff166000809054906101000a900473ffffffffffffffffffffffffffffffffffffffff1673ffffffffffffffffffffffffffffffffffffffff167f8be0079c531659141344cd1fd0a4f28419497f9722a3daafe3b4186f6b6457e060405160405180910390a3806000806101000a81548173ffffffffffffffffffffffffffffffffffffffff021916908373ffffffffffffffffffffffffffffffffffffffff16021790555050565b600081519050620002dc8162000357565b92915050565b60008060408385031215620002f657600080fd5b60006200030685828601620002cb565b92505060206200031985828601620002cb565b9150509250929050565b6000620003308262000337565b9050919050565b600073ffffffffffffffffffffffffffffffffffffffff82169050919050565b620003628162000323565b81146200036e57600080fd5b50565b6113b680620003816000396000f3fe608060405234801561001057600080fd5b506004361061009e5760003560e01c80638f32d59b116100665780638f32d59b1461014a57806395bf75fd14610168578063d7787eeb14610186578063ecadd443146101a2578063f2fde38b146101c05761009e565b806320cc1342146100a35780633ca03fcc146100bf57806340f126ba146100ef578063715018a6146101225780638da5cb5b1461012c575b600080fd5b6100bd60048036036100b89190810190610d04565b6101dc565b005b6100d960048036036100d49190810190610dd7565b610369565b6040516100e69190611058565b60405180910390f35b61010960048036036101049190810190610cdb565b61038a565b60405161011994939291906110f5565b60405180910390f35b61012a610494565b005b610134610564565b6040516101419190610fe5565b60405180910390f35b61015261058d565b60405161015f919061103d565b60405180910390f35b6101706105e4565b60405161017d9190611073565b60405180910390f35b6101a0600480360361019b9190810190610d58565b61060a565b005b6101aa61080a565b6040516101b7919061101b565b60405180910390f35b6101da60048036036101d59190810190610c89565b6109e3565b005b600360009054906101000a900473ffffffffffffffffffffffffffffffffffffffff1673ffffffffffffffffffffffffffffffffffffffff16632037d402336040518263ffffffff1660e01b81526004016102379190611000565b60206040518083038186803b15801561024f57600080fd5b505afa158015610263573d6000803e3d6000fd5b505050506040513d601f19601f820116820180604052506102879190810190610cb2565b61029057600080fd5b3373ffffffffffffffffffffffffffffffffffffffff166002600084815260200190815260200160002060000160019054906101000a900473ffffffffffffffffffffffffffffffffffffffff1673ffffffffffffffffffffffffffffffffffffffff16146102fe57600080fd5b60006002600084815260200190815260200160002060000160006101000a81548160ff021916908360ff1602179055507ff06f49cdbb647b00e42e9536d3d5e710ed32e68729926cb841ebfde09173ad928160405161035d919061108e565b60405180910390a15050565b6001818154811061037657fe5b906000526020600020016000915090505481565b6000806000606060006002600087815260200190815260200160002090508060000160009054906101000a900460ff168160000160019054906101000a900473ffffffffffffffffffffffffffffffffffffffff16826001015483600201808054600181600116156101000203166002900480601f01602080910402602001604051908101604052809291908181526020018280546001816001161561010002031660029004801561047d5780601f106104525761010080835404028352916020019161047d565b820191906000526020600020905b81548152906001019060200180831161046057829003601f168201915b505050505090509450945094509450509193509193565b61049c61058d565b6104a557600080fd5b600073ffffffffffffffffffffffffffffffffffffffff166000809054906101000a900473ffffffffffffffffffffffffffffffffffffffff1673ffffffffffffffffffffffffffffffffffffffff167f8be0079c531659141344cd1fd0a4f28419497f9722a3daafe3b4186f6b6457e060405160405180910390a360008060006101000a81548173ffffffffffffffffffffffffffffffffffffffff021916908373ffffffffffffffffffffffffffffffffffffffff160217905550565b60008060009054906101000a900473ffffffffffffffffffffffffffffffffffffffff16905090565b60008060009054906101000a900473ffffffffffffffffffffffffffffffffffffffff1673ffffffffffffffffffffffffffffffffffffffff163373ffffffffffffffffffffffffffffffffffffffff1614905090565b600360009054906101000a900473ffffffffffffffffffffffffffffffffffffffff1681565b600360009054906101000a900473ffffffffffffffffffffffffffffffffffffffff1673ffffffffffffffffffffffffffffffffffffffff16632037d402336040518263ffffffff1660e01b81526004016106659190611000565b60206040518083038186803b15801561067d57600080fd5b505afa158015610691573d6000803e3d6000fd5b505050506040513d601f19601f820116820180604052506106b59190810190610cb2565b6106be57600080fd5b6040518060800160405280600160ff1681526020013373ffffffffffffffffffffffffffffffffffffffff168152602001848152602001828152506002600085815260200190815260200160002060008201518160000160006101000a81548160ff021916908360ff16021790555060208201518160000160016101000a81548173ffffffffffffffffffffffffffffffffffffffff021916908373ffffffffffffffffffffffffffffffffffffffff16021790555060408201518160010155606082015181600201908051906020019061079a929190610af8565b5090505060018390806001815401808255809150509060018203906000526020600020016000909192909190915055507f950d82c3d2786c1e94a75b98878453641af6a2e4dc132187c32ffc0746f3dd488284836040516107fd939291906110b0565b60405180910390a1505050565b60608060018054905060405190808252806020026020018201604052801561084c57816020015b610839610b78565b8152602001906001900390816108315790505b50905060008090505b600180805490500381116109db57600260006001838154811061087457fe5b906000526020600020015481526020019081526020016000206040518060800160405290816000820160009054906101000a900460ff1660ff1660ff1681526020016000820160019054906101000a900473ffffffffffffffffffffffffffffffffffffffff1673ffffffffffffffffffffffffffffffffffffffff1673ffffffffffffffffffffffffffffffffffffffff16815260200160018201548152602001600282018054600181600116156101000203166002900480601f0160208091040260200160405190810160405280929190818152602001828054600181600116156101000203166002900480156109ae5780601f10610983576101008083540402835291602001916109ae565b820191906000526020600020905b81548152906001019060200180831161099157829003601f168201915b5050505050815250508282815181106109c357fe5b60200260200101819052508080600101915050610855565b819250505090565b6109eb61058d565b6109f457600080fd5b6109fd81610a00565b50565b600073ffffffffffffffffffffffffffffffffffffffff168173ffffffffffffffffffffffffffffffffffffffff161415610a3a57600080fd5b8073ffffffffffffffffffffffffffffffffffffffff166000809054906101000a900473ffffffffffffffffffffffffffffffffffffffff1673ffffffffffffffffffffffffffffffffffffffff167f8be0079c531659141344cd1fd0a4f28419497f9722a3daafe3b4186f6b6457e060405160405180910390a3806000806101000a81548173ffffffffffffffffffffffffffffffffffffffff021916908373ffffffffffffffffffffffffffffffffffffffff16021790555050565b828054600181600116156101000203166002900490600052602060002090601f016020900481019282601f10610b3957805160ff1916838001178555610b67565b82800160010185558215610b67579182015b82811115610b66578251825591602001919060010190610b4b565b5b509050610b749190610bbc565b5090565b6040518060800160405280600060ff168152602001600073ffffffffffffffffffffffffffffffffffffffff16815260200160008019168152602001606081525090565b610bde91905b80821115610bda576000816000905550600101610bc2565b5090565b90565b600081359050610bf081611317565b92915050565b600081519050610c058161132e565b92915050565b600081359050610c1a81611345565b92915050565b600082601f830112610c3157600080fd5b8135610c44610c3f8261116e565b611141565b91508082526020830160208301858383011115610c6057600080fd5b610c6b8382846112c4565b50505092915050565b600081359050610c838161135c565b92915050565b600060208284031215610c9b57600080fd5b6000610ca984828501610be1565b91505092915050565b600060208284031215610cc457600080fd5b6000610cd284828501610bf6565b91505092915050565b600060208284031215610ced57600080fd5b6000610cfb84828501610c0b565b91505092915050565b60008060408385031215610d1757600080fd5b6000610d2585828601610c0b565b925050602083013567ffffffffffffffff811115610d4257600080fd5b610d4e85828601610c20565b9150509250929050565b600080600060608486031215610d6d57600080fd5b6000610d7b86828701610c0b565b935050602084013567ffffffffffffffff811115610d9857600080fd5b610da486828701610c20565b925050604084013567ffffffffffffffff811115610dc157600080fd5b610dcd86828701610c20565b9150509250925092565b600060208284031215610de957600080fd5b6000610df784828501610c74565b91505092915050565b6000610e0c8383610f64565b905092915050565b610e1d8161126a565b82525050565b610e2c8161120b565b82525050565b610e3b8161120b565b82525050565b6000610e4c826111aa565b610e5681856111d8565b935083602082028501610e688561119a565b8060005b85811015610ea45784840389528151610e858582610e00565b9450610e90836111cb565b925060208a01995050600181019050610e6c565b50829750879550505050505092915050565b610ebf8161121d565b82525050565b610ece81611229565b82525050565b610edd81611229565b82525050565b610eec8161127c565b82525050565b6000610efd826111c0565b610f0781856111fa565b9350610f178185602086016112d3565b610f2081611306565b840191505092915050565b6000610f36826111b5565b610f4081856111e9565b9350610f508185602086016112d3565b610f5981611306565b840191505092915050565b6000608083016000830151610f7c6000860182610fc7565b506020830151610f8f6020860182610e23565b506040830151610fa26040860182610ec5565b5060608301518482036060860152610fba8282610f2b565b9150508091505092915050565b610fd08161125d565b82525050565b610fdf8161125d565b82525050565b6000602082019050610ffa6000830184610e32565b92915050565b60006020820190506110156000830184610e14565b92915050565b600060208201905081810360008301526110358184610e41565b905092915050565b60006020820190506110526000830184610eb6565b92915050565b600060208201905061106d6000830184610ed4565b92915050565b60006020820190506110886000830184610ee3565b92915050565b600060208201905081810360008301526110a88184610ef2565b905092915050565b600060608201905081810360008301526110ca8186610ef2565b90506110d96020830185610ed4565b81810360408301526110eb8184610ef2565b9050949350505050565b600060808201905061110a6000830187610fd6565b6111176020830186610e32565b6111246040830185610ed4565b81810360608301526111368184610ef2565b905095945050505050565b6000604051905081810181811067ffffffffffffffff8211171561116457600080fd5b8060405250919050565b600067ffffffffffffffff82111561118557600080fd5b601f19601f8301169050602081019050919050565b6000819050602082019050919050565b600081519050919050565b600081519050919050565b600081519050919050565b6000602082019050919050565b600082825260208201905092915050565b600082825260208201905092915050565b600082825260208201905092915050565b600061121682611233565b9050919050565b60008115159050919050565b6000819050919050565b600073ffffffffffffffffffffffffffffffffffffffff82169050919050565b6000819050919050565b600060ff82169050919050565b6000611275826112a0565b9050919050565b60006112878261128e565b9050919050565b600061129982611233565b9050919050565b60006112ab826112b2565b9050919050565b60006112bd82611233565b9050919050565b82818337600083830152505050565b60005b838110156112f15780820151818401526020810190506112d6565b83811115611300576000848401525b50505050565b6000601f19601f8301169050919050565b6113208161120b565b811461132b57600080fd5b50565b6113378161121d565b811461134257600080fd5b50565b61134e81611229565b811461135957600080fd5b50565b61136581611253565b811461137057600080fd5b5056fea365627a7a723158204815d48d9c2e13c915af9d7730a8fa33dd22b0466629dbc151acefcb608cc1ec6c6578706572696d656e74616cf564736f6c63430005100040",
  "source": "pragma solidity >=0.4.22 <0.9.0;  \r\npragma experimental ABIEncoderV2;\r\n\r\ncontract Ownable {\r\n  address private _owner;\r\n\r\n  event OwnershipTransferred(\r\n    address indexed previousOwner,\r\n    address indexed newOwner\r\n  );\r\n\r\n  constructor() public {\r\n    _owner = msg.sender;\r\n    emit OwnershipTransferred(address(0), _owner);\r\n  }\r\n  function owner() public view returns(address) {\r\n    return _owner;\r\n  }\r\n  modifier onlyOwner() {\r\n    require(isOwner());\r\n    _;\r\n  }\r\n  function isOwner() public view returns(bool) {\r\n    return msg.sender == _owner;\r\n  }\r\n  function renounceOwnership() public onlyOwner {\r\n    emit OwnershipTransferred(_owner, address(0));\r\n    _owner = address(0);\r\n  }\r\n  function transferOwnership(address newOwner) public onlyOwner {\r\n    _transferOwnership(newOwner);\r\n  }\r\n  function _transferOwnership(address newOwner) internal {\r\n    require(newOwner != address(0));\r\n    emit OwnershipTransferred(_owner, newOwner);\r\n    _owner = newOwner;\r\n  }\r\n}\r\n\r\ncontract System is Ownable{ \r\n  address[] public schoolAddresses;\r\n  address[] public userAddresses;\r\n  mapping (address => address) public mapSchool; // school address => contract\r\n  mapping (address => address) public mapUser; // user address => contract\r\n\r\n  mapping (string => address) public idnumberToContract;\r\n\r\n  event addedSchool(string schoolCode, address newSchool, address newContract);\r\n  event changedSchoolContract(address _schoolAddr, address _contractAddr);\r\n  \r\n  event addedUser(string idnumber, address newUser, address newContract);\r\n  event changedUserContract(address _userAddr,address _contractAddr);\r\n\r\n  event createdUserContractWithIDNumber(string _idnumber);\r\n  \r\n  constructor() public{\r\n    transferOwnership(address(msg.sender));\r\n  } \r\n  modifier onlySchool() {\r\n    require(isSchool());\r\n    _;\r\n  }\r\n  function isSchool() public view returns(bool) {\r\n    if (mapSchool[msg.sender] != address(0)) return true;\r\n    return false;\r\n  }\r\n  function _isSchool(address schoolAddr) public view returns(bool) {\r\n    for (uint i=0; i< schoolAddresses.length; i++){\r\n      if (schoolAddr == schoolAddresses[i]) return true;\r\n    }\r\n    return false;\r\n  }\r\n  function _isSchoolContract(address schoolCA ) public view returns(bool) {\r\n    for (uint i=0; i< schoolAddresses.length; i++){\r\n      if (mapSchool[schoolAddresses[i]] == schoolCA) return true;\r\n    }\r\n    return false;\r\n  }\r\n  function _isUser(address userAddr) internal view returns(bool) {\r\n    for (uint i=0; i< userAddresses.length; i++){\r\n      if (userAddr == userAddresses[i]) return true;\r\n    }\r\n    return false;\r\n  }\r\n  function addSchool( string memory name,string memory code, string memory addressPlace, string memory phoneNumber, string memory email, string memory fax, string memory website, address schoolAddr)public onlyOwner(){\r\n    require(!(_isSchool(schoolAddr)));\r\n    schoolAddresses.push(schoolAddr);\r\n    School schoolContract = new School(name, code, addressPlace, phoneNumber, email, fax, website, schoolAddr);\r\n    mapSchool[schoolAddr] = address(schoolContract);\r\n    emit addedSchool(code, schoolAddr, address(schoolContract));\r\n  }\r\n  \r\n  function changeSchoolContract(address _schoolAddr, address _contractAddr) public onlyOwner(){\r\n    for(uint i = 0 ; i< schoolAddresses.length; i++){\r\n      if (schoolAddresses[i] == _schoolAddr){\r\n        mapSchool[_schoolAddr] = _contractAddr;\r\n        emit changedSchoolContract(_schoolAddr, _contractAddr);\r\n        return;\r\n      }\r\n    }\r\n  }\r\n  function getSchoolContractAddr(address _schoolAddr) public view returns(address){\r\n    if(mapSchool[_schoolAddr] == address(0)){\r\n      return address(0);\r\n    }\r\n    return mapSchool[_schoolAddr];\r\n  }\r\n  function addUser(address _userAddr, string memory _idnumber, address _userCA) public onlyOwner(){\r\n    userAddresses.push(_userAddr);\r\n    idnumberToContract[_idnumber] = _userCA;\r\n    mapUser[_userAddr] = _userCA;\r\n    emit addedUser(_idnumber, _userAddr, _userCA);\r\n  }\r\n  function changeUserContract(address _userAddr, address _contractAddr) public onlyOwner(){\r\n    for (uint i = 0 ; i< userAddresses.length; i++){\r\n      if (userAddresses[i] == _userAddr) {\r\n        mapUser[_userAddr] = _contractAddr;\r\n        emit changedUserContract(_userAddr, _contractAddr);\r\n        break;\r\n      }\r\n    }\r\n  }\r\n  function getUserContractAddr(address userAddr) public view returns(address) {\r\n    return (mapUser[userAddr] != address(0))? mapUser[userAddr] : address(0);\r\n  }\r\n  function createUserContractWithIDNumber (string memory _idnumber, address _sysCA) public onlyOwner(){\r\n    require(idnumberToContract[_idnumber] == address(0));\r\n    User userC = new User(msg.sender,_sysCA);\r\n    idnumberToContract[_idnumber] = address(userC);\r\n    emit createdUserContractWithIDNumber(_idnumber);\r\n  }\r\n  function getContractbyIDNumber (string memory _idnumber) public view returns(address){\r\n    return idnumberToContract[_idnumber];\r\n  }\r\n} \r\n\r\ncontract School is Ownable{\r\n  string public name;\r\n  string public code;\r\n  string public addressPlace;\r\n  string public phoneNumber;\r\n  string public email;\r\n  string public fax; \r\n  string public website;\r\n  \r\n  event addedCertificate(address _userCAddr,string _certNumber, bytes32 _certHash);\r\n  event deactivatedCertificate(address _userCAddr,string _certNumber, bytes32 _certHash);\r\n\r\n  constructor(\r\n    string memory _name,\r\n    string memory _code,\r\n    string memory _addressPlace,\r\n    string memory _phoneNumber,\r\n    string memory _email,\r\n    string memory _fax,\r\n    string memory _website,\r\n    address schAddr\r\n    ) public {\r\n      name = _name;\r\n      code = _code;\r\n      addressPlace = _addressPlace;\r\n      phoneNumber = _phoneNumber;\r\n      email = _email;\r\n      fax = _fax;\r\n      website = _website;\r\n      transferOwnership(schAddr);\r\n    }\r\n  function getSchool() public view returns (string memory, string memory, string memory, string memory, string memory, string memory, string memory){\r\n    return (name, code, addressPlace ,phoneNumber , email, fax, website);\r\n  }\r\n  function addCertificate(bytes32 _hashedCert,string memory _certNumber,string memory _ipfs, address userCAddr) public onlyOwner(){\r\n    User userI = User(userCAddr);\r\n    require (address(userI) != address(0));\r\n    userI.addCertificate(_hashedCert, _certNumber, _ipfs);\r\n    emit addedCertificate(userCAddr, _certNumber,  _hashedCert);\r\n  }\r\n  function deactivateCertificate(bytes32 _certHash, string memory _certNumber, address userCAddr) public onlyOwner(){\r\n    User userI = User(userCAddr);\r\n    require (address(userI) != address(0));\r\n    userI.deactivateCertificate(_certHash, _certNumber);\r\n    emit deactivatedCertificate(userCAddr, _certNumber, _certHash);\r\n  }\r\n}\r\n\r\ncontract User is Ownable{\r\n  struct Certificate {\r\n    uint8 state;\r\n    address schoolAddress;\r\n    bytes32 certHash;\r\n    string ipfs;\r\n  }\r\n\r\n  bytes32[] public certificateList;\r\n  mapping (bytes32 => Certificate) mapCertificates;\r\n  System public system;\r\n\r\n  event addedCertificate(string _certNumber, bytes32 _certHash, string _ipfs);\r\n  event deactivatedCertificate(string _certNumber);\r\n\r\n  constructor(address userAddr, address _sysCA) public {\r\n    system = System(_sysCA);\r\n    transferOwnership(userAddr);\r\n  }\r\n  \r\n  modifier onlySchool() {\r\n    require(system._isSchoolContract(msg.sender));\r\n    _;\r\n  }\r\n  function addCertificate(bytes32 _hashedCert, string memory _certNumber, string memory _ipfs) public onlySchool(){\r\n    mapCertificates[_hashedCert] = Certificate(uint8(1), msg.sender, _hashedCert, _ipfs);\r\n    certificateList.push(_hashedCert);\r\n    emit addedCertificate(_certNumber, _hashedCert, _ipfs);\r\n  }\r\n  function deactivateCertificate(bytes32 _certHash, string memory _certNumber) public onlySchool(){\r\n    require( mapCertificates[_certHash].schoolAddress == msg.sender);\r\n    mapCertificates[_certHash].state = uint8(0);\r\n    emit deactivatedCertificate(_certNumber);\r\n  }\r\n  function viewCertificate(bytes32 _certHash) public view returns(uint8, address, bytes32, string memory){\r\n    Certificate storage cert = mapCertificates[_certHash];\r\n    return (cert.state, cert.schoolAddress, cert.certHash, cert.ipfs);\r\n  }\r\n  function getAllCertificate() public view returns(Certificate[] memory) {\r\n    Certificate[] memory returnData = new Certificate[](certificateList.length);\r\n    uint i=0;\r\n    for (i; i<= certificateList.length-1; i++){\r\n      returnData[i] = (mapCertificates[certificateList[i]]);\r\n    }\r\n    return returnData;\r\n  }\r\n}\r\n",
  "sourcePath": "D:\\project_QLVBCC\\src\\contracts\\myContract.sol",
  "compiler": {
    "name": "solc",
    "version": "0.5.16+commit.9c3226ce.Emscripten.clang"
  },
  "schemaVersion": "3.4.3",
  "updatedAt": "2021-12-29T00:45:51.769Z",
  "networkType": "ethereum",
  "devdoc": {
    "methods": {}
  },
  "userdoc": {
    "methods": {}
  }
}